:10018000051E7C7C7C7C7C05237C7C7C7C7C011932
:100190000001180010087E306D79335B5F707F7B43
:0601A000771F0D3D4F47E3
:06028E00E4FF0FBF05FCB8
:010294002247
:06029500E4FF0FBF0FFCA7
:01029B002240
:06029C00E4FF0FBF3CFC73
:0102A2002239
:09027C00E4FE1202950EBE2EF9FB
:010285002256
:0F024200E4FEE4FD1202950DBDFAF90EBE20F3A5
:01025100228A
:0F025200E4FEE4FD1202950DBDFAF90EBE50F365
:01026100227A
:10021D0075800FC2B0D294C297D295D29612024277
:04022D00E4F5802252
:0401EB00E4FDC294D9
:1001EF00E4FEEF339295EF25E0FFD297A296E4332A
:0801FF004207C2970EBE08EA98
:0102070022D4
:070286001201EBAD07D29459
:01028D00224E
:0C0262001201EBE4FF1201EFAD07D29493
:01026E00226D
:06012E008B2A8A2B892CAC
:100134001201EBE4EDC3952D5017E4FF1201EFAB70
:100144002AAA2BA92C8D82758300EF12010C0D8035
:03015400E3D2945F
:010157002285
:10023100C2941201EFAC07AF051201EFD294AF04E3
:01024100229A
:060158008B2A8A2B892C82
:10015E001201EBE4EDC3952D5015AB2AAA2BA92C59
:10016E008D827583001200DFFF1201EF0D80E5D244
:01017E0094EC
:01017F00225D
:10008F00E4FD7F211202310D7F221202317D037FA9
:10009F00231202317D107F241202317F251202318B
:1000AF001D7F261202317B007A007923752D057F83
:1000BF002A1201587B007A007923752D057F3012A3
:1000CF0001587D017F311202317D7B7F2002023189
:0D026F00D28312008FD2B0120242C283224D
:100208007B007A007919752D017F6112012E7D40DE
:050218007F2702023106
:1001A700E4FBFAE51870127FFF1202867A00AB07AC
:1001B700EB30E6EF75180180EAE5186006120208D1
:0301C700E4F51844
:0101CA002212
:1001CB00E4F52812021D12026FE4F518C281120128
:1001DB00A774082519F8E6F5A0D28112024280EC2B
:03000000020003F8
:0C000300787FE4F6D8FD75812D02004ADC
:1000DF00BB010CE58229F582E5833AF583E02250D6
:1000EF0006E92582F8E622BBFE06E92582F8E22220
:0D00FF00E58229F582E5833AF583E493223A
:10010C00F8BB010DE58229F582E5833AF583E8F029
:10011C00225006E92582C8F622BBFE05E92582C8D5
:02012C00F222BD
:10000F000201CBE493A3F8E493A34003F68001F23B
:10001F0008DFF48029E493A3F85407240CC8C333F2
:10002F00C4540F4420C8834004F456800146F6DFC1
:10003F00E4800B0102040810204080900180E47ED0
:10004F00019360BCA3FF543F30E509541FFEE493B6
:10005F00A360010ECF54C025E060A840B8E493A37D
:10006F00FAE493A3F8E493A3C8C582C8CAC583CAA8
:10007F00F0A3C8C582C8CAC583CADFE9DEE780BE60
:0101A6000058
:00000001FF
