:0B307A00BBB6D3ADCAB9D3C3A3A100FD
:102DDD00122B6F122FF0122F307BFF7A30797A7D04
:102DED00187F181224577F647E00122EB81230B04F
:082DFD00122AAC12282780F80D
:1000030000000000000000000000000000000000ED
:1000130000000000000000000000CAD6001000F835
:100023007F00010001103FF8010001000104FFFE01
:10003300010001000100010005000200CAD40020F4
:100043004028202420200FFE0020E02027E021204C
:1000530021102110211029D23712220A0004D6B50B
:10006300084008480FFC1040104833FC520893F82E
:10007300120813F8120813F8120812081FFE1000D2
:10008300BBB600800080FC8004FC45044648284041
:1000930028401040284024A044A081100108020EEB
:1000A3000C04D3AD00004184267E1444044404446C
:1000B300F44414C415441654144810401040284600
:1000C30047FC0000CAB9104010441FFE204027FC23
:1000D3006444A444244427FC24442240218020C0B7
:1000E3002130260E2804D3C300083FFC2108210831
:1000F30021083FF82108210821083FF82108210899
:100103002108410841288010B5E7020002000210CF
:100113007FF8421042107FF0421042107FF04210ED
:1001230002000204020401FC0000C1BF00101FF81A
:1001330010101FF01014FFFE00001FF011101FF02D
:1001430011101FF001001FF001007FFCBCE0044010
:1001530004402448247C24A02518240824000408EF
:100163003FFC2448244824482448FFFE0000CAD307
:10017300200813FC12080248FE480A481248324875
:100183005A48966812A810A011221122121E1400B8
:10019300B6D4001000100010FC1407FE0410481021
:1001A3002910109010902810241044108010005033
:1001B3000020CFF308000FE010483FFC6108A108BE
:1001C3003FF80610192062C00CC031A00690188EAB
:1001D30062840100BCEC1040104010A010A0FD1080
:1001E300120E35F4300058405648914C11481150C6
:1001F30010041FFE1000B2E20000404427E4245420
:100203008554655425540D5415542554E55421043F
:100213002284244428542008B2CE02000240042041
:100223001FF00204FFFE044008A013102C4EC184EB
:100233000E10006001800E007000CAFD08404940A6
:100243002A400884FFFE19082C884A881088FE90EB
:100253002250222014501888250E4204C9E801F0C8
:100263002110111011100110020EF40013F81108DF
:100273001110109010A0144018B0130E0C04B6A85F
:10028300020001007FFE400280241FF001000100F4
:10029300112011F0110011001100290647FC800004
:1002A300B2E901000104FFFE0540092011103FFEE1
:1002B300D01410101FF0101010101FF00004FFFED8
:1002C3000000D1AF0200420433FE1404040409F415
:1002D300F114111411F41114111413F41514180456
:1002E30010140008B5F7400427FE2444044405F421
:1002F300E444245427FC240425F425142D1435F454
:10030300250408141008D5FB08407F44087E7F8825
:1003130049487F501C202A50C88E3FF8010009F03D
:1003230009000904FFFE0000CAB1000804087E08A2
:10033300440847FE440844087C8844484448440829
:1003430044087C08444800280010BCE420041BFE39
:10035300080440244FF44824482448244FE4482404
:10036300482448244FE4482440144008D2C70800D6
:100373000880086412241204320851089110109066
:1003830010A0104010A011101208140E1804C6F784
:100393003EF82288228822883EF801200114FFFEBD
:1003A30002800C603018FEFE2288228822883EF8E4
:1003B300B1EA1000101013F81000FC00100437FE0F
:1003C3003840544051509148124C1444104011404D
:1003D3001080BDBB020001000104FFFE08200810CD
:1003E300100C28244440028001000280044008309D
:1003F300300EC004C1F70080404837FC10408090A5
:10040300610827FC080411502150E150215021526A
:100413002152224E2440D6B1010001087FFC010085
:1004230001101FF810101FF010101FF010101FF014
:1004330010101014FFFE0000C1F70080404837FC85
:1004430010408090610827FC080411502150E150AE
:10045300215021522152224E2440B7B50008401C9E
:1004630033E01200020002F8F20812901250122038
:100473001250148C15042800440603FCBBD800005A
:1004830000047FFE4004404447E44444444444445D
:10049300444447C4444440047FFC40040000D1B9B1
:1004A30000083FFC208020802080208020882FFCB3
:1004B300208020A020982088408040849FFE000058
:1004C300B9A6008000800880FC80108417FE108489
:1004D3001084108410841D04F10441040244042890
:1004E3000810C2CA020001087FFC010042442788A9
:1004F300111022484FE401200104FFFE0100010016
:1005030001000100BAE3100817FC100010085BFC9F
:100513005608520893F81208120813F81000100432
:100523001FFE10001000B6A8020001007FFE40026B
:1005330080241FF001000100112011F011001100AF
:100543001100290647FC8000CFDF084008501048FF
:100553001040227C7FC00844107E23C07C4800509A
:1005630000201C60E092430A0006D0D410401040E3
:10057300124012485BFC544054409840105013F80A
:1005830010401040104010441FFE1000B5E7020059
:10059300020002107FF8421042107FF04210421016
:1005A3007FF0421002000204020401FC0000D7E8BD
:1005B30000007C0845FC49084908510849F84908E6
:1005C3004508450845F869085108410847FE4000B9
:1005D300D7D40100020004101FF8101010101FF0F0
:1005E3001010101010101FF01010101010101FF02A
:1005F3001010B6AF004008407C40004405FEFE44A6
:1006030010441044204424444284FE8441040104E1
:1006130002280410D1AD101C17E02420242447FE27
:10062300942025FC6504A50425FC250425FC290448
:10063300290431FC2104BBB71000F80427FE202055
:1006430020202040F84020D0214C22462442204044
:100653003840E04040400040BCD31000100010047C
:10066300127EFF4412441244124412442244224490
:10067300224422444A7C84440000C7BF0804FDFE90
:100683000904090409FC7924482043FE42227A2202
:100693000BFE0A220820882453FE2002C3DC02003A
:1006A30001007FFE4202892428C84B040C1077F016
:1006B300010021082108210821083FF82008C2EB86
:1006C3000810FFF810101110211025103F106514A9
:1006D300A5FE2404242427F424043C042414000841
:1006E300A3A10000018003C003C003C001800180F7
:1006F3000180018001800000000001800180000072
:1007030000000000000000000000000000000000E6
:1007130000000000000000000000000000000000D6
:1007230000000000000000000000000000000000C6
:100733000000000000007E81A58181BD9981817E3A
:100743000000000000007EFFDBFFFFC3E7FFFF7E2A
:1007530000000000000000006CFEFEFEFE7C38106E
:10076300000000000000000010387CFE7C38100000
:1007730000000000000000183C3CE7E7E718183CC5
:1007830000000000000000183C7EFFFF7E18183CAC
:1007930000000000000000000000183C3C180000AE
:1007A30000000000FFFFFFFFFFFFE7C3C3E7FFFFFA
:1007B300FFFFFFFF00000000003C664242663C0072
:1007C30000000000FFFFFFFFFFC399BDBD99C3FFFA
:1007D300FFFFFFFF00001E0E1A3278CCCCCCCC7882
:1007E3000000000000003C666666663C187E181830
:1007F3000000000000003F333F3030303070F0E045
:100803000000000000007F637F6363636367E7E6C4
:10081300C00000000000001818DB3CE73CDB1818A0
:10082300000000000080C0E0F0F8FEF8F0E0C080B7
:10083300000000000002060E1E3EFE3E1E0E0602D3
:10084300000000000000183C7E1818187E3C1800B9
:1008530000000000000066666666666666006666FF
:100863000000000000007FDBDBDB7B1B1B1B1B1B73
:1008730000000000007CC660386CC6C66C380CC62D
:100883007C0000000000000000000000FEFEFEFEF1
:10089300000000000000183C7E1818187E3C187EEB
:1008A300000000000000183C7E18181818181818CB
:1008B300000000000000181818181818187E3C18BB
:1008C300000000000000000000180CFE0C180000DF
:1008D3000000000000000000003060FE60300000F7
:1008E30000000000000000000000C0C0C0FE0000C7
:1008F300000000000000000000286CFE6C280000CF
:1009030000000000000000001038387C7CFEFE0070
:100913000000000000000000FEFE7C7C3838100060
:1009230000000000000000000000000000000000C4
:10093300000000000000183C3C3C18181800181870
:10094300000000000066666624000000000000004E
:10095300000000000000006C6CFE6C6C6CFE6C6CA4
:100963000000000018187CC6C2C07C060686C67C40
:100973001818000000000000C2C60C183060C686BC
:10098300000000000000386C6C3876DCCCCCCC76F0
:100993000000000000303030600000000000000064
:1009A3000000000000000C18303030303030180CDC
:1009B30000000000000030180C0C0C0C0C0C18305C
:1009C300000000000000000000663CFF3C660000E1
:1009D30000000000000000000018187E1818000036
:1009E30000000000000000000000000000181818BC
:1009F3003000000000000000000000FE00000000C6
:100A030000000000000000000000000000001818B3
:100A1300000000000000000002060C183060C080D7
:100A2300000000000000386CC6C6D6D6C6C66C38B7
:100A33000000000000001838781818181818187EDD
:100A43000000000000007CC6060C183060C0C6FE23
:100A53000000000000007CC606063C060606C67CB5
:100A63000000000000000C1C3C6CCCFE0C0C0C1EA7
:100A7300000000000000FEC0C0C0FC060606C67CE5
:100A83000000000000003860C0C0FCC6C6C6C67CBB
:100A9300000000000000FEC606060C18303030309F
:100AA3000000000000007CC6C6C67CC6C6C6C67C65
:100AB3000000000000007CC6C6C67E0606060C7851
:100AC30000000000000000001818000000181800C3
:100AD3000000000000000000181800000018183083
:100AE30000000000000000060C18306030180C06EF
:100AF3000000000000000000007E00007E000000F7
:100B0300000000000000006030180C060C18306074
:100B13000000000000007CC6C60C18181800181846
:100B2300000000000000007CC6C6DEDEDEDCC07C08
:100B330000000000000010386CC6C6FEC6C6C6C65C
:100B4300000000000000FC6666667C66666666FC64
:100B53000000000000003C66C2C0C0C0C0C2663CCA
:100B6300000000000000F86C6666666666666CF856
:100B7300000000000000FE6662687868606266FE3E
:100B8300000000000000FE6662687868606060F044
:100B93000000000000003C66C2C0C0DEC6C6663A64
:100BA300000000000000C6C6C6C6FEC6C6C6C6C64E
:100BB3000000000000003C18181818181818183CFA
:100BC3000000000000001E0C0C0C0C0CCCCCCC78EC
:100BD300000000000000E666666C78786C6666E6E6
:100BE300000000000000F06060606060606266FE0C
:100BF300000000000000C6EEFEFED6C6C6C6C6C68E
:100C0300000000000000C6E6F6FEDECEC6C6C6C67D
:100C13000000000000007CC6C6C6C6C6C6C6C67CA9
:100C2300000000000000FC6666667C60606060F0A7
:100C33000000000000007CC6C6C6C6C6C6D6DE7C61
:100C43000C0E00000000FC6666667C6C666666E659
:100C53000000000000007CC6C660380C06C6C67CD7
:100C63000000000000007E7E5A1818181818183C5F
:100C7300000000000000C6C6C6C6C6C6C6C6C67CFF
:100C8300000000000000C6C6C6C6C6C6C66C381043
:100C9300000000000000C6C6C6C6D6D6D6FEEE6C5F
:100CA300000000000000C6C66C7C38387C6CC6C6E9
:100CB300000000000000666666663C181818183CC1
:100CC300000000000000FEC6860C183060C2C6FE9D
:100CD3000000000000003C30303030303030303C19
:100CE3000000000000000080C0E070381C0E060207
:100CF3000000000000003C0C0C0C0C0C0C0C0C3C19
:100D03000000000010386CC6000000000000000066
:100D130000000000000000000000000000000000D0
:100D230000FF000030301800000000000000000049
:100D3300000000000000000000780C7CCCCCCC76D6
:100D4300000000000000E06060786C666666667C08
:100D53000000000000000000007CC6C0C0C0C67CCC
:100D63000000000000001C0C0C3C6CCCCCCCCC76FE
:100D73000000000000000000007CC6FEC0C0C67C6E
:100D8300000000000000386C6460F060606060F098
:100D930000000000000000000076CCCCCCCCCC7C62
:100DA3000CCC78000000E060606C7666666666E6F0
:100DB3000000000000001818003818181818183C14
:100DC3000000000000000606000E060606060606E2
:100DD30066663C000000E06060666C78786C66E6EE
:100DE3000000000000003818181818181818183CCC
:100DF300000000000000000000ECFED6D6D6D6C6E8
:100E0300000000000000000000DC6666666666669F
:100E13000000000000000000007CC6C6C6C6C67CF9
:100E2300000000000000000000DC66666666667C69
:100E33006060F000000000000076CCCCCCCCCC7C11
:100E43000C0C1E000000000000DC7666606060F0A1
:100E53000000000000000000007CC660380CC67C67
:100E6300000000000000103030FC30303030361C01
:100E7300000000000000000000CCCCCCCCCCCC7631
:100E830000000000000000000066666666663C180D
:100E9300000000000000000000C6C6D6D6D6FE6CD7
:100EA300000000000000000000C66C3838386CC633
:100EB300000000000000000000C6C6C6C6C6C67E0D
:100EC300060CF8000000000000FECC183060C6FEDF
:100ED3000000000000000E18181870181818180EDB
:100EE3000000000000001818181800181818181827
:100EF300000000000000701818180E181818187059
:100F030000000000000076DC00000000000000008C
:100F1300000000000000000010386CC6C6C6FE00CA
:100F23000000000000003C66C2C0C0C0C2663C0CAA
:100F3300067C00000000CC0000CCCCCCCCCCCC7622
:100F430000000000000C1830007CC6FEC0C0C67C48
:100F5300000000000010386C00780C7CCCCCCC7600
:100F6300000000000000CC0000780C7CCCCCCC76D8
:100F7300000000000060301800780C7CCCCCCC76EC
:100F83000000000000386C3800780C7CCCCCCC76A8
:100F930000000000000000003C666060663C0C0638
:100FA3003C0000000010386C007CC6FEC0C0C67C4C
:100FB300000000000000C600007CC6FEC0C0C67C66
:100FC3000000000000603018007CC6FEC0C0C67C74
:100FD3000000000000006600003818181818183CBC
:100FE3000000000000183C66003818181818183C58
:100FF3000000000000603018003818181818183C5A
:101003000000000000C60010386CC6C6FEC6C6C687
:1010130000000000386C3800386CC6C6FEC6C6C671
:101023000000000018306000FE66607C606066FEB1
:10103300000000000000000000CC76367ED8D86E99
:101043000000000000003E6CCCCCFECCCCCCCCCE5F
:10105300000000000010386C007CC6C6C6C6C67C03
:10106300000000000000C600007CC6C6C6C6C67CE1
:101073000000000000603018007CC6C6C6C6C67CEF
:1010830000000000003078CC00CCCCCCCCCCCC76AB
:10109300000000000060301800CCCCCCCCCCCC7667
:1010A300000000000000C60000C6C6C6C6C6C67E55
:1010B300060C780000C6007CC6C6C6C6C6C6C67C7B
:1010C3000000000000C600C6C6C6C6C6C6C6C67CAB
:1010D300000000000018183C66606060663C181849
:1010E3000000000000386C6460F060606060E6FC43
:1010F30000000000000066663C187E187E18181871
:101103000000000000F8CCCCF8C4CCDECCCCCCC6BC
:1011130000000000000E1B1818187E181818181865
:10112300D87000000018306000780C7CCCCCCC76F2
:1011330000000000000C1830003818181818183C6C
:101143000000000000183060007CC6C6C6C6C67C1E
:10115300000000000018306000CCCCCCCCCCCC76A6
:1011630000000000000076DC00DC666666666666EA
:101173000000000076DC00C6E6F6FEDECEC6C6C67C
:1011830000000000003C6C6C3E007E00000000008C
:101193000000000000386C6C38007C000000000088
:1011A300000000000000303000303060C0C6C67C54
:1011B30000000000000000000000FEC0C0C0C0002E
:1011C30000000000000000000000FE060606060006
:1011D3000000000000C0C0C2C6CC183060DC860C22
:1011E300183E000000C0C0C2C6CC183066CE9E3E7A
:1011F3000606000000001818001818183C3C3C189C
:10120300000000000000000000366CD86C360000BF
:10121300000000000000000000D86C366CD800000D
:1012230000000000114411441144114411441144BD
:101233001144114455AA55AA55AA55AA55AA55AA07
:1012430055AA55AADD77DD77DD77DD77DD77DD77A5
:10125300DD77DD77181818181818181818181818C3
:101263001818181818181818181818F8181818181B
:10127300181818181818181818F818F8181818182B
:101283001818181836363636363636F636363636B3
:101293003636363600000000000000FE363636369D
:1012A300363636360000000000F818F818181818FB
:1012B300181818183636363636F606F636363636F3
:1012C30036363636363636363636363636363636BB
:1012D300363636360000000000FE06F63636363661
:1012E300363636363636363636F606FE000000001B
:1012F3000000000036363636363636FE0000000073
:10130300000000001818181818F818F8000000005A
:101313000000000000000000000000F81818181872
:1013230018181818181818181818181F0000000093
:101333000000000018181818181818FF0000000003
:101343000000000000000000000000FF181818183B
:1013530018181818181818181818181F1818181803
:101363001818181800000000000000FF000000001B
:101373000000000018181818181818FF1818181863
:101383001818181818181818181F181F18181818CC
:101393001818181836363636363636373636363661
:1013A30036363636363636363637303F00000000AE
:1013B3000000000000000000003F303736363636AC
:1013C300363636363636363636F700FF000000003E
:1013D300000000000000000000FF00F7363636363C
:1013E300363636363636363636373037363636369E
:1013F300363636360000000000FF00FF0000000014
:10140300000000003636363636F700F73636363605
:10141300363636361818181818FF00FF000000007B
:101423000000000036363636363636FF0000000040
:10143300000000000000000000FF00FF181818184B
:101443001818181800000000000000FF3636363662
:1014530036363636363636363636363F00000000F8
:101463000000000018181818181F181F00000000AB
:101473000000000000000000001F181F18181818B3
:1014830018181818000000000000003F36363636E2
:101493003636363636363636363636FF3636363620
:1014A300363636361818181818FF18FF1818181873
:1014B3001818181818181818181818F80000000029
:1014C30000000000000000000000001F181818189A
:1014D30018181818FFFFFFFFFFFFFFFFFFFFFFFFB5
:1014E300FFFFFFFF00000000000000FFFFFFFFFF02
:1014F300FFFFFFFFF0F0F0F0F0F0F0F0F0F0F0F0AD
:10150300F0F0F0F00F0F0F0F0F0F0F0F0F0F0F0F64
:101513000F0F0F0FFFFFFFFFFFFFFF000000000093
:1015230000000000000000000076DCD8D8D8DC768C
:1015330000000000000078CCCCCCD8CCC6C6C6CC0A
:10154300000000000000FEC6C6C0C0C0C0C0C0C0CE
:101553000000000000000000FE6C6C6C6C6C6C6C96
:1015630000000000000000FEC66030183060C6FEB8
:101573000000000000000000007ED8D8D8D8D87042
:10158300000000000000000066666666667C60601E
:10159300C00000000000000076DC181818181818A6
:1015A300000000000000007E183C6666663C187E62
:1015B30000000000000000386CC6C6FEC6C66C38CA
:1015C300000000000000386CC6C6C66C6C6C6CEE84
:1015D3000000000000001E30180C3E666666663C84
:1015E3000000000000000000007EDBDBDB7E00006B
:1015F3000000000000000003067EDBDBF37E60C01A
:101603000000000000001C3060607C606060301CE3
:10161300000000000000007CC6C6C6C6C6C6C6C61B
:101623000000000000000000FE0000FE0000FE00BD
:10163300000000000000000018187E18180000FFCA
:101643000000000000000030180C060C1830007E6B
:10165300000000000000000C18306030180C007E01
:101663000000000000000E1B1B181818181818188B
:10167300181818181818181818181818D8D8D8704F
:1016830000000000000000001818007E0018180079
:1016930000000000000000000076DC0076DC0000A3
:1016A3000000000000386C6C3800000000000000EF
:1016B30000000000000000000000001818000000F7
:1016C30000000000000000000000000018000000FF
:1016D30000000000000F0C0C0C0C0CEC6C6C3C1CA0
:1016E3000000000000D86C6C6C6C6C000000000003
:1016F300000000000070D83060C8F800000000004F
:1017030000000000000000007C7C7C7C7C7C7C0072
:1017130000000000000000000000000000000000C6
:1017230000000000000000000000007E0001FF80B8
:1017330003FFC007FFE007C3E00F81F00F81F00F45
:1017430000F01F00F81F00F81F00F81F00F81F002B
:10175300F81F00F81F00F81F00F81F00F81F00F81B
:101763001F00F80F00F00F81F00F81F007C3E007AF
:10177300FFE003FFC001FF80007E000000000000C7
:10178300000000000000000000000003C00007C0CC
:10179300000FC0001FC0003FC0007FC001FFC00397
:1017A300FFC003F7C003C7C00307C00007C000079B
:1017B300C00007C00007C00007C00007C00007C083
:1017C3000007C00007C00007C00007C00007C00033
:1017D30007C00007C00007C00007C00000000000EA
:1017E30000000000000000000000007F0001FFC0B7
:1017F30003FFE007FFF007E1F00FE0F80F80F80FB9
:1018030080F80000F80000F80001F80003F000077A
:10181300F0000FE0001FC0003F80007F0000FE00CB
:1018230001FC0001F00003E00007E0000FFFF80FE8
:10183300FFF80FFFF81FFFF81FFFF800000000007C
:1018430000000000000000000000007E0001FF8097
:1018530003FFC007FFE007E3F00F80F00701F0008C
:1018630001F00003F00007E0001FC0003F80003FCD
:10187300C0003FE00003F00001F00000F80000F8B2
:101883000000F80F00F81F00F81F81F00FC3F007E6
:10189300FFE007FFC001FF80007E000000000000A2
:1018A300000000000000000000000003E00003E06F
:1018B3000007E0000FE0000FE0001FE0003FE00042
:1018C3003FE0007FE0007BE000F3E001F3E001E3B1
:1018D300E003E3E007C3E00783E00F83E01F03E0D7
:1018E3001FFFFC1FFFFC1FFFFC1FFFFC0003E000AA
:1018F30003E00003E00003E00003E0000000000059
:101903000000000000000000000001FFF001FFF0F4
:1019130003FFF003FFF003FFF003E00003E0000721
:10192300E00007C00007DF0007FFC007FFE00FFF6D
:10193300F00FC3F00781F80000F80000F80000F88A
:101943000000F80F00F81F00F81F81F00FC3F00F1D
:10195300FFE007FFC001FF8000FE00000000000061
:1019630000000000000000000000003F0000FF80B6
:1019730003FFC007FFE007C3E00F81F00F01F00F83
:1019830000001F00001F3F001FFF801FFFE01FFF1D
:10199300E01FC3F01F01F01F00F81F00F81F00F83D
:1019A3001F00F80F00F80F80F80F81F007C3F0074E
:1019B300FFE003FFE001FF80007E00000000000065
:1019C300000000000000000000001FFFF81FFFF8E8
:1019D3001FFFF81FFFF81FFFF80001F00003E000EE
:1019E30007C00007C0000F80000F00001F00001E8B
:1019F30000003E00003E00007C00007C00007C00F4
:101A030000F80000F80000F80000F80001F0000101
:101A1300F00001F00001F00001F000000000000000
:101A230000000000000000000000007E0001FF80B5
:101A330007FFC007FFE00FC3F00F81F00F81F00F26
:101A430081F00F81F007C3E007FFC001FF8003FFB0
:101A5300C007FFE00FC3F00F81F01F00F81F00F86D
:101A63001F00F81F00F81F00F81F81F80FC3F00FC5
:101A7300FFF007FFE001FF80007E00000000000090
:101A830000000000000000000000007E0001FF8055
:101A930007FFC007FFE00FC3E00F81F01F01F01F36
:101AA30000F01F00F81F00F81F00F81F00F80F8157
:101AB300F80FC3F807FFF807FFF801FFF8007CF8F9
:101AC3000000F80000F00F80F00F81F007C3E0077B
:101AD300FFE003FFC001FF0000FC00000000000066
:101AE30000000000000000000000000000000000F3
:101AF30000000000000000000000000000000000E3
:101B030000000000000000000000000000000000D2
:101B130000000000000000000000000000000000C2
:101B230000000000000000000000000000000000B2
:101B330000000000000000000000000000000000A2
:101B43000000000000000000000000000000000092
:101B53000000000000000000000000000000000082
:101B630000000000000000000000003FFFFC3FFFFA
:101B7300FC3FFFFC0000000000000000000000002C
:101B83000000000000000000000000000000000052
:101B93000000000000000000000000000000000042
:101BA3000000000000000000000000000808080812
:101BB30000080000141414000000000014143E1464
:101BC3003E141400081E281C0A3C080006261008B0
:101BD30004323000182428102A241A001808100090
:101BE300000000000408101010080400100804048A
:101BF3000408100000082A1C2A0800000008083EF8
:101C03000808000000000000000C04080000003E6B
:101C13000000000000000000001818000002040883
:101C2300102000001C22262A32221C000818080853
:101C330008081C001C22020408103E003E0408048D
:101C430002221C00040C14243E0404003E203C0227
:101C530002221C000C10203C22221C003E0204081D
:101C6300101010001C22221C22221C001C22221EE7
:101C730002041800001818001818000000181800B3
:101C830018081000040810201008040000003E008B
:101C93003E00000010080402040810001C22020485
:101CA300080008001C22021A2E221C0008142222FB
:101CB3003E2222003C22223C22223C001C222020E5
:101CC30020221C0038242222222438003E20203CDB
:101CD30020203E003E20203C202020001C22202EDD
:101CE30022221E002222223E222222001C08080851
:101CF30008081C000E0404040424180022242830BD
:101D0300282422002020202020203E0022362A2AB8
:101D1300222222002222322A262222001C222222CE
:101D230022221C003C22223C202020001C222222B2
:101D33002A241A003C22223C282422001E20201C94
:101D430002023C003E08080808080800222222225A
:101D530022221C0022222222221408002222222ACA
:101D63002A2A1400222214081422220022222214D6
:101D7300080808003E02040810203E001C10101042
:101D830010101C002A142A142A142A0008142200F2
:101D9300000000000000000000003E0010080400E6
:101DA3000000000000001C021E221E0020202C3216
:101DB30022223C0000001C2020221C0002021A26C2
:101DC30022221E0000001C223E201C000C12103890
:101DD3001010100000001E22221E021C20202C3294
:101DE300222222000800180808081C0004000C0422
:101DF3000404241820202428302824001808080864
:101E030008081C000000342A2A22220000002C3279
:101E13002222220000001C2222221C0000003C225D
:101E2300223C202000001A26261A020200002C322F
:101E33002020200000001C201C023C001010381041
:101E430010120C000000222222261A000000222277
:101E530022140800000022222A2A1400000022145F
:101E63000814220000002222221E021C00003E044D
:0C1E730008103E0000007E007E00000011
:102592003031323334353637383941424345444697
:1025A20000000038444C546444380000000008180D
:1025B200080808081C000000003844040810207CA9
:1025C20000000000384404180444380000000008E9
:1025D2001828487C081C000000007C407804044451
:1025E20038000000003840784444443800000000BD
:1025F2007C040408101010000000003844443844E1
:10260200443800000000384444443C0438000000D0
:10261200007C7C7C7C7C7C7C000000000000000054
:052622000000000000B3
:062E5300AE07C2B4E4FF6B
:102E5900C2B47590FFD2B7D2B5C2B6EF6005209360
:0C2E69000880FB3090FD3091FAD2B622B8
:102FDE00C2B4D2B7D2B6D2B57590FFC2B6AF90D248
:012FEE00B62C
:012FEF0022BF
:0B308500122FDEEF5403FFBF03F62202
:0A30A6008D34123052AF3402304472
:103002008D268B27123052AF26123052AF27023054
:013012004479
:042FB8008D38AA06A0
:0F2FBC008A39123052AF39123052AF38023044D6
:102F7C00AE07C2B47F01122E59C2B7D2B68E90C220
:042F8C00B5D2B522E3
:102FCB00C2B4123085C2B77590FFC2B6AF90D2B6FD
:022FDB00D2B76B
:012FDD0022D1
:0E304400122E53D2B7D2B68E90C2B5D2B5229C
:0E305200122E53C2B7D2B68E90C2B5D2B5229E
:102B6F00D2B5D2B67D40E4FFFE122FB87D427FF082
:102B7F007E00122FB87B41E4FD7F101230027B43A1
:102B8F00E4FD7F101230027F811230447B22E4FD7E
:0D2B9F007F021230027F9C123044022C1A7B
:102C1A007D24E4FFFE122FB87FB0123044E4FDFC9D
:102C2A00E4FF1230520DBD00010CE4B505F2ECB41C
:0F2C3A0009EE7FB21230447B24E4FDFF0230022A
:0226BB00AC076A
:1026BD00EC131313541F75F008A4FCEB13131354F0
:1026CD001F75F008A4FBC3E53D9DF540C3EB9C13BE
:1026DD001313541FF541ED75F010A424F0FFE435EC
:1026ED00F0FEEC131313541F7C002FF53FEC3EF559
:1026FD003EE4F542E542C3954050327D24AF3FAEF6
:10270D003E122FB87FB0123044E4FDEDC395415019
:10271D0008E4FF122F7C0D80F27FB212304474104A
:0D272D00253FF53FE4353EF53E054280C7EF
:01273A00227C
:022BE800AC0738
:102BEA00ED75F010A424F0FFE435F0FEEC13131396
:102BFA00541F7A002FFFEA3EFEEC5407FDC3740708
:102C0A009DF5617D24122FB8E56144F8FF02304436
:04273B008B2FAC072D
:10273F00ED75F010A424F0FFE435F0FEEC13131345
:10274F00541F7C002FF535EC3EF534E4F537E537B3
:10275F00C39530504C7D24AF35AE34122FB87FB0B7
:10276F00123044E4F536E536C3952F5020E5378512
:10277F002FF0A42536F582E435F0F583AB31AA327C
:10278F00A933121FB6FF122F7C053680D97FB212E4
:10279F00304474102535F535E43534F5340537807C
:0127AF00AD7C
:0127B0002206
:0427B1008B2DAC07B9
:1027B500EC131313541F75F008A4FCED75F010A469
:1027C50024F0FFE435F0FEEC131313541F7C002FA7
:1027D500F530EC3EF52FE4F532E532C3952E504148
:1027E500E4F531E531C3952D50287E00E5302531DE
:1027F500FFEE352FFE7D24122FB87FC5123044120F
:102805002FCB8F336333FF7DC4AF331230A6053131
:1028150080D174102530F530E4352FF52F05328041
:01282500B8FA
:01282600228F
:102E2D00EF75F010A424F0FFE435F0FE7D24122F91
:102E3D00B87FB0123044E4FD7FFF122F7C0DBD1022
:062E4D00F77FB2023044E1
:042D89008F558B5681
:102D8D00AF057557008F58C3E55895567480F86593
:102D9D0057985011AD58AF55122BE80558E558709E
:052DAD00E6055780E27D
:012DB20022FE
:042E05008D598B5AFE
:102E0900755B008F5CC3E55C95597480F8655B98C8
:102E19005011AF5CAD5A122BE8055CE55C70E60514
:032E29005B80E2E9
:012E2C002283
:10295E00E4FBFA90000375F01AEB122018EA75F0FA
:10296E001AA42583F583E4936037B5072D900004F0
:10297E0075F01AEB122018EA75F01AA42583F58368
:10298E00E493B5051590000375F01AEB122018EAC2
:10299E0075F01AA42583AF82FE220BBB00010A80BC
:0429AE00B2E4FEFF92
:0129B2002202
:1029B300E4FBFA90001D75F022EB122018EA75F083
:1029C30022A42583F583E4936037B5072D90001E79
:1029D30075F022EB122018EA75F022A42583F58303
:1029E300E493B5051590001D75F022EB122018EA4B
:1029F30075F022A42583AF82FE220BBB00010A805F
:042A0300B2E4FEFF3C
:012A070022AC
:0A23B2008F268D278B288A29892A9F
:1023BC00E526131313541F75F008A4F526AB28AAB1
:1023CC0029A92A121F9D7003022456052AE52A709A
:1023DC0002052914F9121F9DF52BB420028062E529
:1023EC002BD39480403BAB28052AE52AAA297002FE
:1023FC00052914F9121F9DF52CFDAF2B12295EEF48
:10240C002402FFE43EA9077531FFF5328933E52735
:10241C002402FD75300C7B02AF2612273B74108012
:10242C0022E52B75F010A42427F9740735F07531CB
:10243C00FFF53289337530107B01AD27AF2612279B
:0A244C003B74082526F5260223C97B
:012456002263
:0A2457008F268D278B288A29892AF9
:10246100E526131313541F75F008A4F526AB28AA0B
:1024710029A92A121F9D70030224FB052AE52A704F
:1024810002052914F9121F9DF52BB420028062E583
:102491002BD394804038AB28052AE52AAA2970025B
:1024A100052914F9121F9DF52CFDAF2B1229B3EF4D
:1024B1002402FFE43EA9077531FFF53289337530F7
:1024C100107B02AD27AF2612273B74108025E52B28
:1024D10075F010A42427F9740735F07531FFF53232
:1024E1008933E5272402FD7530107B01AF261227C1
:0A24F1003B74082526F52602246E30
:0124FB0022BE
:102A08008F4B8D4C8B4D8A4E894FE54B13131354C6
:102A18001F75F008A4F54BAB4DAA4EA94F121F9D88
:102A2800603175F008A424A7F9741A35F07531FFE0
:102A3800F53289337530087B01AD4CAF4B12273B1B
:102A48007408254BF54B7401254FF54FE4354EF5C9
:042A58004E80C422C6
:1024FC008F508D518B528A538954E55013131354BA
:10250C001F75F008A4F550AB52AA53A954121F9D85
:10251C00FF6072C394304029EFD394395023EF7588
:10252C00F060A42427F9740535F07531FFF5328974
:10253C00337530207B03AD51AF5012273B7418809C
:10254C0033AB52AA53A954121F9DFFB42002802210
:10255C00EF75F010A42427F9740735F07531FFF5E9
:10256C00328933E5512410FD7530107B01AF5012C8
:10257C00273B74082550F55074012554F554E43567
:06258C0053F5538082228A
:102FF000E4F54AF549F546F547F548F543F544F556
:02300000452267
:102F1500E580F4541F7002FF227FFA7E0012309084
:0A2F2500E580F4541FFF7002FF2244
:012F2F00227F
:102AAC00122F158F4AE54A601E65496038854A49E0
:102ABC00AB43AA44A945AE02AF01EF4E6027898211
:102ACC008A83AF4A022058E5496017AB46AA47A94A
:102ADC0048AE02AF01EF4E600989828A83AF49127A
:062AEC002058E4F5492228
:102304003E3E003C3C003C2D00BBB6D3ADCAB9D325
:10231400C3A3A10001CAD6B6AFB2E2CAD40000007A
:102324000000000000200200000002D7D4B6AFBCB9
:10233400ECB2E200000000000000002016000000E3
:1023440003B2CECAFDC9E8B6A80000000000000030
:1023540000202A00000004CAFDD6B5B2E9D1AF00BE
:1023640000000000000000200200000005B5F7D5C1
:10237400FBCAB1BCE400000000000000002016000D
:10238400000006D2C7C6F7B1EAB6A80000000000F4
:10239400000000202A0000000000000000000000EF
:0E23A40000000000000000000000000000002B
:102F3000E4F50BF50AF509F50FF5107508FFF51125
:0B2F4000F512F513F50CF50DF50E224F
:062904008B268A278928BA
:10290A00E92401F9E43AFA122ED8AB26AA27A92813
:10291A00900011121FB6FEC394085005E4F52980F1
:10292A0005EE24F8F529EF2402FDE433FCD3ED94F7
:10293A0010EC648094804005752A108005EF24020B
:10294A00F52A900012121FB614FD752E12AB2AAF8B
:04295A00290227B176
:102A5C00E4F50BF50AF509F50FF510E513451260D1
:102A6C003EAB11AA12A913AF0B050B75F016EFA410
:102A7C00F58285F083121FB670E7E50BD394004006
:102A8C0002150BE50B75F00384F50975F003A4C36F
:102A9C00950B7480F865F0985002050912224222B9
:10224200E51345127003022303122C1AE4F510E57C
:102252000F75F003A4F524E4F525AB11AA12A91316
:1022620075F016E524A4F58285F083121FB660335B
:10227200E525C39403502CE52475F016A429F9EA48
:1022820035F0FA900011121FB6FF900012121FB61D
:10229200FDE92401F9E43AFA122457051005240550
:1022A2002580B7E50914FFE50FC39F500D7BFF7A28
:1022B2002379047D347F701223B2E50FD39400405A
:1022C200087BFF7A237907801B74FF90231865111E
:1022D200700AE51365827004E5126583600D7BFF69
:1022E2007A23790A7D34E4FF1223B2E4F50AE50F7A
:1022F20075F042A4AB112513F9E51235F0FA122953
:0123020004D6
:0123030022B7
:102BAC00EF600EE50914FFE50FC39F502E050F8053
:102BBC0009E50FD394004005150F022242AB11AA70
:102BCC0012A91374FF9023186511700AE51365821E
:0C2BDC007004E512658360031230B02223
:02289B008F1E8E
:10289D00AB11AA12A913AE02AF01EF4E6058E50FAE
:1028AD0075F003A4F51F250AFFE433FE7C007D16A9
:1028BD00121FF5E92FF9EA3EFA122904E51E60050B
:1028CD00E50A04800EE50A7007E51014F50A800A82
:1028DD00E50A148510F08485F00AE51F250AFFE44A
:1028ED0033FE7C007D16121FF5AB11E5132FF9E5B4
:0628FD00123EFA1229044C
:0129030022B1
:10301300E5134512600AE50F75F003A4250AF508C8
:01302300228A
:102E75008B218A22892385110C85120D85130E8BD2
:102E8500118A128913122A5C7546FF75472D7548FC
:022E95005E22BB
:102DB300AB0CAA0DA90EAE02AF01EF4E601B8B1137
:102DC3008A128913750C00750D00750E00122A5CAA
:0A2DD3007546FF75472D75485E2216
:0930B0007BFF7A237918022E75CA
:102D5E00EF24FE602224FE601924FC600C24F8602F
:102D6E000D240F7015E4FF80027F0102289BE4FF03
:0B2D7E0080027F01022BAC12301322F8
:10282700E508F4606BAB11AA12A913AE02AF01EF72
:102837004E605DAF08EF3395E0FE7C007D16121FFA
:10284700F5AC06AD07E92DF9EA3CFA900013122022
:1028570024E94A602EAB11AA12A913AF08EF3395EA
:10286700E08F82F5837416122007121FB6FFE92D39
:10287700F9EA3CFA90001312202489828A831220F5
:1028870058800D7BFF7A23790D7D187F1812245706
:042897007508FF229F
:0B309000EF1FAC0670011E4C70F62212
:102EB800E4FDFCC3ED9FEC9E5015E4FBFA0BBB0050
:0F2EC800010ABA03F8BBE8F50DBD00010C80E468
:012ED70022D8
:062ED8008B2B8A2C892DD2
:102EDE00E4FFAB2B052DE52DAA2C7002052C14F961
:082EEE00121F9D60030F80EA32
:012EF60022B9
:10262700B5E7D1B9312036302E30303020566463CB
:1026370000B5E7C1F731202032302E303020416419
:102647006300B9A6C2CA3120303030303230202082
:10265700205700BDBBC1F7BCE0CAD30001D6B1C14A
:10266700F7BCE0CAD300000000000000002002FF12
:102677002EF702BDBBC1F7BCE0CAD30000000000C3
:102687000000002016FF2EF703B7B520202020BB3F
:10269700D80000000000000000202AFF30D2000010
:1026A7000000000000000000000000000000000023
:0426B700000000001F
:0930B9007BFF7A267963022E7573
:0330D2000230B019
:102B3100E4F562122081122C1A7BFF7A2679277D17
:102B4100027F011224577BFF7A2679387D167F0197
:102B51001224577BFF7A2679497D2A7F0112245757
:0D2B6100E56264106007122F158F6280F38B
:012B6E002244
:102F6500122C1A7BFF7A26795A7D167F2012245758
:072F7500122F15BF10FA2214
:102EF700754600754700754800EF24FE60080470AA
:0E2F070008122B318003122F657FFF0230B9B4
:101E7F00BAE3B6A8B5E7D1B9BCECB2E24356003627
:101E8F00302E30303000BAE3B6A8B5E7C1F7BCEC5E
:101E9F00B2E2434300302E30303100BAE3B6A8B976
:101EAF00A6C2CABCECB2E2435000302E3030300034
:101EBF00CFDFD0D4B5E7D7E8BCECB2E2435200BCD9
:101ECF00D3C7BFB5E7D1B9BCECB2E243563200D7A6
:101EDF00D4B6AFD1ADBBB7BCECB2E241540001BA3E
:101EEF00E3B6A8B5E7D1B9BCECB2E243560000089F
:101EFF0001FF2AF202BAE3B6A8B5E7C1F7BCECB20C
:101F0F00E2434300000812FF2AF203BAE3B6A8B96E
:101F1F00A6C2CABCECB2E2435000000823FF2AF26B
:101F2F0004CFDFD0D4B5E7D7E8BCECB2E243520020
:101F3F00000801FF2AF205BCD3C7BFB5E7D1B9BC72
:101F4F00ECB2E2435632000812FF2AF206D7D4B69B
:101F5F00AFD1ADBBB7BCECB2E2415400000823FFD8
:101F6F002AF207B7B52020BBD80000000000000000
:101F7F000000002816FF30D5000000000000000010
:0E1F8F00000000000000000000000000000044
:0930C2007BFF7A1E79ED022E75E8
:0330D5000230B016
:102C7800E4F563122C1A7BFF7A1E797F7D027F01AF
:102C88001224577BFF7A1E798E7D18E4FF1224FCEC
:0D2C9800E56364106007122F158F6380F351
:012CA500220C
:102CA600E4F564122C1A7BFF7A1E79957D027F016A
:102CB6001224577BFF7A1E79A47D18E4FF1224FCA8
:0D2CC600E56464106007122F158F6480F321
:012CD30022DE
:102CD400E4F565122C1A7BFF7A1E79AA7D027F0126
:102CE4001224577BFF7A1E79B97D18E4FF1224FC65
:0D2CF400E56564106007122F158F6580F3F1
:012D010022AF
:102D0200E4F566122C1A7BFF7A1E79BF7D027F01E1
:102D12001224577BFF7A1E79B97D18E4FF1224FC36
:0D2D2200E56664106007122F158F6680F3C0
:012D2F002281
:102D3000E4F567122C1A7BFF7A1E79CE7D027F01A3
:102D40001224577BFF7A1E79B97D18E4FF1224FC08
:0D2D5000E56764106007122F158F6780F390
:012D5D002253
:102E9700E4F568122C1A7BFF7A1E79DE7D027F012A
:102EA700122457E56864106007122F158F6880F3A6
:012EB70022F8
:102AF200754600754700754800EF24FE60151460A6
:102B02001714601914601B14601D2405701C122C0C
:102B1200788017122CA68012122CD4800D122D024E
:0F2B22008008122D308003122E977FFF0230C2E1
:102F4B0030003100320033003400350036003700DA
:0A2F5B0038003900C3DCC2EB3A0075
:10208100E4F55E122C1A7BFF7A2F794B7D027F08D3
:102091001224577BFF7A2F794D7D027F201224571E
:1020A1007BFF7A2F794F7D027F381224577BFF7A8D
:1020B1002F79517D027F501224577BFF7A2F79535C
:1020C1007D027F681224577BFF7A2F79557D147F1B
:1020D100081224577BFF7A2F79577D147F20122411
:1020E100577BFF7A2F79597D147F381224577BFF54
:1020F1007A2F795B7D147F501224577BFF7A2F79D9
:102101005D7D147F68122457E4FB7D78FF122E0554
:102111007B137D78E4FF122E057B267D78E4FF1288
:102121002E05E4F55DE55D75F018A4FF7B26E4FD61
:10213100122D89055DE55DC3940640E97BFF7A2F89
:10214100795F7D2AE4FF122457752E127B037D01EE
:10215100E4FF1227B1E55E64106007122F158F5E50
:0221610080F309
:012163002259
:082164008B148A1589168D17F2
:10216C00751D0AD200AF1D151DEF7003022223123C
:10217C002F90E51A54FEFF122FA412303550028016
:10218C005FE51BD39404400DE518FF122FA4123009
:10219C00355002804BAF19122FA4123035500280EB
:1021AC003FE51A20E02D85171CC200AF1C151CEF53
:1021BC00601CAB140516E516AA157002051514F96A
:1021CC00121F9DFF122FA412303550DFD2003000A9
:1021DC00468092122F90AF1A122FA4123035500550
:1021EC0012302480801517E517601A122C49AB1495
:1021FC000516E516AA157002051514F9EF121FE362
:10220C0012306080E0122C49AB14AA15A916EF12FB
:10221C001FE312309BC200123024E51A20E0147F19
:10222C00FF1230CB7FFF1230CB7FFF1230CB7FFF02
:05223C001230CBA200EE
:01224100227A
:102F9000C287D286D287000000C28600000000C22D
:042FA00087D286222C
:10302400C287C286D287000000D286000000C28711
:013034002279
:0F303500C287D286D28700000000A286C28722FF
:0E306000C286D28700000000C28700D28622FE
:0B309B00D286D28700000000C287220E
:102FA4007E08C287000000EF25E0FF9286D287DE0C
:032FB400F1C287E0
:012FB70022F7
:102C4900755F00756008C287E5601560AE5F700248
:102C5900155F4E6017D287ED25E0FFEC33FEA286A3
:0E2C6900E433FBEEFCEF4BFDC28780DCAF05D1
:012C7700223A
:0730CB00AE071FEE70FA22B0
:0300000002306E5D
:0C306E00787FE4F6D8FD758169022DDD45
:101F9D00BB010689828A83E0225002E722BBFE0242
:091FAD00E32289828A83E4932275
:101FB600BB010CE58229F582E5833AF583E02250E0
:101FC60006E92582F8E622BBFE06E92582F8E2222A
:0D1FD600E58229F582E5833AF583E4932244
:101FE300BB010689828A83F0225002F722BBFE01DD
:021FF300F322D7
:101FF500EF8DF0A4A8F0CF8CF0A428CE8DF0A42E00
:02200500FE22B9
:10200700F5F0C582A4C582C5F0C583A42583F583F1
:0120170022A6
:0C201800A42582F582E5F03583F58322D3
:10202400BB010DE58229F582E5833AF5830220633D
:102034005007E92582F802205ABBFE07E92582F8F9
:1020440002206CE58229F582E5833AF58302207546
:062054008A838982E47317
:09205A00E6FB08E6FA08E6F922AB
:09206300E0FBA3E0FAA3E0F9227E
:09206C00E2FB08E2FA08E2F922A5
:0C207500E493FB740193FA740293F922C7
:00000001FF
