:0300000002112DBD
:0C112D00787FE4F6D8FD75817D02117416
:1011B900016230016930016A30016B30011C300174
:1011C9001D30011E30011F30011830011930011A7C
:1011D90030011B30022000D1022200AD022400BCE4
:1011E900022600A304400000000A04440000000194
:1011F900046500000000043200000258023A0000B1
:10120900022A000602480000023C0000024C0000CD
:1012190002360001022C000002300000022E0000FC
:10122900025E000002630001023E00040228000180
:0612390004523F796969CF
:0712E3001212EAED54F0FFC6
:1012EA00E4FEC296EF30E704D2978002C297D29604
:0812FA00EF25E0FF0EBE08EA3B
:0113020022C8
:1013AC00AD077FF81212E3ED540FC454F0FF021294
:0113BC00EA46
:05131C001213217F3ACD
:10132100AD077FFA1212E3ED540FC454F0FF02121D
:01133100EAD1
:101303007F301213AC7F0C1213AC7F011213AC7F2E
:09131300021213AC7F800213AC3E
:100F51007F801213AC7FD01213217FA11213217F46
:100F6100B31213217FB51213217FD71213217FB43E
:100F71001213217FCC1213217FAC1213217FA312F4
:100F810013217FBA121321AF21121321AF231213A0
:100F910021AF25121321AF271213217F901213AC19
:100FA1007FCA1213217FB11213217FBC1213217F3B
:100FB100E412131CAF6B121321AF6A121321AF6934
:100FC1001213217F2E121321AF621213217F73128C
:100FD10013217F881213AC7FCB1213217FD91213F7
:100FE100217FB61213217FC812131CAF1F121321C8
:100FF100AF1E121321AF1D1213217F2E121321AF29
:101001001C1213217F631213217F6D1213217F2F75
:101011001213217F731213217F981213AC7FC21216
:1010210013217FB71213217FB31213217FCC121327
:101031001CAF1B121321AF1A1213217F2E12132181
:0F104100AF19121321AF181213217F6D02132163
:04000300120F512265
:10133200755000755101C290D291D293D294754EDC
:0513420000754F0622BA
:10134700755000755101D290D291C293D294754EC7
:0513570000754F0522A6
:10135C00755000755101D290C291D293D294754EB2
:05136C0000754F022294
:10137100755000755101D290D291D293C294754E9D
:0513810000754F012280
:10138600E4F550F551D290C291D293C294F54E75C0
:031396004F0322E0
:10139900E4F550F551C290D291C293D294F54E75AD
:0313A9004F0422CC
:1012400030A01730A00530A102800C30A00C20A1E6
:101250000920A20612135C12135C30A21730A205FB
:1012600030A102800C20A00C20A10930A20612138C
:101270007112137130A10920A00620A20312138657
:1012800020A00620A10330A21230A00620A1032036
:10129000A20930A02730A12430A221E54E700FE52D
:1012A0004F24FE600604700602137102135CE564AD
:0D12B0006403456370030213861213992234
:1010500030A60312139930A11C20A61920A2047FE8
:101060000180027F0020A0047E0180027E00EE5FEE
:10107000600312134730A049E54E7042E54F24FC4F
:10108000603724FE601B047035A2A6E4800BE539AE
:101090004538702D121332A2A633753800F5398009
:1010A000EDA2A6E4800BE53945387015121347A26E
:1010B000A633753800F53980ED12134780031213FB
:1010C0009930A149E54E7042E54F24FC603724FE7B
:1010D000601B047035A2A6E4800BE5394538702DFD
:1010E000121332A2A633753800F53980EDA2A6E4BA
:1010F000800BE53945387015121347A2A6337538B1
:1011000000F53980ED121347800312139920A01CBB
:1011100020A11920A216E54E700FE54F24FA6006B3
:0D11200004700602133202134712139922C5
:10001E0030A50BE5316402453060030201F8E5318D
:10002E006404453070030201F8054DE54D7002057C
:10003E004CE4FAF9F8E5432401F543EA3542F5427A
:10004E00E93541F541E83540F5407528007529013F
:10005E00E53745367008E53164024530706BAE2ADF
:10006E00AF2BEE3395E0FDFCAB47AA46A945A8445D
:10007E001208DC8F438E428D418C40752C00752DFD
:10008E0001E53745366013C3E54B9423E54A64809A
:10009E0094804006753E00753F05E5374536601382
:1000AE00C3E54B942DE54A648094804006753E006E
:1000BE00753F04E53164024530700E30A00B30A15F
:1000CE000830A205F530753103E53745367029C382
:1000DE00E54D94C8E54C64809480401CE4F54CF5E5
:1000EE004D754301F542F541F540754701F546F56D
:1000FE0045F544F53A753B08AE2AAF2BEE3395E045
:10010E00FDFCAB47AA46A945A8441208DCAB43AA9E
:10011E0042A941A840C312093950030201EFE4F588
:10012E003CF53DF548754902F558F559AE58AF59AD
:10013E00EE3395E0FDFCAB35AA34A933A832C312D9
:10014E00093950030201EF121240AE3AAF3B7C0068
:10015E007D021208A6ED4C6015D3E53B940AE53AF4
:10016E00648094805008053BE53B7002053AE475C7
:10017E004301F542F541F540E53745367008E52D6A
:10018E006402452C7019E475471EF546F545F54495
:10019E00E52D6402452C703EF52C752D048037E458
:1001AE007F64FEFDFCAB68AA67A966A865D3120939
:1001BE00394013E47F02FEFDFCAB47AA46A945A8D1
:1001CE00441209395006E47547018004E475470668
:1001DE00F546F545F5440559E559700205580201F5
:1001EE003AE4F528F529D292D295E53145306003EF
:1001FE0002033730A40C20A30302033720A5030209
:10020E000337752800752901E4FAF9F8E568240129
:10021E00F568EA3567F567E93566F566E83565F53B
:10022E0065E4F54CF54DE537453670197F64FEFDF6
:10023E00FCAB68AA67A966A865C3120939400675A2
:10024E003A00753B08E5374536600302032A7F0501
:10025E00FEFDFCAB68AA67A966A865C312093950F2
:10026E000302032AE47F2C7E01FDFCA865120939E6
:10027E00400BE475682C756701F566F565053DE57F
:10028E003D7002053CC3940FE53C6480948040139E
:10029E00E475430AF542F541F54075470AF546F512
:1002AE0045F544C3E53D9418E53C64809480402FA9
:1002BE00D3E53F9404E53E648094804022E56824B3
:1002CE000AF568E43567F567E43566F566E4356585
:1002DE00F565E4F53CF53DE53F153F7002153EC36F
:1002EE00E53D94F4E53C64809481400E75300075D4
:1002FE003101C2B4753E00753F04C3E53D9419E566
:10030E003C648094804015D3E52B9419E52A6480D3
:10031E0094805008052BE52B7002052AE4F528F58C
:10032E0029F548F549D292D29530A30BE5316404F4
:10033E004530600302057BE53164024530700302EF
:10034E00057BE53745366008054DE54D7002054CD9
:10035E00E53164044530701DAE2AAF2BEE3395E0C7
:10036E00FDFCAB43AA42A941A8401208DC8F478E80
:10037E00468D458C44C3E54D9414E54C64809480C1
:10038E004017E53745366011E4F536F537F54CF58F
:10039E004D053FE53F7002053EE4FAF9F8E54724C6
:1003AE0001F547EA3546F546E93545F545E8354464
:1003BE00F544752800752901C3E54D94C8E54C64D4
:1003CE008094804017E4F54CF54D754301F542F5E8
:1003DE0041F540754701F546F545F544C3E54D94A5
:1003EE004DE54C64809481401DE47F04FEFDFCAB22
:1003FE0068AA67A966A865D31209395009E4F56899
:10040E00F567F566F565AE2AAF2BEE3395E0FDFC8C
:10041E00AB43AA42A941A8401208DCAB47AA46A9A1
:10042E0045A844C31209395003020572E47F0AFE3F
:10043E00FDFCAB68AA67A966A865120939500302CC
:10044E000572E53745366003020572F53CF53DF55C
:10045E0048754901F558F559E52D2401FFE4352C71
:10046E00FE3395E0FDFCAB35AA34A933A832120851
:10047E00DCA804A905AA06AB07AE58AF59EE339512
:10048E00E0FDFCC3120939405C121050C3E53B94E9
:10049E0003E53A648094804041E47FC8FEFDFCABE6
:1004AE0035AA34A933A832120939600AE47535C861
:1004BE00F534F533F532AE3AAF3B7C007D021208CF
:1004CE00A6ED4C7015D3E53B940AE53A6480948012
:1004DE005008053BE53B7002053A0559E559700297
:1004EE000558020466E4754701F546F545F5447F67
:1004FE0064FEFDFCAB68AA67A966A865D31209392C
:10050E004013E47F02FEFDFCAB43AA42A941A84082
:10051E001209395006E47543018004E4754306F56B
:10052E0042F541F540C3E52D9401E52C648094809D
:10053E004032E4F52CF52D7402252BF52BE4352AEB
:10054E00F52AE4754764F546F545F544754364F5BB
:10055E0042F541F540F53E753F0675352C75340173
:0E056E00F533F532E4F528F529D292D2952224
:1012BD00E4FDFCC3ED9FEE6480F8EC64809850155E
:1012CD00E4FBFA0BBB00010ABA03F8BBE8F50DBD50
:0512DD0000010C80DEA1
:0112E20022E9
:100D3F00E4F57CF57DE57D457C701420B203020E51
:100D4F002C121371A2A7E433757C00F57D80E61297
:100D5F000003E4F57AF57B20B203020E2C12137117
:100D6F00057BE57B7002057AC39440E57A941F40BA
:100D7F00E6120003E4F57AF57B20B203020E2C1283
:100D8F001386A2A7E433757C00F57D457C700302C2
:100D9F000E4D057BE57B7002057AC39498E57A9436
:100DAF003A40D6120003E4F57AF57B20B202806D4B
:100DBF00A2A7E433757C00F57D457C601412135CAB
:100DCF00057BE57B7002057AC39410E57A94274082
:100DDF00DA120003E4F57AF57B20B202803F12139A
:100DEF0071057BE57B7002057AC394E8E57A94037D
:100DFF0040E7120003E4FFFEEF4E704220B2028084
:100E0F001CA2A7E433757C00F57DA2A2E4FE33FF9C
:100E1F00E57D457C7028F57AF57B20B2077FE87E6B
:100E2F00030212BD121371057BE57B7002057AC3B5
:0E0E3F009420E57A944E40E2121386120003CE
:010E4D002282
:03000B000209A443
:1009A400C0E0C0F0C083C082C0D075D008758CFC94
:1009B400758A18056FE56F7002056E0575E575702B
:1009C400020574E529640145286003020A6DE551B6
:1009D400640145507038C3E55F953FE53E6480F897
:1009E400E55E6480985006C292C2958004D292D289
:1009F40095C3E55F940AE55E648094804006755E65
:100A040000755F00055FE55F705F055E805BE55123
:100A140045507055E53F2401FFE4353EFEC3E55DD6
:100A24009FEE6480F8E55C6480985006C292C2959B
:100A34008002D292E53F2402FFE4353EFED3E55D19
:100A44009FEE6480F8E55C6480984002D295D3E51B
:100A54005D940AE55C648094804006755C00755D75
:100A640000055DE55D7002055CE5756464457460D0
:100A740003020B52E531640145306008E53164033B
:100A840045307008E56464034563600A054BE54B33
:100A9400700C054A8008052FE52F7002052EE52FFE
:100AA4006432452E7026E531640145307005F53019
:100AB400753102E531640345307005F53075310454
:100AC400754A00754B00752E00752F00C3E54B94D5
:100AD40010E54A648094A74006754A00754B00856A
:100AE4004A74854B75AE74AF757C037DE81208A615
:100AF400EF2430F56BAE74AF757C037DE81208A665
:100B04008C748D75AE74AF757C007D641208A6EF8D
:100B14002430F56AAE74AF757C007D641208A68C2F
:100B2400748D75AE74AF757C007D0A1208A6EF242F
:100B340030F569AE74AF757C007D0A1208A68C741A
:100B44008D75E5752430F562757400757500E56F73
:100B540064E87004E56E64036003020C15F56EF539
:100B64006FAC60AD61EC1207ECAB55AA54A953A865
:100B7400521206748F798E788D778C76E4FBFA792D
:100B84002078411206748F798E788D778C761208CE
:100B9400258E5A8F5BC3E55B9410E55A648094A755
:100BA4004006755A27755B0FAE5AAF5B7C037DE830
:100BB4001208A6EF2430F51FAE5AAF5B7C037DE824
:100BC4001208A68C5A8D5BAE5AAF5B7C007D641212
:100BD40008A6EF2430F51EAE5AAF5B7C007D64128C
:100BE40008A68C5A8D5BAE5AAF5B7C007D0A120856
:100BF400A6EF2430F51DAE5AAF5B7C007D0A1208C7
:100C0400A68C5A8D5BE55B2430F51C75600075611C
:0C0C140000D0D0D082D083D0F0D0E032ED
:03001B00020E4E84
:100E4E00C0E0C0F0C083C082C0D075D010E54F6442
:100E5E0003454E701D0561E56170020560AF73AE0E
:100E6E0072AD71AC70AB55AA54A953A8521205833A
:100E7E00801BE54F6404454E701BAF73AE72AD71AF
:100E8E00AC70AB55AA54A953A85212057F8F738E1E
:100E9E00728D718C707F007E407D1C7C46AB73AA78
:100EAE0072A971A87012077A5014E4FFFEFDFCAB14
:100EBE0073AA72A971A87012077A6002500C75732A
:100ECE0000757200757100757000AF73AE72AD7102
:100EDE00AC701208258E568F577C037DE81208A63B
:100EEE00EF2430F51BAE56AF577C037DE81208A6F3
:100EFE008C568D57AE56AF577C007D641208A6EF08
:100F0E002430F51AAE56AF577C007D641208A68CBD
:100F1E00568D57AE56AF577C007D0A1208A6EF24A9
:100F2E0030F519AE56AF577C007D0A1208A68C56C6
:100F3E008D57E5572430F518D0D0D082D083D0F01D
:030F4E00D0E032BE
:100C2000E4F56CF56D121303758961758CFC758A9A
:100C300018758BFF758DFF75B808C2AFD2A9D2ABFE
:100C4000D28CD28E12000320B230056DE56D700299
:100C5000056CAE6CFF7C007D021208A68C6C8D6D5D
:100C6000E56C456D24FF92AF856C28856D29B392A4
:100C70009292957F647E001212BD30B603020D077A
:100C8000E4F56CF56DC2AFF528F529D292D295C383
:100C9000E5649403E56364809480500A0564E56428
:100CA000700A05638006756300756401E56464017C
:100CB00045637014F5207521D1F5227523ADF52417
:100CC0007525BCF5267527A3E56464024563701499
:100CD000F5207521B1F5227523DCF5247525D5F5B0
:100CE000267527CFE564640345637014F5207521EC
:100CF000C6F5227523BDF5247525BAF5267527E2BC
:100D00007F647E001212BDE56D6401456C600302D4
:100D10000C44E564640145637006121240020C4401
:100D2000E564640245637006120D3F020C44E564FD
:0F0D3000640345636003020C4412001E020C446E
:10057C00020891E86480F8E933E83360110460F014
:10058C00ED33EC337009E8FCE9FDEAFEEBFF2204E5
:10059C0060DED3EB9FEA9EE99DE8C2E78CF0C2F7E0
:1005AC0095F0400CE8CCF8E9CDF9EACEFAEBCFFBAC
:1005BC0012085C85D0F05804700320D5B3E80470A1
:1005CC00075002B2D502089B92D5EC0460F7E4CC3C
:1005DC00C0E0C398F8603B94186008400DD0E0FB75
:1005EC00020873E4FBFAC9FC8028E830E406E4C98D
:1005FC00FBE4CAFCE830E305E4C9CACBFCE85407C9
:10060C006010F8C3E913F9EA13FAEB13FBEC13FCD3
:10061C00D8F130F52FC3E49CFCEF9BFFEE9AFEED76
:10062C0099FDD0E0FBEF4E4D4C701222DB0302081B
:10063C0098EC2CFCEF33FFEE33FEED33FDED30E7A1
:10064C00EB020873EF2BFFEE3AFEED39FDD0E0FB29
:10065C0050130BBB000302089BED13FDEE13FEEFD2
:08066C0013FFEC13FC020873FC
:10067400EC4D6011E8497017ED33EC3304600DE480
:10068400FCFFFEFD22E933E8330470F802089112FE
:10069400085C58046009E4CC2481500628500902FF
:1006A400089B284003020898C0E0EB4A7044B980D4
:1006B40006D0E0FB020887EF4E701CBD8008EBFFFC
:1006C400EAFEE9FD80EBE98DF0A4FEE5F002075DAA
:1006D400E9CDF9EAFEEBFFEF89F0A4FCE5F0CE8961
:1006E400F0A42EFFE435F0CD89F0A42DFEE435F01E
:1006F4008067EF4E7005BD80D780C3EF8BF0A4AC4C
:10070400F0EE8BF0A42CFCE435F0F8EF8AF0A42C86
:10071400E5F038FCE433CB8DF0A42CFCE5F03BF899
:10072400EE8AF0A42CFCE5F038F8E433CF89F0A489
:100734002CFCE5F038CF3400CE89F0A42FFFE5F08F
:100744003EFEE433C98DF0A42EFEE5F039CD8AF0E7
:10075400A42FFFE5F03EFEE43DFD33D0E0FB50075F
:100764000BBB000F02089BEC2CFCEF33FFEE33FEB7
:06077400ED33FD020873E5
:10077A0074F8CC6480CCC86480C8F582046043C332
:10078A00EB9FF5F0EA9E42F0E99D42F0E89C45F0C5
:10079A0060305018E5825FFFE582F42B5582FB50EA
:1007AA00210ABA001D09B90019088016E5825BFB07
:1007BA00E582F42F5582FF50090EBE00050DBD00DB
:1007CA00010CC3EB9FF5F0EA9E42F0E99D42F0E886
:0D07DA009C45F06007CC4820E701B3EC22FD
:1007E70075F020800E75F010800575F0087D007E8D
:1007F700007F003392D530D50312092BEC3340101C
:10080700EF33FFEE33FEED33FDEC33FCD5F0ED2295
:0E081700E5F0247EA2D513CC92E7CDCEFF22D1
:10082500EDD2E7CD33EC3392D524814006E4FFFECB
:10083500FDFC22FCE4CFCECDCC24E0501174FF802A
:10084500EDC3CC13CCCD13CDCE13CECF13CF0470C7
:07085500F030D5DE02092B93
:10085C00E9D2E7C933E833F892D5EDD2E7CD33ECE2
:07086C0033FC5002B2D5225B
:10087300EC30E7100FBF000C0EBE00080DBD0004E6
:100883000BEB6014A2D5EB13FCED92E7FD2274FF92
:10089300FCFDFEFF22E480F8A2D574FF13FC7D80EB
:0308A300E480EFFF
:10113900020C20E493A3F8E493A34003F68001F2A0
:1011490008DFF48029E493A3F85407240CC8C333B7
:10115900C4540F4420C8834004F456800146F6DF86
:10116900E4800B01020408102040809011B9E47E4C
:10117900019360BCA3FF543F30E509541FFEE4937B
:10118900A360010ECF54C025E060A840B8E493A342
:10119900FAE493A3F8E493A3C8C582C8CAC583CA6D
:1011A900F0A3C8C582C8CAC583CADFE9DEE780BE25
:01123F0000AE
:1008A600C2D5EC30E709B2D5E4C39DFDE49CFCEE6D
:1008B60030E715B2D5E4C39FFFE49EFE12094FC38D
:1008C600E49DFDE49CFC800312094F30D507C3E488
:0608D6009FFFE49EFE22DC
:1008DC00E88FF0A4CC8BF0A42CFCE98EF0A42CFCBB
:1008EC008AF0EDA42CFCEA8EF0A4CDA8F08BF0A439
:1008FC002DCC3825F0FDE98FF0A42CCD35F0FCEB98
:10090C008EF0A4FEA9F0EB8FF0A4CFC5F02ECD395C
:0F091C00FEE43CFCEAA42DCE35F0FDE43CFC22C9
:0E092B00C3E49FFFE49EFEE49DFDE49CFC22DD
:10093900EB9FF5F0EA9E42F0E99D42F0EC6480C835
:0609490064809845F022D5
:10094F00BC000BBE0029EF8DF084FFADF022E4CC8C
:10095F00F875F008EF2FFFEE33FEEC33FCEE9DEC55
:10096F00984005FCEE9DFE0FD5F0E9E4CEFD22ED9B
:10097F00F8F5F0EE8420D21CFEADF075F008EF2FE5
:10098F00FFED33FD4007985006D5F0F222C398FDD6
:05099F000FD5F0EA2273
:00000001FF
