:03000000020EFDF0
:0C0EFD00787FE4F6D8FD758175020F4483
:100FFB00011C30011D30011E30011F300234000076
:10100B0002240006024200000236000002460000E5
:10101B0002580000023000010222002802260000C4
:10102B00023C0004025A000002200001022E0000C4
:10103B00022C000004380000000A043E00000001EE
:10104B00045F00000000042800000258044C3F79A4
:02105B006969C1
:0710840012108BED54F0FF88
:10108B00E4FEC296EF30E704D2978002C297D29665
:08109B00EF25E0FF0EBE08EA9C
:0110A300222A
:10112300AD077FF8121084ED540FC454F0FF021082
:011133008B30
:0510BD001210C27F3A91
:1010C200AD077FFA121084ED540FC454F0FF0210E2
:0110D2008B92
:1010A4007F301211237F0C1211237F011211237F31
:0910B400021211237F80021123B6
:100C63007F801211237FD01210C27FA11210C27F86
:100C7300B31210C27FB51210C27FD71210C27FB455
:100C83001210C27FCC1210C27FAC1210C27FA3120B
:100C930010C27FBA1210C27F901211237FCA1210A2
:100CA300C27FB11210C27FBC1210C27FE41210BD0A
:100CB300AF651210C2AF641210C2AF631210C27FCD
:100CC3002E1210C2AF5E1210C27F731210C27F8841
:100CD3001211237FCB1210C27FD91210C27FB6121A
:100CE30010C27FC81210BDAF1F1210C2AF1E121068
:100CF300C2AF1D1210C27F2E1210C2AF1C1210C23F
:100D03007F631210C27F6D1210C27F2F1210C27F39
:100D1300731210C27F981211237FC21210C27FB7C1
:100D23001210C27FB31210C27FCC1210BDAF1B12C0
:100D330010C2AF1A1210C27F2E1210C2AF191210B6
:0B0D4300C2AF181210C27F6D0210C278
:04000300120C632256
:1010D300754A00754B01D290C291D293D294754850
:0510E300007549022226
:1010E800754A00754B01D290D291D293C29475483B
:0510F800007549012212
:1010FD00E4F54AF54BD290C291D293C294F548755E
:03110D0049032271
:10111000E4F54AF54BC290D291C293D294F548754A
:031120004904225D
:100F890030A01730A00530A102800C30A00C20A1A0
:100F99000920A2061210D31210D330A21730A205CD
:100FA90030A102800C20A00C20A10930A206121049
:100FB900E81210E830A10920A00620A2031210FDB2
:100FC90020A00620A10330A21230A00620A10320F0
:100FD900A20930A01C30A11930A216E548700FE50E
:100FE9004924FE60060470060210E80210D31211AB
:020FF9001022C4
:10001E00E52F452E60030203B630A40C20A3030285
:10002E00018020A503020180752000752101E531B4
:10003E004530600B74032523F523E43522F522E4C5
:10004E00FAF9F8E5622401F562EA3561F561E93500
:10005E0060F560E8355FF55FE4F546F547E5314557
:10006E003070197F64FEFDFCAB62AA61A960A85FC7
:10007E00C31209844006753400753508E5314530E4
:10008E0060030201747F05FEFDFCAB62AA61A960EC
:10009E00A85FC31209845003020174E47F2C7E0111
:1000AE00FDFCA85F120984400BE475622C7561019A
:1000BE00F560F55F0537E53770020536E47F64FEBF
:1000CE00FDFCAB62AA61A960A85FC312098440134C
:1000DE00E4753B0AF53AF539F53875410AF540F500
:1000EE003FF53EC3E5379403E536648094804005C2
:1000FE00E4F526F527C3E537940CE5366480948045
:10010E00402FD3E53D9404E53C648094804022E585
:10011E0062240AF562E43561F561E43560F560E468
:10012E00355FF55FE4F536F537E53D153D700215A3
:10013E003CC3E53794F4E536648094814006752E11
:10014E0000752F01C3E5379402E536648094804034
:10015E0015D3E525941EE52464809480500805256A
:10016E00E52570020524E4F520F521F542F543025C
:10017E0003B230A30BE52F6404452E60030203B6D1
:10018E00E52F6402452E70030203B6E5314530605B
:10019E000B74042523F523E43522F5220547E547A4
:1001AE0070020546E52F6404452E701DAE24AF2562
:1001BE00EE3395E0FDFCAB3BAA3AA939A8381209FB
:1001CE00278F418E408D3F8C3EC3E5479432E546E6
:1001DE0064809480401BE53145306015E4F530F5C0
:1001EE0031F546F547F526752701F53C753D058039
:1001FE0029E53145307023E5274526701DAE24AF25
:10020E0025EE3395E0FDFCAB3BAA3AA939A838128E
:10021E0009278F418E408D3F8C3EE4FAF9F8E54177
:10022E002401F541EA3540F540E9353FF53FE83523
:10023E003EF53E752000752101C3E54794FAE5466B
:10024E00648094804017E4F546F547753B01F53A16
:10025E00F539F538754101F540F53FF53EC3E547F3
:10026E00944DE54664809481401DE47F04FEFDFCC0
:10027E00AB62AA61A960A85FD31209845009E4F5A4
:10028E0062F561F560F55FAE24AF25EE3395E0FDC6
:10029E00FCAB3BAA3AA939A838120927AB41AA40B0
:1002AE00A93FA83EC312098450030203ADE47F0A9E
:1002BE00FEFDFCAB62AA61A960A85F12098450031F
:1002CE000203ADE531453060030203ADF536F53777
:1002DE00F542754301F552F553AE52AF53EE3395D9
:1002EE00E0FDFCAB2BAA2AA929A828C31209844039
:1002FE006E121110E55964014558600CE5359403F2
:10030E00E53464809480404CE47F907E01FDFCAB2C
:10031E002BAA2AA929A828C31209846009E4752BDF
:10032E0090752A018006E4752BC8F52AF529F52863
:10033E00AE34AF357C007D021208F1ED4C7015D352
:10034E00E535940AE5346480948050080535E5352A
:10035E00700205340553E553700205520202E7E4BC
:10036E00754101F540F53FF53E7F64FEFDFCAB6245
:10037E00AA61A960A85FD31209844013E47F02FE2C
:10038E00FDFCAB3BAA3AA939A8381209845006E401
:10039E00753B018004E4753B06F53AF539F538E412
:1003AE00F520F521D292D29530A50BE52F640245AA
:1003BE002E60030205C6E52F6404452E7003020568
:1003CE00C60547E54770020546E4FAF9F8E53B2411
:1003DE0001F53BEA353AF53AE93539F539E835387C
:1003EE00F538752000752101E52764014526702337
:1003FE00AE24AF25EE3395E0FDFCAB41AA40A93FFC
:10040E00A83E1209278F3B8E3A8D398C38752600FF
:10041E00752702E53145307008E52F6401452E70D1
:10042E004CAE24AF25EE3395E0FDFCAB41AA40A9BE
:10043E003FA83E1209278F3B8E3A8D398C38E53115
:10044E0045306013C3E545941EE5446480948040B6
:10045E0006753C00753D03E52F6402452E700E3087
:10046E00A00B30A10830A205F52E752F03E53145FE
:10047E00307029C3E54794FAE54664809480401CA9
:10048E00E4F546F547753B01F53AF539F538754112
:10049E0001F540F53FF53EF558755901AE24AF25EF
:1004AE00EE3395E0FDFCAB41AA40A93FA83E1209F0
:1004BE0027AB3BAA3AA939A838C3120984500302C4
:1004CE0005BDE4F536F537F542754302F552F553A1
:1004DE00AE26AF277C007D021208F1ED2401FFE469
:1004EE003CFE3395E0FDFCAB2BAA2AA929A82812C5
:1004FE000927EF249CFBEE34FFFAED34FFF9EC34C0
:10050E00FFF8AE52AF53EE3395E0FDFCC3120984F3
:10051E0050030205BD120F89AE34AF357C007D024B
:10052E001208F1ED4C6015D3E535940AE53464807C
:10053E00948050080535E53570020534E4753B01AD
:10054E00F53AF539F538E53145307008E52764029E
:10055E0045267019E475411EF540F53FF53EE52739
:10056E0064024526703EF5267527048037E47F64C5
:10057E00FEFDFCAB62AA61A960A85FD3120984409C
:10058E0013E47F02FEFDFCAB41AA40A93FA83E1238
:10059E0009845006E47541018004E4754106F54076
:1005AE00F53FF53E0553E553700205520204DEE4B5
:0905BE00F520F521D292D295221C
:10105E00E4FDFCC3ED9FEE6480F8EC6480985015BF
:10106E00E4FBFA0BBB00010ABA03F8BBE8F50DBDB1
:05107E0000010C80DE02
:01108300224A
:03000B000209EFF8
:1009EF00C0E0C0F0C083C082C0D075D008758CFC49
:1009FF00758A180569E56970020568056FE56F70FE
:100A0F0002056EE521640145206003020AB8E54B3B
:100A1F006401454A7038C3E55B953DE53C6480F859
:100A2F00E55A6480985006C292C2958004D292D241
:100A3F0095C3E55B940AE55A648094804006755A25
:100A4F0000755B00055BE55B705F055A805BE54BEE
:100A5F00454A7055E53D2401FFE4353CFEC3E5579B
:100A6F009FEE6480F8E5566480985006C292C29556
:100A7F008002D292E53D2402FFE4353CFED3E557D8
:100A8F009FEE6480F8E5566480984002D295D3E5D6
:100A9F0057940AE556648094804006755600755742
:100AAF00000557E55770020556E56F6464456E60A3
:100ABF0003020B95E52F6401452E6012E52F6403A9
:100ACF00452E600A0545E545700C05448008052D47
:100ADF00E52D7002052CE52D6432452C7026E52F8F
:100AEF006401452E7005F52E752F02E52F64034521
:100AFF002E7005F52E752F04754400754500752C65
:100B0F0000752D00C3E5459410E544648094A7401B
:100B1F000675440075450085446E85456FAE6EAF12
:100B2F006F7C037DE81208F1EF2430F565AE6EAFF0
:100B3F006F7C037DE81208F18C6E8D6FAE6EAF6F18
:100B4F007C007D641208F1EF2430F564AE6EAF6F58
:100B5F007C007D641208F18C6E8D6FAE6EAF6F7C72
:100B6F00007D0A1208F1EF2430F563AE6EAF6F7C93
:100B7F00007D0A1208F18C6E8D6FE56F2430F55EE3
:100B8F00756E00756F00E56964E87004E5686403CD
:100B9F006003020C58F568F569AC5CAD5DEC1208AA
:100BAF0037AB4FAA4EA94DA84C1206BF8F738E724A
:100BBF008D718C70E4FBFA792078411206BF8F7328
:100BCF008E728D718C701208708E548F55C3E555CF
:100BDF009410E554648094A7400675542775550FFB
:100BEF00AE54AF557C037DE81208F1EF2430F51FAA
:100BFF00AE54AF557C037DE81208F18C548D55AE81
:100C0F0054AF557C007D641208F1EF2430F51EAE11
:100C1F0054AF557C007D641208F18C548D55AE5441
:100C2F00AF557C007D0A1208F1EF2430F51DAE544C
:100C3F00AF557C007D0A1208F18C548D55E5552473
:100C4F0030F51C755C00755D00D0D0D082D083D09C
:040C5F00F0D0E032BF
:03001B00020E339F
:100E3300C0E0C0F0C083C082C0D075D010055DE5AE
:100E43005D7002055CAF6DAE6CAD6BAC6AAB4FAA67
:100E53004EA94DA84C1205CE8F6D8E6C8D6B8C6A8E
:100E63007F007E407D1C7C46AB6DAA6CA96BA86A93
:100E73001207C5400C756D00756C00756B00756AC3
:100E830000AF6DAE6CAD6BAC6A1208708E508F51B3
:100E93007C037DE81208F1EF2430F51BAE50AF510F
:100EA3007C037DE81208F18C508D51AE50AF517C1C
:100EB300007D641208F1EF2430F51AAE50AF517C77
:100EC300007D641208F18C508D51AE50AF517C00FF
:100ED3007D0A1208F1EF2430F519AE50AF517C00B2
:100EE3007D0A1208F18C508D51E5512430F518D04C
:0A0EF300D0D082D083D0F0D0E032DE
:100D4E00E4F566F5671210A4755E30756330756450
:100D5E0030756530751830751930751A30751B3051
:100D6E00758961758CFC758A18758BFF758DFF758D
:100D7E00B808C2AFD2A9D2ABD28CD28E756600752E
:100D8E006701120003A2B2E433757400F575457461
:100D9E0070300567E56770020566AE66FF7C007D04
:100DAE00021208F18C668D67E566456724FF92AFE7
:100DBE00856620856721B3929292957FE87E031215
:100DCE00105E20B64F7FE87E0312105E755E3075A2
:100DDE006330756430756530751830751930751A55
:100DEE0030751B30751C30751D30751E30751F30FB
:100DFE00758CFC758A18758BFF758DFFE4F566F59D
:100E0E0067F544F545F56DF56CF56BF56AC2AFF512
:100E1E0020752101E567640145666003020D90129D
:050E2E00001E020D9002
:1005C7000208DCE86480F8E933E83360110460F07E
:1005D700ED33EC337009E8FCE9FDEAFEEBFF22049A
:1005E70060DED3EB9FEA9EE99DE8C2E78CF0C2F795
:1005F70095F0400CE8CCF8E9CDF9EACEFAEBCFFB61
:100607001208A785D0F05804700320D5B3E804700A
:10061700075002B2D50208E692D5EC0460F7E4CCA5
:10062700C0E0C398F8603B94186008400DD0E0FB29
:100637000208BEE4FBFAC9FC8028E830E406E4C9F6
:10064700FBE4CAFCE830E305E4C9CACBFCE854077D
:100657006010F8C3E913F9EA13FAEB13FBEC13FC88
:10066700D8F130F52FC3E49CFCEF9BFFEE9AFEED2B
:1006770099FDD0E0FBEF4E4D4C701222DB030208D0
:10068700E3EC2CFCEF33FFEE33FEED33FDED30E70B
:10069700EB0208BEEF2BFFEE3AFEED39FDD0E0FB93
:1006A70050130BBB00030208E6ED13FDEE13FEEF3C
:0806B70013FFEC13FC0208BE66
:1006BF00EC4D6011E8497017ED33EC3304600DE435
:1006CF00FCFFFEFD22E933E8330470F80208DC1268
:1006DF0008A758046009E4CC248150062850090269
:1006EF0008E62840030208E3C0E0EB4A7044B980F3
:1006FF0006D0E0FB0208D2EF4E701CBD8008EBFF66
:10070F00EAFEE9FD80EBE98DF0A4FEE5F00207A813
:10071F00E9CDF9EAFEEBFFEF89F0A4FCE5F0CE8915
:10072F00F0A42EFFE435F0CD89F0A42DFEE435F0D2
:10073F008067EF4E7005BD80D780C3EF8BF0A4AC00
:10074F00F0EE8BF0A42CFCE435F0F8EF8AF0A42C3B
:10075F00E5F038FCE433CB8DF0A42CFCE5F03BF84E
:10076F00EE8AF0A42CFCE5F038F8E433CF89F0A43E
:10077F002CFCE5F038CF3400CE89F0A42FFFE5F044
:10078F003EFEE433C98DF0A42EFEE5F039CD8AF09C
:10079F00A42FFFE5F03EFEE43DFD33D0E0FB500714
:1007AF000BBB000F0208E6EC2CFCEF33FFEE33FE21
:0607BF00ED33FD0208BE4F
:1007C50074F8CC6480CCC86480C8F582046043C3E7
:1007D500EB9FF5F0EA9E42F0E99D42F0E89C45F07A
:1007E50060305018E5825FFFE582F42B5582FB509F
:1007F500210ABA001D09B90019088016E5825BFBBC
:10080500E582F42F5582FF50090EBE00050DBD008F
:10081500010CC3EB9FF5F0EA9E42F0E99D42F0E83A
:0D0825009C45F06007CC4820E701B3EC22B1
:1008320075F020800E75F010800575F0087D007E41
:10084200007F003392D530D503120976EC33401085
:10085200EF33FFEE33FEED33FDEC33FCD5F0ED224A
:0E086200E5F0247EA2D513CC92E7CDCEFF2286
:10087000EDD2E7CD33EC3392D524814006E4FFFE80
:10088000FDFC22FCE4CFCECDCC24E0501174FF80DF
:10089000EDC3CC13CCCD13CDCE13CECF13CF04707C
:0708A000F030D5DE020976FD
:1008A700E9D2E7C933E833F892D5EDD2E7CD33EC97
:0708B70033FC5002B2D52210
:1008BE00EC30E7100FBF000C0EBE00080DBD00049B
:1008CE000BEB6014A2D5EB13FCED92E7FD2274FF47
:1008DE00FCFDFEFF22E480F8A2D574FF13FC7D80A0
:0308EE00E480EFB4
:100F0900020D4EE493A3F8E493A34003F68001F2A3
:100F190008DFF48029E493A3F85407240CC8C333E9
:100F2900C4540F4420C8834004F456800146F6DFB8
:100F3900E4800B0102040810204080900FFBE47E3E
:100F4900019360BCA3FF543F30E509541FFEE493AD
:100F5900A360010ECF54C025E060A840B8E493A374
:100F6900FAE493A3F8E493A3C8C582C8CAC583CA9F
:100F7900F0A3C8C582C8CAC583CADFE9DEE780BE57
:01105D000092
:1008F100C2D5EC30E709B2D5E4C39DFDE49CFCEE22
:1009010030E715B2D5E4C39FFFE49EFE12099AC3F6
:10091100E49DFDE49CFC800312099A30D507C3E4F1
:060921009FFFE49EFE2290
:10092700E88FF0A4CC8BF0A42CFCE98EF0A42CFC6F
:100937008AF0EDA42CFCEA8EF0A4CDA8F08BF0A4ED
:100947002DCC3825F0FDE98FF0A42CCD35F0FCEB4C
:100957008EF0A4FEA9F0EB8FF0A4CFC5F02ECD3911
:0F096700FEE43CFCEAA42DCE35F0FDE43CFC227E
:0E097600C3E49FFFE49EFEE49DFDE49CFC2292
:10098400EB9FF5F0EA9E42F0E99D42F0EC6480C8EA
:0609940064809845F0228A
:10099A00BC000BBE0029EF8DF084FFADF022E4CC41
:1009AA00F875F008EF2FFFEE33FEEC33FCEE9DEC0A
:1009BA00984005FCEE9DFE0FD5F0E9E4CEFD22ED50
:1009CA00F8F5F0EE8420D21CFEADF075F008EF2F9A
:1009DA00FFED33FD4007985006D5F0F222C398FD8B
:0509EA000FD5F0EA2228
:00000001FF
