:030000000211C723
:0C11C700787FE4F6D8FD75817D02120EE1
:1011040025252525BBB6D3ADCAB9D3C325252525A9
:10111400D1ADBCA3A1A2B1DCD5CFA1A2F5CEF5CEB1
:1011240020202020202020202020202020202020BB
:10113400B0E5C6BDBAE2D6C7C4DCD0A1B3B5A1A39D
:1011440000D0A1D7E9B3C9D4B13A2020202020206F
:101154002020202020202020202020C1CEBFA1B28A
:10116400A920202020202020202020CCB7B5C2B3E5
:10117400AC20202020202020202020D6ECC5E6D43E
:10118400B600B3F5CABCBBAFCDEAB3C9A3AC20204B
:101194002020BFC9D2D4CAB9D3C321202020202003
:1011A400202020202020202020202020202020203B
:1011B400202020202020202020202020202020202B
:0311C400202000E8
:10125300016430016B30016C30016D30011C3001D1
:101263001D30011E30011F30011830011930011AE1
:1012730030011B30022000D1022200AD022400BC49
:10128300022600A3043E0000000A044200000001FD
:101293000467000000000432000002580238000016
:1012A300022A000602460000023A0000024A000039
:1012B30002360001022C000002300000022E000062
:1012C3000260000002650001023C000802280001E0
:0612D30004503F79696937
:081468007F327DE87C037E0069
:10147000E4F556F557C3E5579FEE6480F8E55664EA
:1014800080985028E4F558F559C3E5599DEC6480DF
:10149000F8E558648098500A0559E55970EB0558ED
:0D14A00080E70557E55770CD055680C9223D
:07150C00121513ED54F0FF6E
:10151300E4FEC296EF30E704D2978002C297D296D8
:08152300EF25E0FF0EBE08EA0F
:01152B00229D
:1015E800AD077FF812150CED540FC454F0FF021527
:0115F80013DF
:0515450012154A7F3A77
:10154A00AD077FFA12150CED540FC454F0FF0215C3
:01155A00137D
:10152C007F301215E87F0C1215E87F011215E87F49
:09153C00021215E87F800215E897
:100E3D007F801215E87FD012154A7FA112154A7FC7
:100E4D00B312154A7FB512154A7FD712154A7FB4D2
:100E5D0012154A7FCC12154A7FAC12154A7FA31288
:100E6D00154A7FBA12154AAF2112154AAF23121532
:100E7D004AAF2512154AAF2712154A7F901215E871
:100E8D007FCA12154A7FB112154A7FBC12154A7FCF
:100E9D00E4121545AF6D12154AAF6C12154AAF6BC2
:100EAD0012154A7F2E12154AAF6412154A7F73121E
:100EBD00154A7F881215E87FCB12154A7FD9121576
:100ECD004A7FB612154A7FC8121545AF1F12154A33
:100EDD00AF1E12154AAF1D12154A7F2E12154AAFBD
:100EED001C12154A7F6312154A7F6D12154A7F2F0A
:100EFD0012154A7F7312154A7F981215E87FC21298
:100F0D00154A7FB712154A7FB312154A7FCC1215B9
:100F1D0045AF1B12154AAF1A12154A7F2E12154AEC
:0F0F2D00AF1912154AAF1812154A7F6D02154AF7
:04000300120E3D227A
:10155B00754E00754F01C290D291D293D294754CB7
:05156B0000754D062291
:10157000754E00754F01D290D291C293D294754CA2
:0515800000754D05227D
:10158500754E00754F01D290C291D293D294754C8D
:0515950000754D02226B
:10159A00754E00754F01D290D291D293C294754C78
:0515AA0000754D012257
:1015AF00E4F54EF54FD290C291D293C294F54C759B
:0315BF004D0322B7
:1015C200E4F54EF54FC290D291C293D294F54C7588
:0315D2004D0422A3
:1012DA0030A01730A00530A102800C30A00C20A14C
:1012EA000920A20612158512158530A21730A2050B
:1012FA0030A102800C20A00C20A10930A2061215F0
:10130A009A12159A30A10920A00620A2031215AF3D
:10131A0020A00620A10330A21230A00620A103209B
:10132A00A20930A02730A12430A221E54C700FE594
:10133A004D24FE600604700602159A021585E566BC
:0D134A006403456570030215AF1215C22241
:1010270030A6031215C230A11C20A61920A2047FE6
:101037000180027F0020A0047E0180027E00EE5F17
:10104700600312157030A049E54C7042E54D24FC51
:10105700603724FE601B047035A2A6E4800BE557B9
:101067004556702D12155BA2A633755600F55780AD
:10107700EDA2A6E4800BE55745567015121570A230
:10108700A633755600F55780ED12157080031215BB
:10109700C230A149E54C7042E54D24FC603724FE7F
:1010A700601B047035A2A6E4800BE5574556702DEA
:1010B70012155BA2A633755600F55780EDA2A6E47C
:1010C700800BE55745567015121570A2A633755655
:1010D70000F55780ED12157080031215C220A01C71
:1010E70020A11920A216E54C700FE54D24FA6006E1
:0D10F70004700602155B0215701215C2226E
:10001E0030A50BE5316402453060030201F8E5318D
:10002E006404453070030201F8054BE54B70020580
:10003E004AE4FAF9F8E5412401F541EA3540F54084
:10004E00E9353FF53FE8353EF53E75280075290147
:10005E00E53745367008E53164024530706BAE2ADF
:10006E00AF2BEE3395E0FDFCAB45AA44A943A84265
:10007E001208DC8F418E408D3F8C3E752C00752D05
:10008E0001E53745366013C3E5499423E54864809E
:10009E0094804006753C00753D05E5374536601386
:1000AE00C3E549942DE548648094804006753C0074
:1000BE00753D04E53164024530700E30A00B30A161
:1000CE000830A205F530753103E53745367029C382
:1000DE00E54B94C8E54A64809480401CE4F54AF5EB
:1000EE004B754101F540F53FF53E754501F544F57B
:1000FE0043F542F538753908AE2AAF2BEE3395E04D
:10010E00FDFCAB45AA44A943A8421208DCAB41AAA8
:10011E0040A93FA83EC312093950030201EFE4F58E
:10012E003AF53BF546754702F556F557AE56AF57BD
:10013E00EE3395E0FDFCAB35AA34A933A832C312D9
:10014E00093950030201EF1212DAAE38AF397C00D2
:10015E007D021208A6ED4C6015D3E539940AE538F8
:10016E006480948050080539E53970020538E475CD
:10017E004101F540F53FF53EE53745367008E52D72
:10018E006402452C7019E475451EF544F543F5429D
:10019E00E52D6402452C703EF52C752D048037E458
:1001AE007F64FEFDFCAB6AAA69A968A867D3120931
:1001BE00394013E47F02FEFDFCAB45AA44A943A8D7
:1001CE00421209395006E47545018004E47545066E
:1001DE00F544F543F5420557E55770020556020101
:1001EE003AE4F528F529D292D295E53145306003EF
:1001FE0002033730A40C20A30302033720A5030209
:10020E000337752800752901E4FAF9F8E56A240127
:10021E00F56AEA3569F569E93568F568E83567F52F
:10022E0067E4F54AF54BE537453670197F64FEFDF8
:10023E00FCAB6AAA69A968A867C31209394006759A
:10024E003800753908E5374536600302032A7F0505
:10025E00FEFDFCAB6AAA69A968A867C312093950EA
:10026E000302032AE47F2C7E01FDFCA867120939E4
:10027E00400BE4756A2C756901F568F567053BE579
:10028E003B7002053AC3940FE53A648094804013A4
:10029E00E475410AF540F53FF53E75450AF544F51E
:1002AE0043F542C3E53B9418E53A64809480402FB1
:1002BE00D3E53D9404E53C648094804022E56A24B5
:1002CE000AF56AE43569F569E43568F568E4356779
:1002DE00F567E4F53AF53BE53D153D7002153CC377
:1002EE00E53B94F4E53A64809481400E75300075D8
:1002FE003101C2B4753C00753D04C3E53B9419E56C
:10030E003A648094804015D3E52B9419E52A6480D5
:10031E0094805008052BE52B7002052AE4F528F58C
:10032E0029F546F547D292D29530A30BE5316404F8
:10033E004530600302057BE53164024530700302EF
:10034E00057BE53745366008054BE54B7002054ADF
:10035E00E53164044530701DAE2AAF2BEE3395E0C7
:10036E00FDFCAB41AA40A93FA83E1208DC8F458E8A
:10037E00448D438C42C3E54B9414E54A64809480CB
:10038E004017E53745366011E4F536F537F54AF591
:10039E004B053DE53D7002053CE4FAF9F8E54524D0
:1003AE0001F545EA3544F544E93543F543E8354270
:1003BE00F542752800752901C3E54B94C8E54A64DA
:1003CE008094804017E4F54AF54B754101F540F5F0
:1003DE003FF53E754501F544F543F542C3E54B94B3
:1003EE004DE54A64809481401DE47F04FEFDFCAB24
:1003FE006AAA69A968A867D31209395009E4F56A8F
:10040E00F569F568F567AE2AAF2BEE3395E0FDFC86
:10041E00AB41AA40A93FA83E1208DCAB45AA44A9AD
:10042E0043A842C31209395003020572E47F0AFE43
:10043E00FDFCAB6AAA69A968A867120939500302C4
:10044E000572E53745366003020572F53AF53BF560
:10045E0046754701F556F557E52D2401FFE4352C79
:10046E00FE3395E0FDFCAB35AA34A933A832120851
:10047E00DCA804A905AA06AB07AE56AF57EE339516
:10048E00E0FDFCC3120939405C121027C3E5399414
:10049E0003E538648094804041E47FC8FEFDFCABE8
:1004AE0035AA34A933A832120939600AE47535C861
:1004BE00F534F533F532AE38AF397C007D021208D3
:1004CE00A6ED4C7015D3E539940AE5386480948016
:1004DE0050080539E539700205380557E5577002A1
:1004EE000556020466E4754501F544F543F5427F71
:1004FE0064FEFDFCAB6AAA69A968A867D312093924
:10050E004013E47F02FEFDFCAB41AA40A93FA83E8A
:10051E001209395006E47541018004E4754106F56F
:10052E0040F53FF53EC3E52D9401E52C64809480A3
:10053E004032E4F52CF52D7402252BF52BE4352AEB
:10054E00F52AE4754564F544F543F542754164F5C5
:10055E0040F53FF53EF53C753D0675352C7534017D
:0E056E00F533F532E4F528F529D292D2952224
:100F3C00E4F57CF57DE57D457C701420B203021050
:100F4C000712159AA2A7E433757C00F57D80E61292
:100F5C000003E4FBFA20B20302100712159A0BBB34
:100F6C0000010ABA1FEFBB40EC120003E4FAFB20AD
:100F7C00B2030210071215AFA2A7E433757C00F57B
:100F8C007D457C70030210260BBB00010ABA3ADFC8
:100F9C00BB98DC120003E4FAFB20B202805DA2A72E
:100FAC00E433757C00F57D457C600E1215850BBB1A
:100FBC0000010ABA27E3BB10E0120003E4FAFB209D
:100FCC00B202803712159A0BBB00010ABA03F0BBB0
:100FDC00E8ED120003E4FFFEEF4E703E20B20280FB
:100FEC001AA2A7E433757C00F57DA2A2E4FE33FFC0
:100FFC00E57D457C7024FAFB20B20B7DE87C037FF9
:10100C00E87E0302147012159A0BBB00010ABA4E4B
:0A101C00E7BB20E41215AF12000339
:0110260022A7
:1013C200FDE4FF1213D4E92AFDE4FF1213D47D30A9
:0213D200E4FF36
:1013D400C296D297E4FED296C2960EBE05F8C29784
:1013E400D296C296EF6004D2978002C297D296C278
:1013F40096C297D296C296E4FFE4FEED25E0FD92F4
:1014040097D296C2960EBE04F2C297E4FED296C25A
:09141400960EBE04F80FBF02E0C1
:01141D0022AC
:1014EB001213D07D01E4FF1213D4E4FDFC7F64FEE4
:1014FB001214707D06E4FF1213D47D0CE4FF02136B
:01150B00D40B
:061357001215D5E4FDFFB4
:04135D008F7C8D7D77
:101361007980E4FCE4FBE4FA7D34E4FF1213D4EB6E
:1013710025E024801213C2AD7C7F011213D4AD7C11
:101381007F011213D40ABA08DFE4FA7D34E4FF12B4
:1013910013D4EB25E024811213C2AD7D7F0112131A
:1013A100D4AD7D7F011213D40ABA08DF0BEB6410B0
:1013B10070B479880CEC640270AA7D36E4FF0213E4
:0113C100D457
:0414AD008E7C8F7D25
:1014B1001213D07D80E4FF1213D4E4FCE4FBEC753D
:1014C100F010A4FFEB7583002FFFE58335F0FEE5F7
:1014D1007D2FF582E57C3EF583E493FD7F011213B8
:0914E100D40BBB10D90CBC04D3E0
:0114EA0022DF
:1015D5001213D07D01E4FF1213D4E4FDFC7FB4FEA9
:0315E5000214707D
:10141E001214EBE4FDFF12135DE4FDFC7F32FE12AD
:10142E0014707E117F041214ADE4FDFC7F32FE12A7
:10143E0014707DE87C037FC81214701213577E114E
:10144E007F451214AD7F9612146A1213577E117FC8
:0A145E00861214AD1214680215D5B1
:03000B000209A443
:1009A400C0E0C0F0C083C082C0D075D008758CFC94
:1009B400758A180571E571700205700577E5777021
:1009C400020576E529640145286003020A6DE54FB6
:1009D4006401454E7038C3E561953DE53C6480F89B
:1009E400E5606480985006C292C2958004D292D287
:1009F40095C3E561940AE56064809480400675605F
:100A0400007561000561E561705F0560805BE54F1D
:100A1400454E7055E53D2401FFE4353CFEC3E55FDA
:100A24009FEE6480F8E55E6480985006C292C29599
:100A34008002D292E53D2402FFE4353CFED3E55F1B
:100A44009FEE6480F8E55E6480984002D295D3E519
:100A54005F940AE55E648094804006755E00755F6D
:100A640000055FE55F7002055EE5776464457660C6
:100A740003020B52E531640145306008E53164033B
:100A840045307008E56664034565600A0549E54933
:100A9400700C05488008052FE52F7002052EE52F00
:100AA4006432452E7026E531640145307005F53019
:100AB400753102E531640345307005F53075310454
:100AC400754800754900752E00752F00C3E54994DB
:100AD40010E548648094A740067548007549008570
:100AE4004876854977AE76AF777C037DE81208A611
:100AF400EF2430F56DAE76AF777C037DE81208A65F
:100B04008C768D77AE76AF777C007D641208A6EF85
:100B14002430F56CAE76AF777C007D641208A68C29
:100B2400768D77AE76AF777C007D0A1208A6EF2427
:100B340030F56BAE76AF777C007D0A1208A68C7612
:100B44008D77E5772430F564757600757700E57167
:100B540064E87004E57064036003020C15F570F535
:100B640071AC62AD63EC1207ECAB53AA52A951A865
:100B7400501206748F7B8E7A8D798C78E4FBFA7927
:100B84002078411206748F7B8E7A8D798C781208C6
:100B9400258E5A8F5BC3E55B9410E55A648094A755
:100BA4004006755A27755B0FAE5AAF5B7C037DE830
:100BB4001208A6EF2430F51FAE5AAF5B7C037DE824
:100BC4001208A68C5A8D5BAE5AAF5B7C007D641212
:100BD40008A6EF2430F51EAE5AAF5B7C007D64128C
:100BE40008A68C5A8D5BAE5AAF5B7C007D0A120856
:100BF400A6EF2430F51DAE5AAF5B7C007D0A1208C7
:100C0400A68C5A8D5BE55B2430F51C756200756318
:0C0C140000D0D0D082D083D0F0D0E032ED
:03001B00020D3A99
:100D3A00C0E0C0F0C083C082C0D075D010E54D6459
:100D4A0003454C701D0563E56370020562AF75AE1D
:100D5A0074AD73AC72AB53AA52A951A85012058351
:100D6A00801BE54D6404454C701BAF75AE74AD73C2
:100D7A00AC72AB53AA52A951A85012057F8F758E37
:100D8A00748D738C727F007E407D1C7C46AB75AA85
:100D9A0074A973A87212077A5014E4FFFEFDFCAB23
:100DAA0075AA74A973A87212077A6002500C757535
:100DBA0000757400757300757200AF75AE74AD730B
:100DCA00AC721208258E548F557C037DE81208A652
:100DDA00EF2430F51BAE54AF557C037DE81208A60C
:100DEA008C548D55AE54AF557C007D641208A6EF25
:100DFA002430F51AAE54AF557C007D641208A68CD7
:100E0A00548D55AE54AF557C007D0A1208A6EF24C6
:100E1A0030F519AE54AF557C007D0A1208A68C54E1
:100E2A008D55E5552430F518D0D0D082D083D0F036
:030E3A00D0E032D3
:100C2000E4F56EF56F12141E758961758CFC758A7A
:100C300018758BFF758DFF75B808C2AFD2A9D2ABFE
:100C4000D28CD28E12152C12000320B72C056FE522
:100C50006F7002056EAE6EFF7C007D021208A68CDE
:100C60006E8D6FE56E456F24FF92AF856E28856FA0
:100C700029B39292929512146830B603020D02E4E1
:100C8000F56EF56FC2AFF528F529D292D295C3E57E
:100C9000669403E56564809480500A0566E5667095
:100CA0000A05658006756500756601E5666401459F
:100CB000657014F5207521D1F5227523ADF52475E5
:100CC00025BCF5267527A3E566640245657014F515
:100CD000207521B1F5227523DCF5247525D5F5267F
:100CE0007527CFE566640345657014F5207521C648
:100CF000F5227523BDF5247525BAF5267527E21270
:100D00001468E56F6401456E6003020C47E5666494
:100D100001456570061212DA020C47E56664024569
:100D2000657006120F3C020C47E56664034565607A
:0A0D300003020C4712001E020C47DC
:10057C00020891E86480F8E933E83360110460F014
:10058C00ED33EC337009E8FCE9FDEAFEEBFF2204E5
:10059C0060DED3EB9FEA9EE99DE8C2E78CF0C2F7E0
:1005AC0095F0400CE8CCF8E9CDF9EACEFAEBCFFBAC
:1005BC0012085C85D0F05804700320D5B3E80470A1
:1005CC00075002B2D502089B92D5EC0460F7E4CC3C
:1005DC00C0E0C398F8603B94186008400DD0E0FB75
:1005EC00020873E4FBFAC9FC8028E830E406E4C98D
:1005FC00FBE4CAFCE830E305E4C9CACBFCE85407C9
:10060C006010F8C3E913F9EA13FAEB13FBEC13FCD3
:10061C00D8F130F52FC3E49CFCEF9BFFEE9AFEED76
:10062C0099FDD0E0FBEF4E4D4C701222DB0302081B
:10063C0098EC2CFCEF33FFEE33FEED33FDED30E7A1
:10064C00EB020873EF2BFFEE3AFEED39FDD0E0FB29
:10065C0050130BBB000302089BED13FDEE13FEEFD2
:08066C0013FFEC13FC020873FC
:10067400EC4D6011E8497017ED33EC3304600DE480
:10068400FCFFFEFD22E933E8330470F802089112FE
:10069400085C58046009E4CC2481500628500902FF
:1006A400089B284003020898C0E0EB4A7044B980D4
:1006B40006D0E0FB020887EF4E701CBD8008EBFFFC
:1006C400EAFEE9FD80EBE98DF0A4FEE5F002075DAA
:1006D400E9CDF9EAFEEBFFEF89F0A4FCE5F0CE8961
:1006E400F0A42EFFE435F0CD89F0A42DFEE435F01E
:1006F4008067EF4E7005BD80D780C3EF8BF0A4AC4C
:10070400F0EE8BF0A42CFCE435F0F8EF8AF0A42C86
:10071400E5F038FCE433CB8DF0A42CFCE5F03BF899
:10072400EE8AF0A42CFCE5F038F8E433CF89F0A489
:100734002CFCE5F038CF3400CE89F0A42FFFE5F08F
:100744003EFEE433C98DF0A42EFEE5F039CD8AF0E7
:10075400A42FFFE5F03EFEE43DFD33D0E0FB50075F
:100764000BBB000F02089BEC2CFCEF33FFEE33FEB7
:06077400ED33FD020873E5
:10077A0074F8CC6480CCC86480C8F582046043C332
:10078A00EB9FF5F0EA9E42F0E99D42F0E89C45F0C5
:10079A0060305018E5825FFFE582F42B5582FB50EA
:1007AA00210ABA001D09B90019088016E5825BFB07
:1007BA00E582F42F5582FF50090EBE00050DBD00DB
:1007CA00010CC3EB9FF5F0EA9E42F0E99D42F0E886
:0D07DA009C45F06007CC4820E701B3EC22FD
:1007E70075F020800E75F010800575F0087D007E8D
:1007F700007F003392D530D50312092BEC3340101C
:10080700EF33FFEE33FEED33FDEC33FCD5F0ED2295
:0E081700E5F0247EA2D513CC92E7CDCEFF22D1
:10082500EDD2E7CD33EC3392D524814006E4FFFECB
:10083500FDFC22FCE4CFCECDCC24E0501174FF802A
:10084500EDC3CC13CCCD13CDCE13CECF13CF0470C7
:07085500F030D5DE02092B93
:10085C00E9D2E7C933E833F892D5EDD2E7CD33ECE2
:07086C0033FC5002B2D5225B
:10087300EC30E7100FBF000C0EBE00080DBD0004E6
:100883000BEB6014A2D5EB13FCED92E7FD2274FF92
:10089300FCFDFEFF22E480F8A2D574FF13FC7D80EB
:0308A300E480EFFF
:1011D300020C20E493A3F8E493A34003F68001F206
:1011E30008DFF48029E493A3F85407240CC8C3331D
:1011F300C4540F4420C8834004F456800146F6DFEC
:10120300E4800B0102040810204080901253E47E16
:10121300019360BCA3FF543F30E509541FFEE493E0
:10122300A360010ECF54C025E060A840B8E493A3A7
:10123300FAE493A3F8E493A3C8C582C8CAC583CAD2
:10124300F0A3C8C582C8CAC583CADFE9DEE780BE8A
:0112D9000014
:1008A600C2D5EC30E709B2D5E4C39DFDE49CFCEE6D
:1008B60030E715B2D5E4C39FFFE49EFE12094FC38D
:1008C600E49DFDE49CFC800312094F30D507C3E488
:0608D6009FFFE49EFE22DC
:1008DC00E88FF0A4CC8BF0A42CFCE98EF0A42CFCBB
:1008EC008AF0EDA42CFCEA8EF0A4CDA8F08BF0A439
:1008FC002DCC3825F0FDE98FF0A42CCD35F0FCEB98
:10090C008EF0A4FEA9F0EB8FF0A4CFC5F02ECD395C
:0F091C00FEE43CFCEAA42DCE35F0FDE43CFC22C9
:0E092B00C3E49FFFE49EFEE49DFDE49CFC22DD
:10093900EB9FF5F0EA9E42F0E99D42F0EC6480C835
:0609490064809845F022D5
:10094F00BC000BBE0029EF8DF084FFADF022E4CC8C
:10095F00F875F008EF2FFFEE33FEEC33FCEE9DEC55
:10096F00984005FCEE9DFE0FD5F0E9E4CEFD22ED9B
:10097F00F8F5F0EE8420D21CFEADF075F008EF2FE5
:10098F00FFED33FD4007985006D5F0F222C398FDD6
:05099F000FD5F0EA2273
:00000001FF
