:1000030054696D65205365740044617461205365C0
:100013007400536F756E6420536574004469737084
:100023006C6179205365740043616D65726120537F
:100033006574004972646120536574004B6579628D
:100043006F726420536574004D6F7573652053653B
:1000530074003138000000000000000000004F0071
:100063000000000700070000147F147F1400242AF7
:100073007F2A120023130864620036495522500078
:10008300000503000000001C224100000041221C67
:10009300000014083E08140008083E080800005039
:1000A3003000000008080808080000606000000035
:1000B3002010080402003E5149453E0000427F40A3
:1000C30000004261514946002141454B310018145B
:1000D300127F10002745454539003C4A4949300005
:1000E3000171090503003649494936000649492982
:1000F3001E000036360000000056360000000814CB
:1001030022410000141414141400004122140800A6
:10011300020151090600324979413E007E11111155
:100123007E007F4949493E003E41414122007F41D3
:1001330041221C007F49494941007F090909010007
:100143003E4149497A007F0808087F0000417F410A
:1001530000002040413F01007F08142241007F40FE
:10016300404040007F0204027F007F0408107F00AC
:100173003E4141413E007F09090906003E415121AC
:100183005E007F09192946004649494931000101AA
:100193007F0101003F4040403F001F2040201F00DF
:1001A3003F4038403F00631408146300030478049D
:1001B3000300615149454300007F4141000015168A
:1001C3007C1615000041417F000004020102040077
:1001D30040404040400000010204000020545454B9
:1001E30078007F484444380038444444200038446D
:1001F30044487F00385454541800087E0901020013
:100203000C5252523E007F080404780000447D40A3
:1002130000002040443D00007F10284400000041BE
:100223007F4000007E020C027C007E0402027C0000
:100233003844444438007C14141408000814141877
:100243007C007C0804040800485454542000043FF4
:10025300444020003C4040207C001C2040201C00E7
:100263003C4030403C004428102844000C5050507F
:100273003C004464544C4400000836410000000034
:100283007F00000000413608000008040810080041
:1002930008082A1C0800081C2A08080004027F0218
:1002A300040010207F2010001C2A322A1C001C226C
:0302B30044221CC6
:0D060A007580FFC290D291D292AF80C29253
:0106170022C0
:0D0618007580FFD290D291D292AF80C29235
:0106250022B2
:0706400012060AEF20E7F9A2
:010647002290
:0405D600ED24B8FF59
:1005DA00AE07120640C290C2918E80D292C2922277
:1005EA00AE07120640D290C2918E80D292C2922257
:0205A300AD07A2
:1005A500D293D2947F401205DA1205D6E4FDE4FF1A
:0705B5001205EA0DBD40F73D
:0105BC00221C
:10042400EF7006D293C2948010BF0106C293D29497
:100434008007BF0204D293D2947F401205DA7FB8BA
:100444001205DAE4FD1205D6E4FCE4FF1205EA0C19
:07045400BC40F70DBD08EEEE
:01045B00227E
:1004E200EDC394085006D293C294800874F82DFD8F
:1004F200C293D294EF24B8FF1205DAED75F008A486
:060502002440FF0205DAAF
:10052D00EDC394405006D293C294800874C02DFD43
:10053D00C293D294EF24B8FF1205DAED2440FF02E6
:02054D0005DACD
:040626007BFFAF089F
:0A062A00AC0312052DAF040205EA2F
:10056D001204E2120618E4FE120618EF1204A77424
:0A057D000129F9E43AFA0EBE08EE77
:010587002251
:1004B9001204E2E4FD75F006EBA42498F582E5F058
:1004C90034FFF583E5822DF582E43583F583E493E2
:0804D900FF1205EA0DBD06DD6E
:0104E10022F8
:04045C007BFF7D01A4
:100460008F0A8B0B8A0C890DAC05AB0BAA0CA90D5E
:1004700012048E6018AD040C050DE50D7002050C1C
:0E04800014F912048EFBAF0A1204B980DD22BB
:040508008F0DAC05A2
:10050C007B007A00790E12056DAD04AF0D1204E27A
:10051C00E4FD740E2DF8E6F4FF1205EA0DBD08F2A9
:01052C0022AC
:0603E6008F168D178B1825
:1003EC007B007A00791912056DAD17AF161204E275
:1003FC00E5186012E4FC74192CF8E64480FF120531
:10040C00EA0CBC08F122E4FC74192CF8E6547FFFCA
:07041C001205EA0CBC08F117
:0104230022B6
:0306540002050894
:030657000203E6B5
:1005BD008F0A8D0B8B0CAF0C150CEF600BAD0B0573
:0905CD000BAF0A12065480EE2265
:100588008F218D228B23AF231523EF600DAD22051C
:0B05980022AB24AF2112065780EC229A
:10054F007F021204247F3E1205DA7FB81205DA7F8C
:0E055F00C01205DA7F401205DA7F3F0205DA8E
:07064800C295D29502054F97
:04064F007F37DFFE14
:010653002284
:0F05FA007E047DF8B2B612064FDDF9DEF5D2B6FB
:0106090022CE
:1002B6001206487F021204247BFF7A0079037D012F
:1002C600E4FF1204607A00790C7F0112045C7A0064
:1002D60079157F0212045C7BFF7A00791F7D017F0E
:1002E600031204607BFF7A00792B7D017F041204E0
:1002F600607BFF7A0079367D017F051204607BFF03
:100306007A00793F7D017F061204607BFF7A0079CF
:100316004B7D017F07120460E4F5087B7FE4FDAFA7
:10032600081204B90508C3E5086480948840EC7B8C
:10033600817D0EE4FF1204B90B7D0E7F071204B90E
:100346007B0CE4FDFF1205BD7BFF7A0079557D0C21
:10035600E4FF1204607BFF7D67E4FF12062AE4F5E2
:10036600087D7D1206260508C3E50864809488404A
:10037600F0E4F5087BFF7D7FAF0812062A0508C367
:10038600E5086480948840ECE4F5087BFF7D7EFFF9
:1003960012062AE5096508602F7B0CE4FDAF0912F9
:1003A60005BD7B0CE4FDAF081205BDE4FB7D7EAF09
:1003B6000912062A7D7E120626E5082431FB7D0CED
:1003C600E4FF1204B985080920B5081205FA1508D4
:1003D60053080720B4BD1205FA050853080780B371
:03000000020634C1
:0C063400787FE4F6D8FD7581240202B640
:10048E00BB010689828A83E0225002E722BBFE026C
:09049E00E32289828A83E493229F
:1004A700BB010689828A83F0225002F722BBFE0134
:0204B700F3222E
:00000001FF
