:100882007589018F8C8D8A8F088D09D2AFD2A9D23A
:020892008C22B6
:1008000030900E30910B309208D293D294D295D280
:100810009620900620910330920920900D30910A85
:100820002092077DFF7FFF12088230900D20910AF1
:100830002092077DE37FFF12088220900D20910A0D
:0B0840003092077DE37FFF1208822248
:10089400120800D2B6D2B7D293D294D295D296800F
:0108A400EF64
:03000B0002084B9D
:10084B0085088C85098A2090062091033092092017
:10085B00900A309107209204C294C29630B70A20B6
:10086B009107209204C294D29620900A20910730CF
:07087B009204D294C29632F0
:030000000208A54E
:0C08A500787FE4F6D8FD75810902089404
:00000001FF
