:020000000C945E
:10000200A8000C9400000C9400000C9436010C948F
:1000120000000C9400000C9400000C9400000C945E
:1000220000000C9400000C9400000C9400000C944E
:1000320000000C9400000C9400000C9400000C943E
:1000420000000C9400000C9400000C94D8000C9456
:1000520000006E0074007A00800086008C0093001D
:100062009A00A100A700AE00B500BC0073746570D1
:10007200410073746570420073746570430062617D
:10008200636B20006F76657220006E6F726D616C1B
:1000920000616476616E630064656D6F20200066A6
:1000A2007269737400736563202020007472656541
:1000B200202000666F757220200066697665202018
:1000C200007072657373205354415254206B6579EA
:1000D200007A686F6E6720626569206461207875B6
:1000E2006520006D6F64653A0073656C656374200A
:1000F2006D6F6465006D696E633A20207365633AC3
:10010200200042616C616E3A006D696E3A20207384
:1001120065633A200020202020202020202020205B
:1001220020202020202020202020202020202020CD
:10013200202020202020202000000A0066015400F8
:10014200060070015E000A00760164000000F89467
:10015200EE27ECBBF1E0FBBFEBBFE5BFF8E1F1BD81
:10016200E1BD8DE0A2E0BB27ED938A95E9F780E03F
:1001720094E0A0E6ED930197E9F7ECE3F1E08591D5
:100182009591009761F0A591B59105901590BF01E9
:10019200F00105900D920197E1F7FB01F0CFEFE539
:1001A200EDBFE4E0EEBFC0E6D1E00C940B040A928E
:1001B2001A92FA926A937A938A939A93AA93BA9327
:1001C200EA93FA93EFB7EA93E0916001E43031F4F5
:1001D2000E94A20511F00E94AB0515C0E43831F46B
:1001E2000E94A20511F00E94AB0502C0E03861F442
:1001F2004394EAE0E41539F44424AA9AE0916001B8
:10020200E058E093600102C0E03009F50E948D05DC
:10021200E0936101E0936401EBE00E94D005EF708E
:100222000E94D605EAE00E94D005E295E7700E949E
:10023200D6050E949705E0936201E0916201E09386
:100242006401E4E00E94D005EF700E94D605E991B6
:10025200EFBFF991E991B991A99199918991799118
:100262006991F990199009901895EA93EFB7EA937A
:10027200919B11C0869B03C0EFB5E06402C0EFB54D
:10028200EF7BEFBD879B03C0EFB5E06102C0EFB526
:10029200EF7EEFBD10C0829B03C0EFB5E06402C0E9
:1002A200EFB5EF7BEFBD839B03C0EFB5E06102C00A
:1002B200EFB5EF7EEFBDE991EFBFE99118951A9383
:1002C200E0E6E7B9E2ECE6B9349BFECF15B134982B
:1002D2003798E12F51C1AA98E4EFF1E00E94DA05C4
:1002E200AA9A0895EDE75E1618F0E0E8E51508F41D
:1002F20002C0E0E00895ECE75E1618F0E1E8E515CB
:1003020008F402C0E1E00895EBE75E1618F0E2E8B7
:10031200E51508F402C0E2E00895EAE75E1618F077
:10032200E3E8E51508F402C0E3E00895E9E75E16A4
:1003320018F0E4E8E51508F402C0E4E00895E8E7FF
:100342005E1618F0E5E8E51508F402C0E5E0089548
:10035200E7E75E1618F0E6E8E51508F402C0E6E005
:100362000895E6E75E1618F0E7E8E51508F402C01E
:10037200E7E00895E5E75E1618F0E8E8E51508F409
:1003820002C0E8E00895E4E75E1618F0E9E8E51532
:1003920008F402C0E9E008950895ED81EBBDEC8117
:1003A200EABDED81E9BDEC81E8BDEFE75E1618F428
:1003B2009198909802C0919A909A0E94DE05EA81E3
:1003C200FB810E94DA050E94E505EFE75E1618F44C
:1003D200919A909A02C0919890980E94DE05E881C5
:1003E200F9810E94DA050E94E505269608950E9489
:1003F2008F0611E030E00E9460015E2E0E947301C0
:100402000E2F0E947301E03041F40E94E5053A305C
:1004120010F43F5F01C010E060C0E13061F430E0F1
:10042200E3E0EA93EFEFEA93E0E9F1E0FA93EA938B
:10043200EEE5F1E04EC0E23039F40E94EC05E0E274
:10044200F3E00E94F20545C0E33039F40E94EC0566
:100452000E94F705E0E2F3E03CC0E43039F40E9488
:10046200EC05E4E8F3E00E94F20533C0E53039F42C
:100472000E94EC050E94F705EAE8F2E02AC0E630A5
:1004820039F40E94EC050E94F705E8E5F2E021C08C
:10049200E73039F40E94EC05E8EEF3E00E94F20541
:1004A20018C0E83049F40E94EC05E8EEF3E0FA9354
:1004B200EA93E8E5F2E00DC0E93001F430E0E2E071
:1004C200EA93EFEFEA93E8EEF3E0FA93EA93E4EFCC
:1004D200F1E0FA93EA930E94CE01E8ECF0E00E9488
:1004E200DA05103009F087CF0E9494062496089509
:1004F2001A9310E00E94FC05E3ECF0E00E94000673
:100502000E940406E3EDF0E00E9400069E99FECFF1
:100512009E9BFECF0E9429050E94FC05E5EEF0E0BD
:100522000E9400060E940406EBEEF0E00E94000624
:10053200E6E0EA93E0E0EA93E0917001F091710164
:100542000E9400060E9409069F990FC09F9BFECF42
:100552001F5F133009F410E0E6E0EA93E0E0EA936B
:10056200E12FA0E7B1E00E940C069E99EDCF9E9B81
:10057200FECF0E942905E12F199108950E94FC05E2
:10058200E7EFF0E00E9400060E940406E091660197
:10059200F09167010E9400060E9409060E9414065B
:1005A200909891980E941706E0EDF7E00E94DA0514
:1005B2000E942006EAE0E5BD7894A0916101A43191
:1005C200E1F70E940406E0916801F09169010E943E
:1005D2000006F8940E9414067894E0E0E5BD0E94BB
:1005E2002906F8940E9480050E940406E0916A019F
:1005F200F0916B010E9400060E943206E0916001B8
:10060200EC5FE09360017894A0916101A53049F418
:10061200E0916001E450E0936001F8940E9480054B
:100622007894A0916001A43011F0A43811F40C94D4
:100632000503F8940E9420067894909891980E945D
:10064200DE05EAE0E5BD829902C0839B01C0FBCFD3
:10065200F8940E94E505E0E0E5BD0E94140683E0FF
:100662008A95F1F77894909A919AA0916101A530B8
:10067200E1F70E940406E0916C01F0916D010E9485
:1006820000060E946C010E941706EAE0E5BDE0ED5B
:10069200F7E00E94DA050E942006869902C0879B35
:1006A20001C0FBCF0E946C010E940406E0916E0122
:1006B200F0916F010E940006F8940E94E5050895EA
:1006C2001A930A9300E011E00E94FC05EBE0F1E0CE
:1006D2000E9400060E948005909891980E94DE0573
:1006E2007894103029F0829910E0839910E0F9CFC4
:1006F200EAE0E5BDA0916101A133E0F30E9460014F
:10070200EF37E0F3E0E0E5BD0E942906F8940E948D
:100712000406E02FA6E7B1E00E940C060E94320612
:10072200E0916001EC5FE093600178940E946001C7
:10073200E13820F40E946001EC3708F401C0F6CFE2
:10074200E0916001E450E0936001E0E0E093650134
:100752000E940406E7E1F1E00E940006053010F471
:100762000F5F01C000E00C9485031A9311E00E9410
:10077200FC05EBE0F1E00E9400060E9480059198E2
:10078200909A0E94DE05789411E0103029F0829947
:1007920010E0839910E0F9CF0E943906E8E8F3E10E
:1007A2000E94DA05E8E8F3E10E94DA05E0E0E5BD3F
:1007B2000E94E5059098919A0E94DE0511E0E0E121
:1007C200F7E20E94DA05103029F0829910E083994D
:1007D20010E0F9CF0E943906E0E4FFE10E94DA0559
:1007E200E0E0E5BD0E94E505909A91980E94090615
:1007F2000E94DE0511E0E8E2F3E20E94DA05103021
:1008020029F0829910E0839910E0F9CF0E9439060D
:10081200199108950E94D3040E94E9040E94E204FF
:100822000E94F4040E9408050E9400050E945605D9
:10083200EAE0F0E00E94DA050E942905E1E0F0E03A
:100842000E94DA050E9479021E2FE12FE03019F48E
:100852000E94BF0209C0E13019F40E94610304C082
:10086200E23011F40E94B603FFCFFFCFE4EAE6BF05
:10087200E6B7E078E038E1F7E1B1E87FE83011F07F
:10088200E1E08EC0EA81E3B9E4E8E6BFE6B7E078EA
:10089200E038E1F7E1B1E87FE83111F0E2E080C051
:1008A200E981E3B9E4E8E6BFE6B7E078E038E1F7EA
:1008B200E1B1E87FE83211F0E3E072C0E881E3B928
:1008C200E4E8E6BFE6B7E078E038E1F7E1B1E87FD7
:1008D200E83211F0E4E064C0E4E9E6BFE0E060C0C1
:1008E2001A93E4EAE6BFE6B7E078E038E1F7E1B16F
:1008F200E87FE83019F0E1E0188152C0EA81E3B9FB
:10090200E4E8E6BFE6B7E078E038E1F7E1B1E87F96
:10091200E83119F0E2E0188143C0E981E3B9E4E883
:10092200E6BFE6B7E078E038E1F7E1B1E87FE83228
:1009320019F0E3E0188134C0E4EAE6BFE6B7E078F4
:10094200E038E1F7E1B1E87FE03119F0E4E0188145
:1009520027C0EA81EF5FE3B9E4E8E6BFE6B7E078F3
:10096200E038E1F7E1B1E87FE03419F0E5E0188121
:1009720017C0E4E8E6BFE6B7E078E038E1F7E1B1B6
:10098200E87FE03501F013B1E4E8E6BFE4E9E6BF51
:10099200E1E0F0E00E94DA05E0E8E6BFE12F18812D
:1009A20023960895EEEFEBBBEABBE0E0E8BBE7BBC2
:1009B200E7EFE5BBE7E0E4BBE0E0E2BBE3E3E1BB9A
:1009C2000895E0E0EFBDEAE0EEBD0E942006089542
:1009D200E0E0E3BFE2BFE9E7ECBFE9B7E260E9BF0D
:1009E200EDE0E3BF0895E0E0E5BDE2BDE4BDEEE386
:1009F200E3BDE9B7E068E9BFE0E0E5BD0895E0E006
:100A0200E5BFE0E8E4BFE8B9E0E0E0BF0895E0E078
:100A1200E6BFE5E1E0B9E1E0E1B9E4E0E6BF08956F
:100A2200E881E03019F4E981E05802C0E981E0543C
:100A3200EA9302D022960895D9980E943E0683E056
:100A42008A95F1F703C0D99A0E943E06219608952D
:100A5200E1E00E945D0608951A9310E0EC81EA93AA
:100A6200EC81EA930E941105E981FA81E491E03078
:100A720069F0E981FA81E491EA930E9424051F5FFB
:100A8200E981FA813196E983FA83EECF18812596BE
:100A92000895EA81EA93EA81EA930E941105E881C6
:100AA200EA930E94240523960895E8E20E945D06D7
:100AB2000E9463060E946306E8E2EA930E941D0513
:100AC200E8E0EA930E941D05E1E0EA930E941D0519
:100AD200E6E0EA930E941D05E5E0F0E00E94DA05F7
:100AE200ECE0EA930E941D050895E2EAEA93EA81A6
:100AF200EA93EA81EA930E943704229608957BD012
:100B0200E8D0E2E0EA93E0E0EA93E3D0E3E0EA93BC
:100B1200E0E0EA93EADF08951A93E2EAEA93E2E078
:100B2200EA930E9471041E2FE12F09C01A93E2EA90
:100B3200EA93E3E0EA930E9471041E2FE12F1991D8
:100B42000895EADFE0936101E0916301A091610100
:100B5200EA170895E0916501EF5FE0936501E150C6
:100B6200EDE0EA93E1E0EA93A0916501EAE00E94F8
:100B72008806E05DEA930E944A05ECE0EA93E1E030
:100B8200EA93A0916501EAE00E947A06E05DEA93A9
:100B92000E944A05E0916101E09363010895EA939E
:100BA200E0E0EA93E09164010895E05DEA930C9439
:100BB2004A05FA93EA930C946E06EFB5E064EFBD32
:100BC200EFB5E061EFBD0895EFB5EF7BEFBDEFB597
:100BD200EF7EEFBD089530E0E2E0EA93EFEFEA93B3
:100BE2000895FA93EA93ECEBF2E00895E4E8F3E077
:100BF200FA93EA930895E0E0EA93EA930895FA9368
:100C0200EA930C942D05E0E0EA93E1E0EA9308957B
:100C1200E8EEF3E0CECFF0E0EE0FFF1FAE0FBF1F06
:100C22000E948B06ECCF0E946C0169CFE2E0EBBD23
:100C3200EFEFEABDE2E0E9BDEFEFE8BDBECFE1E0F4
:100C4200EBBDEFEFEABDE1E0E9BDEFEFE8BD0895EE
:100C52000E94F801AA98E0916001E058E0936001D7
:100C62000895E6E0EA93E1E0EA93E4E0F1E0C7CF39
:100C720090989198EAE0E5BD0895DA98DB9AEBB393
:100C8200EF70EBBBEBB3AE2FE881E07FEA2BEBBB5F
:100C9200E881E295E07FE883DB9883E08A95F1F7CB
:100CA200DB9AEBB3EF70EBBBEBB3AE2FE881E07FE7
:100CB200EA2BEBBBDB980895EA930E941D05EFE057
:100CC200F0E077CFE8E2EA930E941D05E5E0F0E06C
:100CD20070CF0BDFE2E0F0E06CCFE991F991309652
:100CE20039F08AEF90E00197F1F7A8953197C9F7AB
:100CF2000895002498E0AA0F001C0E1A10F40E0E9C
:100D020001C0A1609A95B9F7EA2FA02D0895F1DFED
:100D1200EA2F0895ED91FC91119708953A932A9341
:100D22001A930A9308953B812A81198108810895B3
:00000001FF
