:0300000002156F77
:0C156F00787FE4F6D8FD75813C0215B6CB
:10000600452D4D61696C3A2020202020202020209B
:10001600002073686568756E31323530353636398D
:1000260020002020202020403132362E636F6D20A4
:100036002020005151204E756D6265723A202020B5
:100046002020200020202031323530353636392028
:10005600202020200000000000000000000000001A
:100066000000000000000038FCFC38000000000022
:100076000D0D000000000E1E00001E0E0000000008
:10008600000000000020F8F820F8F82000020F0F0A
:10009600020F0F0200387C444747CC980003060441
:1000A6001C1C07030030300080C06030000C0603C3
:1000B60001000C0C0080D87CE4BCD84000070F0877
:1000C60008070F080000101E0E00000000000000C8
:1000D60000000000000000F0F80C0400000000031F
:1000E600070C0800000000040CF8F00000000008EF
:1000F6000C0703000080A0E0C0C0E0A0800002035F
:100106000101030200008080E0E080800000000022
:1001160003030000000000000000000000000010C3
:100126001E0E00000080808080808080000000001D
:1001360000000000000000000000000000000000B9
:100146000C0C00000000000080C06030000C0603AC
:100156000100000000F8FC04C424FCF800070F09A5
:1001660008080F0700001018FCFC00000000080833
:100176000F0F080800080C84C4643C18000E0F0911
:1001860008080C0C00080C444444FCB800040C0895
:1001960008080F0700C0E0B098FCFC8000000000D3
:1001A600080F0F08007C7C4444C4C48400040C0877
:1001B60008080F0700F0F84C4444C08000070F08F9
:1001C60008080F07000C0C0484C47C3C0000000FD8
:1001D6000F00000000B8FC444444FCB800070F08B8
:1001E60008080F0700387C444444FCF8000008085F
:1001F600080C07030000000030300000000000007B
:100206000606000000000000303000000000000874
:100216000E060000000080C06030180800000001D3
:1002260003060C08004040404040404000020202E5
:1002360002020202000008183060C0800000080CAC
:100246000603010000181C04C4E43C18000000006A
:100256000D0D000000F0F808C8C8F8F000070F08F8
:100266000B0B0B0100E0F0988C98F0E0000F0F00EC
:1002760000000F0F0004FCFC4444FCB800080F0FFC
:1002860008080F0700F0F80C04040C180003070C0C
:1002960008080C060004FCFC040CF8F000080F0F1C
:1002A600080C07030004FCFC44E40C1C00080F0FB8
:1002B60008080C0E0004FCFC44E40C1C00080F0F9C
:1002C6000800000000F0F80C84848C980003070CEA
:1002D6000808070F00FCFC404040FCFC000F0F0024
:1002E60000000F0F00000004FCFC040000000008E2
:1002F6000F0F08000000000004FCFC0400070F08B4
:10030600080F07000004FCFCC0F03C0C00080F0FAF
:1003160000010F0E0004FCFC0400000000080F0F93
:1003260008080C0E00FCFC387038FCFC000F0F00AF
:1003360000000F0F00FCFC3870E0FCFC000F0F0003
:1003460000000F0F00F0F80C040CF8F00003070C87
:10035600080C07030004FCFC44447C3800080F0F1B
:100366000800000000F8FC040404FCF800070F086D
:100376000E3C3F270004FCFC44C4FC3800080F0F69
:1003860000000F0F00183C6444C49C1800060E08B9
:1003960008080F0700001C0CFCFC0C1C00000008E1
:1003A6000F0F080000FCFC000000FCFC00070F0813
:1003B60008080F0700FCFC000000FCFC0001030617
:1003C6000C06030100FCFC008000FCFC00030F0E81
:1003D600030E0F03000C3CF0C0F03C0C000C0F03A6
:1003E60000030F0C00003C7CC0C07C3C00000008F1
:1003F6000F0F0800001C0C84C4643C1C000E0F097F
:1004060008080C0E000000FCFC0404000000000FAD
:100416000F080800003870E0C080000000000000EF
:100426000103070E0000000404FCFC0000000008A5
:10043600080F0F0000080C0603060C080000000059
:100446000000000000000000000000000020202046
:1004560020202020200000030704000000000000E8
:10046600000000000000A0A0A0E0C00000070F08E8
:1004760008070F080004FCFC2060C08000080F0776
:1004860008080F0700C0E0202020604000070F0882
:1004960008080C040080C06024FCFC0000070F085C
:1004A60008070F0800C0E0A0A0A0E0C000070F08E2
:1004B60008080C040040F8FC440C180000080F0F54
:1004C6000800000000C0E02020C0E02000276F48A0
:1004D600487F3F000004FCFC4020E0C000080F0FEE
:1004E60000000F0F00000020ECEC000000000008E8
:1004F6000F0F0800000000000020ECEC0000307038
:1005060040407F3F0004FCFC80C0602000080F0FC5
:1005160001030E0C00000004FCFC000000000008B3
:100526000F0F080000E0E060C060E0C0000F0F00A1
:100536000F000F0F0020E0C02020E0C000000F0FCA
:1005460000000F0F00C0E0202020E0C000070F08C9
:1005560008080F070020E0C02020E0C000407F7F91
:1005660048080F0700C0E02020C0E02000070F0861
:10057600487F7F400020E0C0602060C000080F0F69
:10058600080000000040E0A02020604000040C09A4
:10059600090B0E04002020F8FC20200000000007B4
:1005A6000F080C0400E0E00000E0E00000070F0880
:1005B60008070F080000E0E00000E0E00000030785
:1005C6000C0C070300E0E0000000E0E000070F0C61
:1005D600070C0F07002060C080C0602000080C07D1
:1005E60003070C0800E0E0000000E0E000474F4889
:1005F60048683F1F00606020A0E06020000C0E0BE2
:1006060009080C0C00004040F8BC0404000000007F
:10061600070F080800000000BCBC00000000000036
:100626000F0F000000000404BCF84040000008085A
:100636000F07000000080C040C080C040000000062
:10064600000000000080C0603060C0800007070422
:10065600040407070001020408102040800000007F
:100666000000000000000000027EFC300000800058
:10067600000000000000000030307060E0E03F96AF
:10068600180C0C0C0C00000000000000000000001C
:100696000000000000000000000000000000000054
:1006A6000000000000000000000000000000000044
:1006B6000000000000000000000000000000000034
:1006C6000000000000008000004080000000800064
:1006D6000000000000000000000000000000000014
:1006E60000000078F0E08080C0E07F393C1E0F0FEC
:1006F600FEE000000000C0E06000189C1F080CFF30
:100706000607232120E0C0800000000000000080D2
:1007160080C080808080F04040E000808000000043
:10072600008040306CA010E0201E34D01000000085
:100736000000000080808080BEC0404040402020F5
:100746000000000060101051564849A86C3B080490
:100756000C04000000000000000000000000000083
:10076600000000000001010100000000000000017F
:100776000101000000000101010000010306070756
:1007860002000000000303010000000000000090CA
:100796008EC93CA2A2AAAFF5555341400000000005
:1007A6000005848C744222F70A11317F8000408054
:1007B6000000000080402018070102041820C0C075
:1007C6008000000000040402020222433E010101EF
:1007D6000101000000000000000000000000000011
:1007E6000000000000000000000000000000000003
:1007F60000000000000000000000000000000000F3
:1008060000000000000000000000000000000804D6
:100816000300010202020407040808080808000091
:1008260000010000040201000000000001020101B5
:1008360000000001000000000000000000000000B1
:1008460000000000000000000000000000000000A2
:100856000000000000000000000000000000000092
:10086600000000000000001010FE04C4B4978C4481
:10087600000000008004BC6AB72A7E808000000069
:1008860000809AA4A454F4100000000000F868FB4D
:1008960054543C000000000008042B2424F40200F9
:1008A6000000000000040404FC04040080000000B2
:1008B60068FE0A1927EAAA67000000001888567819
:1008C600FA56494804000000FE4E3AA664F32C048A
:1008D6008000000000000000000000000000000092
:1008E60000000000000000000003000302020100F7
:1008F60000000000010000010202030000000000E9
:1009060000000000000201000000000000000001DD
:1009160002020203000000000000000000000102C5
:1009260003000000010101010001010100000000B7
:1009360000010000020102020100000000000000A8
:100946000300000000000000030002010001020293
:100956000100000000000000000000000000000090
:100966000000000000000000000000000000000081
:100976000000000000000000000000000000000071
:10098600004828FF14A2BEAA957FD1100010D4B249
:100996008A7C54FFAA3E8000000004040404FC0282
:1009A60002020000002010FC23100CFBA854540483
:1009B60000000C547455CABAAA06020000000000D2
:1009C6000000000000000000000000000000000021
:1009D6000000000000000000000000000000000011
:1009E6000000000000000000000000000000000001
:1009F60000000000000000000000000000000000F1
:100A060000000207000405020502050400000000BC
:100A160004020100030505060002020202020101AA
:100A260001010101000000070000000700000000AE
:100A36000000040405050302020202000000000093
:100A460000000000000000000000000000000000A0
:100A560000000000000000000000000000FF01018F
:100A6600010101010101010101018181C1414141F0
:100A760021211111113161C303030101010101019A
:100A86000101010101010101010103030303030146
:100A9600010101010101010101010101010303033A
:100AA600FF05FFFF0000000080C070FC1C0E030164
:100AB6000100E0D078DC7800000000000003FC00B4
:100AC6000000808080C04040202020202020202060
:100AD60020202020202020202060C0800000000050
:100AE600000000000000FF00FFCF0000F01C7F00A8
:100AF600000000000000F07FFF0001000080808001
:100B06008000000001838381810000000000000056
:100B16000080C0603038180C0C1CB878F00000005B
:100B26000001030E38E00000000000001FE0FFFF98
:100B36000000FF000000000000000000FFFF0100B1
:100B46003E637FC1810103078EFCF800030F39C0A5
:100B56000080F0FF3F06FFF18180808080C0E0705A
:100B66002F1F0F0000000000000000C03F00000023
:100B7600000000F93FFF0000FF0000000000000039
:100B860000000F1B1F1E1A1F0000010101030301B5
:100B96000100000000030F0F030000000001010325
:100BA600030207060604040C8CCC4C6C3C1C0C0699
:100BB60003010000000000000003FCFF0000010F1D
:100BC6003CF80000000000000000000000000000EB
:100BD600000000000000000000000080808040400F
:100BE60040404020202010180804040202010100A1
:100BF60000000000000000000000000000000000EF
:100C0600FFFFE0C0808080808F98908A88888484E7
:100C16008484848686868282838383838181C1C11C
:100C2600C18080808080808080808080808080807D
:100C360080808080808080808080808080808080AE
:100C46008080808080C0FF4D656E7554657374200A
:100C56002020202020202000436F6E7461637420C2
:100C66002020202020202020004C696E65546573CA
:100C760074202020202020202000526563745465B3
:100C86007374202020202020202000496D616754A5
:100C960065737420202020202020200043616E638D
:100CA600656C2020202020202020202000556E6901
:100CB6007665726369747920202020202000452DF6
:100CC6004D61696C2020202020202020202000510A
:100CD60051204E756D626572202020202020200054
:100CE60043616E63656C2020202020202020202078
:100CF600002020202020202020202020202020200E
:100D0600200000010102FF171E01000006FF177DEB
:100D16000203050AFF19DB0304020BFF1A2B040565
:100D2600030CFF15FB05020400FF1A7B0607090DDD
:100D3600FF18000708060EFF185F0809070FFF16C1
:100D46005C09060801FF18BE0A020202FF1CDB0B43
:100D5600030303FF1BF30C040404FF1CB70D060674
:100D660006FF1CFE0E070707FF191D0F080808FFE0
:100D7600197C0000000000000000000000000000D8
:0317FC00010800E1
:0B1CEC00EF1FAC0670011E4C70F622CA
:1017DC00E4FDFCC3ED9FEC9E5015E4FBFA0BBB0043
:0F17EC00010ABA03F8BBE8F50DBD00010C80E45B
:0117FB0022CB
:101C2F00EF14600C14600E2402700EC291C2902249
:0A1C3F00D291C29022C291D29022ED
:101BAD007580FFD293C292D294D294C2947580FF65
:101BBD00D293C292D294AF807580FFEF30E703D3FA
:071BCD008001C350F1C29436
:011BD40022EE
:101B8100ED75F080A4FFEC7A002FFFEA35F0FEE559
:0C1B9100302FF582E52F3EF583E493FF32
:101B9D00AE07121BADD292C2938E80D294C2942204
:071C7B007F01121C2F7F3FC7
:101C8200AE07121BADC292C2938E80D294C294222E
:101BD500121BAD7580FFD292D293D294D294C29447
:0D1BE5007580FFD292D293D294AF80C2944B
:011BF20022D0
:101C4900C2957F327E00121CECD295E4FF121C2F44
:0A1C59007F3E121C827F3F021C82B6
:0B1CA500121C2FED75F0081210E3FF79
:071CB000EF24B8FF021C82C3
:071CF700EF2440FF021C82F4
:101C6300121C2F7F3F121C82E52F04FF121CB0E4CD
:011C7300FF71
:071C7400EF24C0FF021C82F7
:101B0B00E4FF121C2FE4FDFC7F3F121C82AF051279
:101B1B001CB07F40121C82E4FF121C74E4FBFAE43D
:101B2B00FF121B9D0BBB00010AEB64404A70F00DCA
:0A1B3B00BD00010CED64084C70CEF3
:011B4500227D
:02141800AB0720
:10141A00C3EB648094C0504D7F01121CA5AF031228
:10142A001CF7121BD5AC07ED75F00830051A12101F
:10143A00E3AFF0EF3395E0FE745B2FF58274063E5E
:10144A00F583E493420480191210E3AFF0EF339569
:10145A00E0FE745B2FF58274063EF583E493F45242
:10146A0004AF038060EBFF3395E0FEC3EF9480EE98
:10147A006480948050577F02121CA5EB24C0FF128F
:10148A001CF7121BD5AC07ED75F00830051A1210BF
:10149A00E3AFF0EF3395E0FE745B2FF58274063EFE
:1014AA00F583E493420480191210E3AFF0EF339509
:1014BA00E0FE745B2FF58274063EF583E493F452E2
:0D14CA0004EB24C0FF121CF7AF04121B9DA1
:0114D70022F2
:061335008F338D348B356F
:10133B00E53365357034E534D39536401285333853
:10134B00853533853835853438853634853836855B
:10135B003437E537D3953640028117A2049205AD99
:10136B0037AF33121418053780E8E533D395354082
:10137B0012853338853533853835853438853634A1
:10138B00853836C3E5359533FDE49400FCE4121043
:10139B0029C004C005C006C007C3E5369534FDE47B
:1013AB009400FCE4121029D003D002D001D000121B
:1013BB000F878F3C8E3B8D3A8C39E4F537C3E5357F
:1013CB009533FFE537C39F5043E5332537FFC00700
:1013DB00AC37E412102EAB3CAA3BA93AA839120E3B
:1013EB007EC004C005C006C007AC34E412102ED07A
:1013FB0003D002D001D000120D8D121062AD07A2E6
:0C140B00049205D007121418053780B1B8
:0114170022B2
:101ACB008F2F8D308B31853036A203920412133554
:101ADB00853236A2039204AB31AD30AF31121335E0
:101AEB00853236A2039204AB2FAD32AF31121335D0
:101AFB00853036A2039204AB2FAD32AF2F021335D4
:1011460075320075335B7534FF75350C753691D283
:07115600037B10E4FD7F04A0
:06115D008F2F8D308B3155
:10116300E4F537E537C3953140026134AB34AA3532
:10117300A93685378275830012110524E0FDE4FC4E
:10118300E53775F008A47A002530FFEA35F0FEEC68
:101193002FFFEA3EFEC3EF9440EE64809480504AF2
:1011A300121C7BAF2F121C6FE53775F008A4253096
:1011B3002CFF121CF7ED75F010A4FFEC3003142F75
:1011C300FFEA35F0FEE5332FF582E5323EF583E4A1
:1011D3009341597A002FFFEA35F0FEE5332FF5826C
:1011E300E5323EF583E493F4806CE53775F008A4AB
:1011F3007A002530FFEA35F0FEEC2FFFEA3EFEC30E
:10120300EF9480EE6480948050507F02121C7DAF77
:101213002F121C6FE53775F008A425302C24C0FF6E
:10122300121CF7ED75F010A4FFEC3003142FFFEA46
:1012330035F0FEE5332FF582E5323EF583E4938006
:10124300157A002FFFEA35F0FEE5332FF582E532FC
:101253003EF583E493F4FF121B9D0CEC64086002DB
:1012630021837C08E53775F008A425302C24F8F990
:10127300C394405055E52F2401FFE433FEC3EF949C
:1012830008EE64809480400261287F01121C63E5AC
:101293003775F008A425302C24F8FF121CF7ED75E0
:1012A300F010A4FFEC7A002FFFEA35F0FEE5332FB0
:1012B30030030BF582E5323EF583E4938063F582D8
:1012C300E5323EF583E493F48057E9C394805055A7
:1012D300E52F2401FFE433FEC3EF9408EE6480940A
:1012E3008050427F02121C63E53775F008A4253055
:1012F3002C24B8FF121CF7ED75F010A4FFEC7A0054
:101303002FFFEA35F0FEE5332F30030BF582E5328C
:101313003EF583E493800AF582E5323EF583E49358
:10132300F4FF121B9D0CEC6410600241670537212A
:011333006653
:011334002296
:0614D8008F2F8B31A905E6
:1014DE00E4FDE532131313541FFFEDC39F4002A129
:1014EE006EED252FFFE433FEC3EF9408EE64809477
:1014FE0080506AE4FCECC395315062ECFFE92FFF9B
:10150E00E433FEC3EF9440EE64809480500D121CC1
:10151E007BE52F2D121C6EE92C8022ECFFE92FFFAC
:10152E00E433FEC3EF947FEE64809480502C7F02F0
:10153E00121C7DE52F2D121C6EE92C24C0FF121CEF
:10154E00F7ED8531F0A4FFEC7A002FFFEA35F0FEBF
:10155E00E5342FF582E533121B970CA1030D81E0C4
:01156E00225A
:041B46008E2F8F301F
:101B4A00E4FD121C7BAF05121C6FE4FF121CF7E4C4
:101B5A00FC121B810CBC40F97F02121C7DAF0512DE
:101B6A001C6FE4FF121CF77C40121B810CBC80F92D
:061B7A000DED640870CCC3
:011B80002242
:10171E0075320075335B7534FF75350C75364DC2F9
:10172E00037B10E4FDFF12115D75320075335B759E
:10173E0034FF75350C75365ED2037B10E4FD7F02E7
:10174E0012115D75320075335B7534FF75350C758E
:10175E0036F712115575320075335B7534FF7535DA
:0F176E000C7536F7D2037B10E4FD7F0602115D88
:10177D0075320075335B7534FF75350C75364DD28A
:10178D00037B10E4FDFF12115D75320075335B753F
:10179D0034FF75350C75365EC2037B10E4FD7F0298
:1017AD0012115D75320075335B7534FF75350C752F
:1017BD0036F712115575320075335B7534FF75357B
:0F17CD000C7536F7D2037B10E4FD7F0602115D29
:1019DB0075320075335B7534FF75350C75366FC218
:1019EB00037B10E4FDFF12115D75320075335B75DF
:1019FB0034FF75350C753680D2037B10E4FD7F0206
:101A0B0012115D12114675320075335B7534FF751B
:101A1B00350C7536A2D2037B10E4FD7F0602115DF7
:101A2B0075320075335B7534FF75350C75366FD2B7
:101A3B00037B10E4FDFF12115D75320075335B758E
:101A4B0034FF75350C753680C2037B10E4FD7F02C5
:101A5B0012115D12114675320075335B7534FF75CB
:101A6B00350C7536A2D2037B10E4FD7F0602115DA7
:1015FB0075320075335B7534FF75350C75366FD2EC
:10160B00037B10E4FDFF12115D75320075335B75C2
:10161B0034FF75350C753680D2037B10E4FD7F02E9
:10162B0012115D75320075335B7534FF75350C75B2
:10163B003691C20312115775320075335B7534FF47
:10164B0075350C7536A2D2037B10E4FD7F060211B3
:01165B005D31
:101A7B0075320075335B7534FF75350C75366FD267
:101A8B00037B10E4FDFF12115D75320075335B753E
:101A9B0034FF75350C753680D2037B10E4FD7F0265
:101AAB0012115D12114675320075335B7534FF757B
:101ABB00350C7536A2C2037B10E4FD7F0602115D67
:1018000075320075335B7534FF75350C7536B3C2B0
:10181000037B10E4FDFF12115D75320075335B75BB
:1018200034FF75350C7536C4D2037B10E4FD7F029E
:1018300012115D75320075335B7534FF75350C75AB
:1018400036D512115575320075335B7534FF753519
:0F1850000C7536E6D2037B10E4FD7F0602115DB6
:10185F0075320075335B7534FF75350C7536B3D241
:10186F00037B10E4FDFF12115D75320075335B755C
:10187F0034FF75350C7536C4C2037B10E4FD7F024F
:10188F0012115D75320075335B7534FF75350C754C
:10189F0036D512115575320075335B7534FF7535BA
:0F18AF000C7536E6D2037B10E4FD7F0602115D57
:10165C0075320075335B7534FF75350C7536B3D246
:10166C00037B10E4FDFF12115D75320075335B7561
:10167C0034FF75350C7536C4D2037B10E4FD7F0244
:10168C0012115D75320075335B7534FF75350C7551
:10169C0036D5C20312115775320075335B7534FFA2
:1016AC0075350C7536E6D2037B0AE4FD7F06021114
:0116BC005DD0
:1018BE0075320075335B7534FF75350C7536B3D2E2
:1018CE00037B10E4FDFF12115D75320075335B75FD
:1018DE0034FF75350C7536C4D2037B10E4FD7F02E0
:1018EE0012115D75320075335B7534FF75350C75ED
:1018FE0036D512115575320075335B7534FF75355B
:0F190E000C7536E6C2037B10E4FD7F0602115D07
:101CDB00121B0B753630D2047B647D0A7F0A02130C
:011CEB0035C3
:101BF300121B0B75323FD2037B7FE4FDFF121ACB1E
:0E1C030075322BD2037B437D0A7F0A021ACB77
:101CB70075323875330A7534637B467D0A7F0102B6
:021CC70014D82F
:071CFE007E067F63021B4616
:10191D0075320075335B7534FF75350C7536F7D23E
:10192D00037B10E4FDFF12115D75320075335B759D
:10193D0034FF753500753606D2037B10E4FD7F024A
:10194D0012115D75320075335B7534FF7535007599
:10195D00361712115575320075335B7534FF7535B9
:0F196D0000753628D2037B10E4FD7F0602115D62
:10197C0075320075335B7534FF75350C7536F7D2DF
:10198C00037B10E4FDFF12115D75320075335B753E
:10199C0034FF753500753639D2037B10E4FD7F02B8
:1019AC0012115D75320075335B7534FF753500753A
:1019BC00364A12115575320075335B7534FF753527
:0F19CC000C7536F7D2037B10E4FD7F0602115D28
:1016BD00EF24E8602624F0601324F87031E50875F6
:1016CD00F007A4240AF582E4340D801CE50875F0BA
:1016DD0007A4240BF582E4340D800DE50875F007A1
:1016ED00A42409F582E4340DF583E493F508E508A7
:1016FD0075F007A4240CF582E4340DF583E493FB17
:10170D00740193FA740293F98B098A0AF50B02118D
:01171D00408B
:101CC90075A0FFE5A05438F97F087E001217DCAF34
:011CD9000109
:011CDA0022E7
:03000300021C11CB
:0D1C1100C0E0C0F0C083C082C0D075D0001C
:061C1E00121CC91216BDE4
:0B1C2400D0D0D082D083D0F0D0E032CE
:101C9200121C49121B0BD2A8C288D2AFE4FF121643
:031CA200BD80FE04
:100D86000210CEE86480F8E933E83360110460F0BD
:100D9600ED33EC337009E8FCE9FDEAFEEBFF2204D3
:100DA60060DED3EB9FEA9EE99DE8C2E78CF0C2F7CE
:100DB60095F0400CE8CCF8E9CDF9EACEFAEBCFFB9A
:100DC60012109985D0F05804700320D5B3E804704A
:100DD600075002B2D50210D892D5EC0460F7E4CCE5
:100DE600C0E0C398F8603B94186008400DD0E0FB63
:100DF6000210B0E4FBFAC9FC8028E830E406E4C936
:100E0600FBE4CAFCE830E305E4C9CACBFCE85407B6
:100E16006010F8C3E913F9EA13FAEB13FBEC13FCC1
:100E2600D8F130F52FC3E49CFCEF9BFFEE9AFEED64
:100E360099FDD0E0FBEF4E4D4C701222DB03021001
:100E4600D5EC2CFCEF33FFEE33FEED33FDED30E752
:100E5600EB0210B0EF2BFFEE3AFEED39FDD0E0FBD2
:100E660050130BBB00030210D8ED13FDEE13FEEF7B
:080E760013FFEC13FC0210B0A5
:100E7E00EC4D6011E8497017ED33EC3304600DE46E
:100E8E00FCFFFEFD22E933E8330470F80210CE12A7
:100E9E00109958046009E4CC2481500628500902A8
:100EAE0010D82840030210D5C0E0EB4A7044B98038
:100EBE0006D0E0FB0210C4EF4E701CBD8008EBFFA5
:100ECE00EAFEE9FD80EBE98DF0A4FEE5F0020F6786
:100EDE00E9CDF9EAFEEBFFEF89F0A4FCE5F0CE894F
:100EEE00F0A42EFFE435F0CD89F0A42DFEE435F00C
:100EFE008067EF4E7005BD80D780C3EF8BF0A4AC3A
:100F0E00F0EE8BF0A42CFCE435F0F8EF8AF0A42C74
:100F1E00E5F038FCE433CB8DF0A42CFCE5F03BF887
:100F2E00EE8AF0A42CFCE5F038F8E433CF89F0A477
:100F3E002CFCE5F038CF3400CE89F0A42FFFE5F07D
:100F4E003EFEE433C98DF0A42EFEE5F039CD8AF0D5
:100F5E00A42FFFE5F03EFEE43DFD33D0E0FB50074D
:100F6E000BBB000F0210D8EC2CFCEF33FFEE33FE60
:060F7E00ED33FD0210B08E
:100F84000210D8EC5D046005E8590470030210CE29
:100F9400121099580460F6EC4860F2EC7004FDFEFF
:100FA400FF22C860DB2481C85009C3986002500640
:100FB4000210D59850CAF582E9294B4A7005AB82D4
:100FC4000210C475F0007C1A7880C3EF9BEE9AED92
:100FD40099400DC3EF9BFFEE9AFEED99FDE842F0B8
:100FE400DC23ACF0D0E0FFD0E0FED0E0FDAB82200B
:100FF400E7101BEB60BAEC2CFCEF33FFEE33FEED95
:1010040033FD0210B0E803F830E705C0F075F000D6
:10101400EF2FFFEE33FEED33FD40B830E7C280AA78
:1010240075F020800E75F010800575F0087D007E47
:10103400007F003392D530D503121132EC334010C7
:10104400EF33FFEE33FEED33FDEC33FCD5F0ED2250
:0E105400E5F0247EA2D513CC92E7CDCEFF228C
:10106200EDD2E7CD33EC3392D524814006E4FFFE86
:10107200FDFC22FCE4CFCECDCC24E0501174FF80E5
:10108200EDC3CC13CCCD13CDCE13CECF13CF047082
:07109200F030D5DE0211323F
:10109900E9D2E7C933E833F892D5EDD2E7CD33EC9D
:0710A90033FC5002B2D52216
:1010B000EC30E7100FBF000C0EBE00080DBD0004A1
:1010C0000BEB6014A2D5EB13FCED92E7FD2274FF4D
:1010D000FCFDFEFF22E480F8A2D574FF13FC7D80A6
:0310E000E480EFBA
:10157B00021C92E493A3F8E493A34003F68001F2D8
:10158B0008DFF48029E493A3F85407240CC8C33371
:10159B00C4540F4420C8834004F456800146F6DF40
:1015AB00E4800B01020408102040809017FCE47EBD
:1015BB00019360BCA3FF543F30E509541FFEE49335
:1015CB00A360010ECF54C025E060A840B8E493A3FC
:1015DB00FAE493A3F8E493A3C8C582C8CAC583CA27
:1015EB00F0A3C8C582C8CAC583CADFE9DEE780BEDF
:0117FF0000E9
:1010E300C2D530F707B2D563F0FF05F030E70CB295
:1010F300D5F4048463F0FF05F080018430D502F455
:021103000422C4
:10110500BB010CE58229F582E5833AF583E022509F
:1011150006E92582F8E622BBFE06E92582F8E222E9
:0D112500E58229F582E5833AF583E4932203
:0E113200C3E49FFFE49EFEE49DFDE49CFC22CE
:061140008A838982E4733A
:00000001FF
