:10000E002054696D65536574206F766572210020EA
:10001E0044617465536574206F7665722100416C7E
:10002E00657274536574206F7665722100777777E9
:10003E002E416C657869323030382E636F6D004911
:10004E006E20746869732064656D6F2C796F7520EE
:10005E0063616E007072657373206172726F7720C8
:10006E006B657920746F206D6F00766520746865FE
:10007E00206172726F77206F7220626C61636B0009
:10008E00746F2074686520726967687420706F736E
:10009E006974696F6E00616E64207468656E20709D
:1000AE00726573732074686520456E0074657220E6
:1000BE006B657920746F20706572666F726D207437
:1000CE006800652072656C617465642066756E6388
:1000DE0074696F6E2E005E5F5E205B636F6D6520D0
:1000EE006F6E5D205E5F5E004E6F6B696120353511
:1000FE0030302053706F727400562030342E3630EC
:10010E000031342D30392D303700524D2D38360018
:10011E00312E54696D652053657400322E4461741E
:10012E00652053657400332E416C6572745365748B
:10013E0000342E4261636B00312E4E617669676129
:10014E00746F7200322E4C616E646D61726B73004F
:10015E00332E506F736974696F6E00342E54686558
:10016E006D657300352E44696374696F6E617279C3
:10017E0000362E41646F62652050444600372E587B
:10018E002D706C6F726500382E413420496E70757B
:10019E007400392E517569636B6F6666696365000D
:1001AE0031302E515265616465720031312E4D4FE2
:1001BE00544F2D5458540031322E41626F757400D5
:1001CE0031332E48656C700031342E4261636B0002
:1001DE00312E496D6167657300322E566964656F05
:1001EE0020636C69707300332E4D75736963003430
:1001FE002E547261636B7300352E416C6C206170EE
:10020E00707300362E4261636B00312E43616C6356
:10021E00756C61746F7200322E436C6F636B0033BA
:10022E002E436F6E76657274657200342E4E6F7447
:10023E006520626F6F6B00352E43616C656E646175
:10024E007200362E46696C65206D67722E00372E51
:10025E004D656D6F727900382E4261636B00312EE1
:10026E0043616D65726100322E5265616C506C6136
:10027E0079657200332E5265636F72646572003455
:10028E002E466C617368506C6179657200352E4331
:10029E006F7265506C6179657200362E4261636BC8
:1002AE0000312E4C656431204F4E2F4F46460032A2
:1002BE002E4C656432204F4E2F4F464600332E4C47
:1002CE00656433204F4E2F4F464600342E416C6CE2
:1002DE00204C4544204F4E2F4F464600352E42614E
:1002EE00636B00312E4E6577206D657373616765A4
:1002FE0000322E496E626F7800332E4F7574626F26
:10030E007800342E4D61696C626F7800352E4D7910
:10031E0020666F6C6465727300362E44726166746B
:10032E007300372E53656E7400382E5265706F72DF
:10033E00747300392E53494D206D65737361676573
:10034E000031302E53657474696E670031312E435F
:10035E00656C6C20696E666F0031322E48656C706C
:10036E000031332E4261636B00312E54696D65206E
:10037E0053657400322E47616C6C65727900332EB2
:10038E004D6564696100342E4F7267616E697365E5
:10039E007200352E4C454420446973706C617900AF
:1003AE00362E4D6573736167696E6700372E426135
:1003BE00636B0077656C636F6D6520746F20776873
:1003CE006572657665722000796F752061726520A1
:1003DE005E5F5E00BBB6D3AD00CAB9D3C3B2CBB5B8
:1003EE00A500D1DDCABECFB5CDB300000000000020
:1003FE0000004F00000007000700147F147F142434
:10040E002A7F2A12231308646236495522500005AA
:10041E00030000001C2241000041221C0014083E73
:10042E00081408083E0808005030000008080808A4
:10043E0008006060000020100804023E5149453E4D
:10044E0000427F400042615149462141454B3118DF
:10045E0014127F1027454545393C4A4949300171F0
:10046E000905033649494936064949291E003636DB
:10047E000000005636000008142241001414141413
:10048E001400412214080201510906324979413EF5
:10049E007E1111117E7F4949493E3E414141227FE5
:1004AE004141221C7F494949417F090909013E41C9
:1004BE0049497A7F0808087F00417F41002040416A
:1004CE003F017F081422417F404040407F020402DA
:1004DE007F7F0408107F3E4141413E7F0909090696
:1004EE003E4151215E7F091929464649494931014C
:1004FE00017F01013F4040403F1F2040201F3F40F1
:10050E0038403F63140814630304780403615149AF
:10051E004543007F41410015167C16150041417F71
:10052E000004020102044040404040000102040069
:10053E0020545454787F4844443838444444203836
:10054E004444487F3854545418087E0901020C5212
:10055E0052523E7F0804047800447D4000204044FF
:10056E003D007F1028440000417F40007E020C02B7
:10057E007C7E0402027C38444444387C14141408F3
:10058E00081414187C7C080404084854545420049D
:10059E003F4440203C4040207C1C2040201C3C40DE
:1005AE0030403C44281028440C5050503C44645475
:1005BE004C44000836410000007F00000041360820
:1005CE0000080408100808082A1C08081C2A080835
:1005DE0004027F020410207F20101C2A322A1C1CC9
:1005EE002244221CBBB60434C404C43C20100FE8C1
:1005FE0008082818000010080601828C40300C03F1
:10060E000C1060C04000D3AD404244C800FC040250
:10061E0082FC040404FE04000040201F20474241D7
:10062E00407F404244434040CAB94020F80704F49A
:10063E00141414FF141414F604000000FF00804379
:10064E0045291917212141C34000D3C30000FE22C2
:10065E00222222FE22222222FF02000080601F029E
:10066E000202027F020242827F000000B2CB04042B
:10067E002464A42F64A4242F94541406040002426C
:10068E004222120A06FF060A121222632200B5A5A2
:10069E000000F8494A4C48F8484C4A49FC0800000A
:1006AE0010101712121212FF12121212131810003B
:1006BE00D1DD102166108CA4A4A4A5E6A4A4A4B434
:1006CE000C000404FE01008F4A6A0A0F0A2A4ACF60
:1006DE000000CABE40404242424242C242424243EF
:1006EE0042604000001008040640807F00000204B3
:1006FE000C180000CFB500022222322EA262222256
:10070E00910901000000000042221A43827E02027B
:10071E000A1366000000CDB32030AC633088C8A841
:10072E00998E88A8CC880000226722129240300F42
:10073E0000003F404041700004FF011EFF135F00A8
:10074E000000FF0A1E04FF0129FF136C000000FFCA
:10075E000A1E04FF0134FF1379000000FF0A1E0475
:10076E00FF013FFF13E1FF0A1EFF0A1E0EFF0146A7
:10077E00FF13E1000000FF08300EFF0152FF13E1EE
:10078E00000000FF08300EFF015EFF13E1000000C5
:10079E00FF08300EFF0169FF13E1000000FF083073
:1007AE000EFF0172FF13E1000000FF08300EFF0183
:1007BE007FFF13E1000000FF08300EFF018BFF13D7
:1007CE00E1000000FF08300EFF0195FF13E100006D
:1007DE0000FF08300EFF01A0FF13E1000000FF082C
:1007EE00300EFF01AEFF13E1000000FF08300EFFD8
:1007FE0001B9FF13E1000000FF08300EFF01C5FF35
:10080E001123000000FF08300EFF01CEFF0F8700FE
:10081E000000FF08300EFF01D6FF13E1FF0830FF86
:10082E00083006FF01DEFF13E1000000FF0A1E067E
:10083E00FF01E7FF13E1000000FF0A1E06FF01F5AE
:10084E00FF13E1000000FF0A1E06FF01FDFF13E18A
:10085E00000000FF0A1E06FF0206FF13E1FF077AE3
:10086E00FF0A1E06FF0211FF13E1FF0A1EFF0A1EFA
:10087E0008FF0218FF13E1000000FF0A1E08FF0226
:10088E0025FF13E1000000FF0A1E08FF022DFF13D3
:10089E00E1000000FF0A1E08FF0239FF13E100000D
:1008AE0000FF0A1E08FF0245FF13E1000000FF0AC9
:1008BE001E08FF0250FF13E1000000FF0A1E08FF92
:1008CE00025CFF13E1000000FF0A1E08FF0265FF35
:1008DE0013E1FF0A1EFF0A1E06FF026CFF13E10062
:1008EE000000FF0A1E06FF0275FF13E1000000FF65
:1008FE000A1E06FF0282FF13E1000000FF0A1E0619
:10090E00FF028DFF13E1000000FF0A1E06FF029B8F
:10091E00FF13E1000000FF0A1E06FF02A8FF13E10D
:10092E00FF0A1EFF0A1E05FF02AFFF13D5000000CF
:10093E00FF0A1E05FF02BDFF13D8000000FF0A1EAE
:10094E0005FF02CBFF13DB000000FF0A1E05FF02AE
:10095E00D9FF13CE000000FF0A1E05FF02EAFF13A7
:10096E00E1FF0A1EFF0A1E0DFF02F1FF13E1000058
:10097E0000FF0A1E0DFF02FFFF13E1000000FF0A39
:10098E001E0DFF0307FF13E1000000FF0A1E0DFFFF
:10099E000310FF13E1000000FF0A1E0DFF031AFFF4
:1009AE0013E1000000FF0A1E0DFF0327FF13E100F5
:1009BE000000FF0A1E0DFF0330FF13E1000000FFD1
:1009CE000A1E0DFF0337FF13E1000000FF0A1E0D84
:1009DE00FF0341FF13E1000000FF0A1E0DFF034F4E
:1009EE00FF13E1000000FF0A1E0DFF035AFF10DA8D
:1009FE00000000FF0A1E0DFF0367FF0F87000000B7
:100A0E00FF0A1E0DFF036FFF13E1FF0A1EFF0A1EF2
:100A1E0007FF0377FF13E1FF074600000007FF0300
:100A2E0082FF13E1FF083000000007FF038CFF1365
:100A3E00E1FF08E600000007FF0394FF13E1FF0843
:100A4E007E00000007FF03A0FF13E1FF0934000042
:100A5E000007FF03AEFF13E1FF097500000007FF5B
:100A6E0003BAFF13E1FF0A1EFF0A1E0C26232D01F7
:100A7E000203040506070809000A1E0E292C2B1076
:0D0A8E000F20110D2112141C3813151D3FEF
:0E1334000323FF0A1E012F00012200012E00DC
:0D1343007580FFC290D291D292AF80C2920D
:01135000227A
:0D1351007580FFD290D291D292AF80C292EF
:01135E00226C
:0713B400121343EF20E7F9DB
:0113BB00220F
:0412DF00ED24B8FF43
:1012E300AE071213B4C290C2918E80D292C29222E0
:10130400AE071213B4D290C2918E80D292C29222AE
:10125100EDC394405006D293C294800874C02DFD12
:10126100C293D294EF24B8FF1212E3ED2440FF029F
:0212710012E386
:0A13A000ED33333354F8FD0212510F
:10119A00EF7006D293C2948010BF0106C293D29414
:1011AA008007BF0204D293D294E4FD1212DF7F407B
:1011BA001212E3E4FCE4FF1213040CBC40F70DBD69
:0211CA0008E932
:0111CC002200
:0212AC00AD078C
:1012AE00D293D2947F401212E31212DFE4FDE4FFD8
:0712BE001213040DBD40F7FF
:0112C5002206
:101291001213A0121351E4FE121351EF120B9174A9
:0A12A1000129F9E43AFA0EBE08EE46
:0112AB002220
:101163001213A0E4FF121304E4FD75F005EBA424AD
:1011730059F582E5F03403F583E5822DF582E435F4
:1011830083F583E493FF1213040DBD05DDE4FF1221
:071193001304E4FF02130442
:061045008F198D1A8B1BB0
:10104B00E51A75F006A404F51AE4FBAD1A1213AAFF
:10105B00E4F51C75F005E51BA42459F582E5F03485
:10106B0003F583E582251CF582E43583F583E49350
:10107B00FBE51A251C04FDAF191213AA051CE51C70
:05108B00C3940540CEF6
:01109000223D
:0411CD007BFFE4FDC3
:1011D1008F0C8D0D8B0E8A0F8910AB0EAA0FA910E3
:1011E100120B786019AD0D050D0510E510700205A3
:0F11F1000F14F9120B78FBAF0C12104580DC22A3
:04122C008F0EAC0570
:101230007B007A00790F121291AD04AF0E1213A049
:10124000E4FD740F2DF8E6F4FF1213040DBD08F24F
:01125000227B
:0313D20002122CD8
:1012C6008F0B8D0C8B0DAF0D150DEF600BAD0C0557
:0912D6000CAF0B1213D280EE22C2
:081091008F0C8A0D8B0EAC05DB
:10109900E50C25E0F50CEC25E0FCE4FBE50C2BFF69
:1010A900AD041213A0E4FDEB75F010A4FFED7583F8
:1010B900002FFFE58335F0FEE50E2FF582E50D3EA5
:1010C900F583E493FF1213040DBD10DB0BBB02CCB7
:0110D90022F4
:100FF500E4FE8B828A83E493FC75F022EEA424F24E
:10100500F582E5F03405F583E493B5041C8B828AFB
:1010150083740193FC75F022EEA424F3F582E5F0C8
:101025003405F583E4936C60040EBE0AC575F022A1
:10103500EEA424F4F582E5F03405AB82FA021091B2
:101200008F098A0A8B0BA905850B82850A83E493D3
:101210006019AD0109AB0BAA0AAF09120FF57402F0
:0C122000250BF50BE4350AF50A80DD22F1
:040C55008F0B8D0C68
:100C5900E4F51174132511F8E4F60511E511B4064C
:100C6900F2E4F5117C007D0AAF03AE02120BA3EF8B
:100C79004E60257C007D0AAF03AE02120BA37413EC
:100C89002511F8A6057C007D0AAF03AE02120BA35D
:100C9900AA06AB07051180CCAF0374132511F8A67A
:100CA90007851112C3E51164809480400D741325E2
:100CB90011F8743026F6151180EAE4F511AD11ED3D
:100CC9003395E0FCC3ED950F7480F86C985022E5DC
:100CD90010600EE50C2511FD7B20AF0B121163800E
:100CE9000CE50C2511FD7B20AF0B12104505118079
:100CF900CC851211C3E511648094804028E510ADBC
:100D09000C6010050C74132511F8E6FBAF0B1211DA
:100D190063800E050C74132511F8E6FBAF0B121056
:050D290045151180CF0B
:010D2E0022A2
:0A13AA00AC03121251AF0402130449
:101273007F0212119A7F3E1212E37FB81212E37FAC
:0E128300C01212E37F401212E37F3F0212E31B
:0713BC00C295D295021273E5
:0113E10022E9
:0D135F007BFF7A00790E7D027F070211D11D
:0D136C007BFF7A00791D7D027F070211D101
:0D1379007BFF7A00792C7D027F070211D1E5
:0313D500B29722AA
:0313D800B29622A8
:0313DB00B29522A6
:0413CE006390FF2207
:0C1386007FA57E3C7D01DDFEDEFADFF677
:011392002238
:101123007F0212119AE4FCFAECC39465501BEA5453
:1011330007FFEC540FFDEC2420FB121163121386FE
:101143000CEC540F70E20A80DF7BFF7A00793B7D61
:10115300027F071211D1E5B0F460FB7F0202119AFE
:100F87007F0212119A7BFF7A00794DE4FDFF12115F
:100F9700D17A0079627F011211CD7A0079787F02C8
:100FA7001211CD7BFF7A00798EE4FD7F031211D1F8
:100FB7007BFF7A0079A4E4FD7F041211D17BFF7ACD
:100FC7000079BAE4FD7F051211D17BFF7A0079D051
:100FD700E4FD7F061211D17BFF7A0079E47D027F61
:0E0FE700071211D1E5B0F460FB7F0202119AEF
:1010DA007F0212119A7BFF7A0079F67D027F021253
:1010EA0011D17BFF7A0179077D077F031211D17B2A
:1010FA00FF7A01790F7D067F041211D17BFF7A01F5
:10110A0079187D077F051211D1121386121386E50D
:09111A00B0F460FB7F0202119A9F
:100D2F00AB23AA24A925120B78F526852F2EE4F5DF
:100D3F000AE52EC395264003020DDFE50AC394088A
:100D4F004003020DDFAF0A1212ACE52E75F00DA4B1
:100D5F00AB232525F9E52435F0FA900001120BF8A5
:100D6F00E4FDAF0A1211D1E52EB522097B0CE4FD8B
:100D7F00AF0A1212C6052EE50A7050E522C3940978
:100D8F00501B7B207D10E4FF121045E5222401FB50
:100D9F00E433FA750F01E4F5107D118010E522247C
:100DAF0001FBE433FA750F02E4F5107D10FF120C0E
:100DBF00557B2F7D12E4FF121045E526FB7A007557
:100DCF000F02E4F5107D13FF120C55050A020D40BA
:010DDF0022F1
:100A9B00EF24EA604B14603C24FE601924056003CC
:100AAB00020B5A1522E522F46003020B5AE52614B9
:100ABB00F522020B5AE52275F00DA4AB232525F97F
:100ACB00E52435F0FA90000A120BF8E94A7003029C
:100ADB000B5A806B0522E52265267073F522806F19
:100AEB00E52275F00DA4AB232525F9E52435F0FAA5
:100AFB00900004120BF8EB8A838982F4700A74E17C
:100B0B006582700474136583601BE52275F00DA478
:100B1B00AB232525F9E52435F0FA900004120BF8E8
:100B2B00120C28802AE52275F00DA4AB232525F99C
:100B3B00E52435F0FA900007120BF8E94A60108BA8
:100B4B00238A248925E4F522F52F7F0212119AE5D9
:100B5B0022131313541FF52F75F008A4F52F6509F5
:0D0B6B0060087F0212119A852F09020D2FDC
:040006007F37DFFE63
:01000A0022D3
:0F1314007E027DF8B2B6120006DDF9DEF5D2B624
:0113230022A7
:1012F300438902758CEB758AEB43A882D2B9C28C01
:0113030022C7
:03000B000213DEFF
:0313DE00052B32AA
:0513C900D2A8C2882239
:03000300020DE00B
:100DE000C0E0C0D075D000C000C006C2A8D28C75CB
:100DF0002B00752800752900E52BC394135009308A
:100E0000B2F6C28CD2A8806F752B00752C00E52C31
:100E1000C3940D501EE52B944F40F3E52925E0F5D2
:100E200029E52833F528A2B2E4334229E4F52B055D
:100E30002C80DBC28C6329FF6328FFE5285407FE62
:100E4000E52954C07806CEC313CE13D8F9F52DE5A5
:100E50002830E416E52D7012E529543FF527E528E2
:100E6000A2E3E433F52AD2008008752700752A0032
:100E7000C20030B2FDD2A8D006D000D0D0D0E0322F
:0613C3001212F30213C92F
:0F132400E4FFEF900A7993652760040FBF22F36F
:011333002297
:0C1393007FCD7E747D09DDFEDEFADFF602
:01139F00222B
:100F0C001213C31213BC7F0212119A7BFF7A03795E
:100F1C00C17D01E4FF1211D17BFF7A0379D67D05E7
:100F2C007F011211D17A037BE27D037F0112120043
:100F3C001213937A037BE77D027F021212001213C5
:100F4C00937A037BF07D027F03121200121393122B
:100F5C0013937F0212119AAF08120A9B300015C22C
:100F6C00A8C2001213248F08121314E5086097AF5F
:0B0F7C0008120A9BD2A812138680E125
:03000000020E806D
:0C0E8000787FE4F6D8FD75812F020EC7C4
:100B7800BB010689828A83E0225002E722BBFE027B
:090B8800E32289828A83E49322AE
:100B9100BB010689828A83F0225002F722BBFE0143
:020BA100F3223D
:100BA300BC000BBE0029EF8DF084FFADF022E4CC36
:100BB300F875F008EF2FFFEE33FEEC33FCEE9DECFF
:100BC300984005FCEE9DFE0FD5F0E9E4CEFD22ED45
:100BD300F8F5F0EE8420D21CFEADF075F008EF2F8F
:100BE300FFED33FD4007985006D5F0F222C398FD80
:050BF3000FD5F0EA221D
:100BF800BB010DE58229F582E5833AF583020C37BE
:100C08005007E92582F8020C2EBBFE07E92582F879
:100C1800020C40E58229F582E5833AF583020C4906
:060C28008A838982E47357
:100E8C00020F0CE493A3F8E493A34003F68001F261
:100E9C0008DFF48029E493A3F85407240CC8C33367
:100EAC00C4540F4420C8834004F456800146F6DF36
:100EBC00E4800B0102040810204080901334E47E7F
:100ECC00019360BCA3FF543F30E509541FFEE4932B
:100EDC00A360010ECF54C025E060A840B8E493A3F2
:100EEC00FAE493A3F8E493A3C8C582C8CAC583CA1D
:100EFC00F0A3C8C582C8CAC583CADFE9DEE780BED5
:0113420000AA
:090C2E00E6FB08E6FA08E6F922EB
:090C3700E0FBA3E0FAA3E0F922BE
:090C4000E2FB08E2FA08E2F922E5
:0C0C4900E493FB740193FA740293F92207
:00000001FF
