:10000300021F00000A0DC0F9A4B0999282F88090F3
:060013000417FFFFFFFFD0
:10036600AD071FED600B7E7BEED3940040F21E803E
:01037600F78F
:010377002263
:10030D00758915E4F58CF58A758DFC758B18D2AF52
:10031D00D2A9D2ABD28ED28C2090FD2091FA209210
:10032D00F7C28C851B8075A0FE7F01120366851EAA
:10033D008075A0FB7F03120366851D8075A0FD7F70
:10034D0003120366851E8075A0F77F03120366D224
:09035D0094D295D296D29780BF8C
:03001B0002001EC2
:10001E00C0E0C0F0C0D075D000C000C004C005C0A4
:03002E0006C00702
:10003100752200752300E4FFFE758DFC758B180594
:1000410020E5207002051F540314601514601D146F
:1000510060252403702A85178075A0FE85171B80F3
:100061001F85188075A0FD85181C80148519807561
:10007100A0FB85191D8009851A8075A0F7851A1EB8
:10008100D294D295D296D29720900C2091092092A9
:1000910006750B00750C0030900C2091093092060A
:1000A100750B00750C0120900C309109309206758A
:1000B1000B00750C0230900C309109209206750BE3
:1000C10000750C0320900C209109309206750B00ED
:1000D100750C0430900C209109209206750B007567
:1000E1000C05E50B7057E50C14601C1460231460BB
:1000F1002614602D14603824057042D294D295D212
:1001010096D297C28E8036C294D295C296D29780EB
:100111002CD294D295800EC294D295D296D2978049
:1001210016D294C295C296D2977E007F01800EC2EC
:1001310094D295D296C297752200752301E50C647D
:1001410002450B7006EF64014E600EE50C64044538
:100151000B7014EF64014E700E752200752300D2EE
:1001610094D295C296D297E50C6403450B7008E5CD
:1001710023640145226010E50C6405450B7010E510
:1001810023640145227008C294D295D296D297E594
:100191002064E87004E51F6403706DAF8CF5098F6E
:1001A1000AE50A750A00F509AF8AEF250AF50AE49E
:1001B1003509F509FEAF0A7C007D0F1202A68E09F2
:1001C1008F0A7D0A1202B8740D2FF8E6F51AAE09EE
:1001D100AF0A7C007D0A1202B8740D2DF8E6F519FC
:1001E1000508E50875F00A84240DF8E6F518E50818
:1001F10075F00A84740D25F0F8E6F517751F007582
:080201002000758C00758A00D5
:10020900D007D006D005D004D000D0D0D0F0D0E0AF
:0102190032B2
:0300000002021ADF
:0C021A00787FE4F6D8FD758123020261B4
:1002A600EF8DF0A4A8F0CF8CF0A428CE8DF0A42E6C
:0202B600FE2226
:1002B800BC000BBE0029EF8DF084FFADF022E4CC2A
:1002C800F875F008EF2FFFEE33FEEC33FCEE9DECF3
:1002D800984005FCEE9DFE0FD5F0E9E4CEFD22ED39
:1002E800F8F5F0EE8420D21CFEADF075F008EF2F83
:1002F800FFED33FD4007985006D5F0F222C398FD74
:050308000FD5F0EA2210
:1002260002030DE493A3F8E493A34003F68001F2DE
:1002360008DFF48029E493A3F85407240CC8C333D9
:10024600C4540F4420C8834004F456800146F6DFA8
:10025600E4800B0102040810204080900003E47E35
:10026600019360BCA3FF543F30E509541FFEE4939D
:10027600A360010ECF54C025E060A840B8E493A364
:10028600FAE493A3F8E493A3C8C582C8CAC583CA8F
:10029600F0A3C8C582C8CAC583CADFE9DEE780BE47
:0100190000E6
:00000001FF
