:1008CB001008C0F9A4B0999282F880908883C6A1D1
:0208DB00868E07
:1008AC00EF1FAA0670011E4A60147C007D6ED3ED0A
:0E08BC009400EC940040E9ED1D70F31C80F0F8
:0108CA00220B
:10088C00D2AFD2A8D288E4FBD28074082BF8E6F55C
:10089C00808BA07F2C7E011208AC0BBB08EA80E693
:03000B000208DE0A
:0608DE007580FFC28032AC
:03000000020800F3
:0C080000787FE4F6D8FD758117020847E8
:10080C0002088CE493A3F8E493A34003F68001F26E
:10081C0008DFF48029E493A3F85407240CC8C333ED
:10082C00C4540F4420C8834004F456800146F6DFBC
:10083C00E4800B01020408102040809008CBE47E79
:10084C00019360BCA3FF543F30E509541FFEE493B1
:10085C00A360010ECF54C025E060A840B8E493A378
:10086C00FAE493A3F8E493A3C8C582C8CAC583CAA3
:10087C00F0A3C8C582C8CAC583CADFE9DEE780BE5B
:0108DD00001A
:00000001FF
