:100003002054696D65536574206F766572210020F5
:1000130044617465536574206F7665722100416C89
:10002300657274536574206F7665722100777777F4
:100033002E416C657869323030382E636F6D00491C
:100043006E20746869732064656D6F2C796F7520F9
:1000530063616E007072657373206172726F7720D3
:100063006B657920746F206D6F0076652074686509
:10007300206172726F77206F7220626C61636B0014
:10008300746F2074686520726967687420706F7379
:100093006974696F6E00616E64207468656E2070A8
:1000A300726573732074686520456E0074657220F1
:1000B3006B657920746F20706572666F726D207442
:1000C3006800652072656C617465642066756E6393
:1000D30074696F6E2E005E5F5E205B636F6D6520DB
:1000E3006F6E5D205E5F5E004E6F6B69612035351C
:1000F30030302053706F727400562030342E3630F7
:100103000031342D30392D303700524D2D38360023
:10011300312E54696D652053657400322E44617429
:10012300652053657400332E416C65727453657496
:1001330000342E4261636B00312E4E617669676134
:10014300746F7200322E4C616E646D61726B73005A
:10015300332E506F736974696F6E00342E54686563
:100163006D657300352E44696374696F6E617279CE
:1001730000362E41646F62652050444600372E5886
:100183002D706C6F726500382E413420496E707586
:100193007400392E517569636B6F66666963650018
:1001A30031302E515265616465720031312E4D4FED
:1001B300544F2D5458540031322E41626F757400E0
:1001C30031332E48656C700031342E4261636B000D
:1001D300312E496D6167657300322E566964656F10
:1001E30020636C69707300332E4D7573696300343B
:1001F3002E547261636B7300352E416C6C206170F9
:10020300707300362E4261636B00312E43616C6361
:10021300756C61746F7200322E436C6F636B0033C5
:100223002E436F6E76657274657200342E4E6F7452
:100233006520626F6F6B00352E43616C656E646180
:100243007200362E46696C65206D67722E00372E5C
:100253004D656D6F727900382E4261636B00312EEC
:1002630043616D65726100322E5265616C506C6141
:1002730079657200332E5265636F72646572003460
:100283002E466C617368506C6179657200352E433C
:100293006F7265506C6179657200362E4261636BD3
:1002A30000312E4C656431204F4E2F4F46460032AD
:1002B3002E4C656432204F4E2F4F464600332E4C52
:1002C300656433204F4E2F4F464600342E416C6CED
:1002D300204C4544204F4E2F4F464600352E426159
:1002E300636B00312E4E6577206D657373616765AF
:1002F30000322E496E626F7800332E4F7574626F31
:100303007800342E4D61696C626F7800352E4D791B
:1003130020666F6C6465727300362E447261667476
:100323007300372E53656E7400382E5265706F72EA
:10033300747300392E53494D206D6573736167657E
:100343000031302E53657474696E670031312E436A
:10035300656C6C20696E666F0031322E48656C7077
:100363000031332E4261636B00312E54696D652079
:1003730053657400322E47616C6C65727900332EBD
:100383004D6564696100342E4F7267616E697365F0
:100393007200352E4C454420446973706C617900BA
:1003A300362E4D6573736167696E6700372E426140
:1003B300636B002D3E0077656C636F6D6520746F12
:1003C3002077686572657665722000796F752061A4
:1003D3007265205E5F5E00BBB6D3AD00CAB9D3C3FE
:1003E300B2CBB5A500D1DDCABECFB5CDB3000000F9
:1003F30000000000004F00000007000700147F14F6
:100403007F14242A7F2A1223130864623649552253
:10041300500005030000001C2241000041221C0083
:1004230014083E081408083E08080050300000086D
:1004330008080808006060000020100804023E510C
:1004430049453E00427F40004261514946214145B2
:100453004B311814127F1027454545393C4A494909
:100463003001710905033649494936064949291EB0
:1004730000363600000056360000081422410014EE
:1004830014141414004122140802015109063249BC
:1004930079413E7E1111117E7F4949493E3E4141DA
:1004A30041227F4141221C7F494949417F09090972
:1004B300013E4149497A7F0808087F00417F410096
:1004C3002040413F017F081422417F404040407F4C
:1004D3000204027F7F0408107F3E4141413E7F09B1
:1004E3000909063E4151215E7F09192946464949BA
:1004F300493101017F01013F4040403F1F2040201F
:100503001F3F4038403F6314081463030478040317
:100513006151494543007F41410015167C16150082
:1005230041417F0004020102044040404040000179
:1005330002040020545454787F48444438384444D7
:100543004420384444487F3854545418087E0901E1
:10055300020C5252523E7F0804047800447D40004E
:100563002040443D007F1028440000417F40007E2E
:10057300020C027C7E0402027C38444444387C141E
:10058300141408081414187C7C08040408485454F0
:100593005420043F4440203C4040207C1C20402009
:1005A3001C3C4030403C44281028440C5050503CE4
:1005B3004464544C44000836410000007F000000AE
:1005C30041360800080408100808082A1C08081CFB
:1005D3002A080804027F020410207F20101C2A32FC
:1005E3002A1C1C2244221CBBB60434C404C43C2071
:1005F300100FE808082818000010080601828C4034
:10060300300C030C1060C04000D3AD404244C8001E
:10061300FC040282FC040404FE04000040201F20AA
:10062300474241407F404244434040CAB94020F8DA
:100633000704F4141414FF141414F604000000FF48
:1006430000804345291917212141C34000D3C3002A
:1006530000FE22222222FE22222222FF020000800A
:10066300601F020202027F020242827F000000B288
:10067300CB04042464A42F64A4242F9454140604E8
:100683000002424222120A06FF060A1212226322C3
:1006930000B5A50000F8494A4C48F8484C4A49FCC3
:1006A30008000010101712121212FF121212121366
:1006B300181000D1DD102166108CA4A4A4A5E6A413
:1006C300A4A4B40C000404FE01008F4A6A0A0F0AB2
:1006D3002A4ACF0000CABE40404242424242C2427E
:1006E30042424342604000001008040640807F00FD
:1006F3000002040C180000CFB500022222322EA201
:10070300622222910901000000000042221A438262
:100713007E02020A1366000000CDB32030AC6330C2
:1007230088C8A8998E88A8CC8800002267221292D4
:1007330040300F00003F404041700004FF0113FFB1
:100743001258000000FF0A1604FF011EFF12650085
:100753000000FF0A1604FF0129FF1272000000FFC8
:100763000A1604FF0134FF12CCFF0A16FF0A160E05
:10077300FF013BFF12CC000000FF08280EFF0147DA
:10078300FF12CC000000FF08280EFF0153FF12CC1C
:10079300000000FF08280EFF015EFF12CC000000DE
:1007A300FF08280EFF0167FF12CC000000FF082896
:1007B3000EFF0174FF12CC000000FF08280EFF019A
:1007C30080FF12CC000000FF08280EFF018AFF12F1
:1007D300CC000000FF08280EFF0195FF12CC00009B
:1007E30000FF08280EFF01A3FF12CC000000FF0842
:1007F300280EFF01AEFF12CC000000FF08280EFFF9
:1008030001BAFF104D000000FF08280EFF01C3FFCF
:100813000E47000000FF08280EFF01CBFF12CCFF9C
:100823000828FF082806FF01D3FF12CC000000FFB1
:100833000A1606FF01DCFF12CC000000FF0A1606B1
:10084300FF01EAFF12CC000000FF0A1606FF01F2C7
:10085300FF12CC000000FF0A1606FF01FBFF12CCBB
:10086300FF0772FF0A1606FF0206FF12CCFF0A16E5
:10087300FF0A1608FF020DFF12CC000000FF0A1644
:1008830008FF021AFF12CC000000FF0A1608FF023D
:1008930022FF12CC000000FF0A1608FF022EFF12EF
:1008A300CC000000FF0A1608FF023AFF12CC00003A
:1008B30000FF0A1608FF0245FF12CC000000FF0AE2
:1008C3001608FF0251FF12CC000000FF0A1608FFB2
:1008D300025AFF12CCFF0A16FF0A1606FF0261FF37
:1008E30012CC000000FF0A1606FF026AFF12CC00BA
:1008F3000000FF0A1606FF0277FF12CC000000FF7C
:100903000A1606FF0282FF12CC000000FF0A160639
:10091300FF0290FF12CC000000FF0A1606FF029DA3
:10092300FF12CCFF0A16FF0A1605FF02A4FF12C32B
:10093300000000FF0A1605FF02B2FF12C600000006
:10094300FF0A1605FF02C0FF12C9000000FF0A16C6
:1009530005FF02CEFF12BC000000FF0A1605FF02CE
:10096300DFFF12CCFF0A16FF0A160DFF02E6FF1285
:10097300CC000000FF0A160DFF02F4FF12CC0000AA
:1009830000FF0A160DFF02FCFF12CC000000FF0A55
:10099300160DFF0305FF12CC000000FF0A160DFF22
:1009A300030FFF12CC000000FF0A160DFF031CFF0C
:1009B30012CC000000FF0A160DFF0325FF12CC0026
:1009C3000000FF0A160DFF032CFF12CC000000FFEE
:1009D3000A160DFF0336FF12CC000000FF0A160DA6
:1009E300FF0344FF12CC000000FF0A160DFF034F64
:1009F300FF1004000000FF0A160DFF035CFF0E4703
:100A0300000000FF0A160DFF0364FF12CCFF0A1655
:100A1300FF0A1607FF036CFF12CCFF073E0000001E
:100A230007FF0377FF12CCFF082800000007FF032E
:100A330081FF12CCFF08DE00000007FF0389FF12CD
:100A4300CCFF087600000007FF0395FF12CCFF09D7
:100A53002C00000007FF03A3FF12CCFF096D000069
:0E0A63000007FF03AFFF12CCFF0A16FF0A16B2
:0E122D000329FF0A16012E00012800012D00E2
:0D123C007580FFC290D291D292AF80C29215
:011249002282
:0D124A007580FFD290D291D292AF80C292F7
:011257002274
:0712AD0012123CEF20E7F9EB
:0112B4002217
:04120900ED24B8FF19
:10120D00AE071212ADC290C2918E80D292C29222BE
:10121D00AE071212ADD290C2918E80D292C292229E
:10117B00EDC394405006D293C294800874C02DFDE9
:10118B00C293D294EF24B8FF12120DED2440FF024C
:02119B00120D33
:0A129900ED33333354F8FD02117BEE
:1010C400EF7006D293C2948010BF0106C293D294EB
:1010D4008007BF0204D293D294E4FD1212097F4028
:1010E40012120DE4FCE4FF12121D0CBC40F70DBDFE
:0210F40008E909
:0110F60022D7
:0211D600AD0763
:1011D800D293D2947F4012120D121209E4FDE4FF5B
:0711E80012121D0DBD40F7BE
:0111EF0022DD
:1011BB0012129912124AE4FE12124AEF120B6874C1
:0A11CB000129F9E43AFA0EBE08EE1D
:0111D50022F7
:10108D00121299E4FF12121DE4FD75F005EBA42474
:10109D0051F582E5F03403F583E5822DF582E435D3
:1010AD0083F583E493FF12121D0DBD05DDE4FF12E0
:0710BD00121DE4FF02121DE9
:060F6F008F1A8D1B8B1C84
:100F7500E51B75F006A404F51BE4FBAD1B1212A3DB
:100F8500E4F51D75F005E51CA42451F582E5F03462
:100F950003F583E582251DF582E43583F583E49326
:100FA500FBE51B251D04FDAF1A1212A3051DE51D4A
:050FB500C3940540CECD
:010FBA002214
:0410F7007BFFE4FD9A
:1010FB008F0D8D0E8B0F8A108911AB0FAA10A911B2
:10110B00120B4F6019AD0E050E0511E5117002059E
:0F111B001014F9120B4FFBAF0D120F6F80DC2277
:041156008F1EAC0537
:10115A007B007A00791F1211BBAD04AF1E121299DF
:10116A00E4FD741F2DF8E6F4FF12121D0DBD08F2FE
:01117A002252
:0312C000021156C2
:1011F0008F2F8D308B31AF311531EF600BAD300556
:0912000030AF2F1212C080EE2263
:080FBB008F0D8A0E8B0FAC05AF
:100FC300E50D25E0F50DEC25E0FCE4FBE50D2BFF3D
:100FD300AD04121299E4FDEB75F010A4FFED7583D7
:100FE300002FFFE58335F0FEE50F2FF582E50E3E7A
:100FF300F583E493FF12121D0DBD10DB0BBB02CC76
:0110030022CA
:100F1F00E4FE8B828A83E493FC75F022EEA424EA2C
:100F2F00F582E5F03405F583E493B5041C8B828AD2
:100F3F0083740193FC75F022EEA424EBF582E5F0A7
:100F4F003405F583E4936C60040EBE0AC575F02278
:100F5F00EEA424ECF582E5F03405AB82FA020FBB68
:10112A008F0A8A0B8B0CA905850C82850B83E493A5
:10113A006019AD0109AB0CAA0BAF0A120F1F74029A
:0C114A00250CF50CE4350BF50B80DD22C4
:040C2C008F0C8D0D8F
:100C3000E4F51274142512F8E4F60512E512B40670
:100C4000F2E4F5127C007D0AAF03AE02120B7AEFDC
:100C50004E60257C007D0AAF03AE02120B7A74143D
:100C60002512F8A6057C007D0AAF03AE02120B7AAE
:100C7000AA06AB07051280CCAF0374142512F8A6A0
:100C800007851213C3E51264809480400D74142507
:100C900012F8743026F6151280EAE4F512AD12ED62
:100CA0003395E0FCC3ED95107480F86C985022E504
:100CB00011600EE50D2512FD7B20AF0C12108D800A
:100CC0000CE50D2512FD7B20AF0C120F6F05128075
:100CD000CC851312C3E512648094804028E511ADE1
:100CE0000D6010050D74142512F8E6FBAF0C121000
:100CF0008D800E050D74142512F8E6FBAF0C120F53
:050D00006F151280CF09
:010D050022CB
:0A12A300AC0312117BAF0402121D10
:10119D007F021210C47F3E12120D7FB812120D7F06
:0E11AD00C012120D7F4012120D7F3F02120D74
:0712B500C295D29502119DC4
:0112CC0022FF
:0D1258007BFF7A0079037D027F070210FB07
:0D1265007BFF7A0079127D027F070210FBEB
:0D1272007BFF7A0079217D027F070210FBCF
:0312C300B29722BD
:0312C600B29622BB
:0312C900B29522B9
:0412BC006390FF221A
:0C127F007FA57E3C7D01DDFEDEFADFF67F
:01128B002240
:10104D007F021210C4E4FCFAECC39465501BEA5401
:10105D0007FFEC540FFDEC2420FB12108D12127FB4
:10106D000CEC540F70E20A80DF7BFF7A0079307D43
:10107D00027F071210FBE5B0F460FB7F020210C483
:100E47007F021210C47BFF7A007942E4FDFF121083
:100E5700FB7A0079577F011210F77A00796D7F02CC
:100E67001210F77BFF7A007983E4FD7F031210FBF2
:100E77007BFF7A007999E4FD7F041210FB7BFF7AF0
:100E87000079AFE4FD7F051210FB7BFF7A0079C57F
:100E9700E4FD7F061210FB7BFF7A0079D97D027F84
:0E0EA700071210FBE5B0F460FB7F020210C4DE
:101004007F021210C47BFF7A0079EB7D027F02120B
:1010140010FB7BFF7A0079FC7D077F031210FB7BBA
:10102400FF7A0179047D067F041210FB7BFF7A01AD
:10103400790D7D077F051210FB12127F12127FE5D6
:09104400B0F460FB7F020210C44D
:100D0600AB29AA2AA92B120B4FF52C852E2DE4F51B
:100D16000BE52DC3952C4003020DBAE50BC39408D1
:100D26004003020DBAAF0B1211D6E52D75F00DA4D6
:100D3600AB29252BF9E52A35F0FA900001120BCFE5
:100D46007D02AF0B1210FBE52DB5280D7BFF7A0354
:100D560079B6E4FDAF0B1210FB052DE50B7050E5DF
:100D660028C39409501B7B207D10E4FF120F6FE50A
:100D7600282401FBE433FA751001E4F5117D118096
:100D860010E5282401FBE433FA751002E4F5117D21
:100D960010FF120C2C7B2F7D12E4FF120F6FE52C37
:100DA600FB7A00751002E4F5117D13FF120C2C0579
:040DB6000B020D1708
:010DBA002216
:100A7100EF2421602124F0604824F46038240460CC
:100A810003020B311528E528F46003020B31E52C34
:100A910014F528020B31E52875F00DA4AB29252B9F
:100AA100F9E52A35F0FA90000A120BCFE94A7003F2
:100AB100020B31806B0528E528652C7073F52880C1
:100AC1006FE52875F00DA4AB29252BF9E52A35F042
:100AD100FA900004120BCFEB8A838982F4700A74B6
:100AE100CC6582700474126583601BE52875F00D76
:100AF100A4AB29252BF9E52A35F0FA900004120B55
:100B0100CF120BFF802AE52875F00DA4AB29252B08
:100B1100F9E52A35F0FA900007120BCFE94A601087
:100B21008B298A2A892BE4F528F52E7F021210C41D
:100B3100E528131313541FF52E75F008A4F52E653F
:0E0B41000A60087F021210C4852E0A020D06FB
:0C128C007FCD7E747D09DDFEDEFADFF60A
:011298002233
:100EB5001212B57BFF7A0379B97D01E4FF1210FBAD
:100EC5007BFF7A0379CE7D057F011210FB7A037BC8
:100ED500DA7D037F0112112A12128C7A037BDF7DE2
:100EE500027F0212112A12128C7A037BE87D027F9F
:100EF5000312112A12128C12128C7F021210C4AF27
:100F050008120A7185B008E509650860F7AF08128F
:0A0F15000A7185080912127F80EAB4
:03000000020DBB33
:0C0DBB00787FE4F6D8FD758131020E024D
:100B4F00BB010689828A83E0225002E722BBFE02A4
:090B5F00E32289828A83E49322D7
:100B6800BB010689828A83F0225002F722BBFE016C
:020B7800F32266
:100B7A00BC000BBE0029EF8DF084FFADF022E4CC5F
:100B8A00F875F008EF2FFFEE33FEEC33FCEE9DEC28
:100B9A00984005FCEE9DFE0FD5F0E9E4CEFD22ED6E
:100BAA00F8F5F0EE8420D21CFEADF075F008EF2FB8
:100BBA00FFED33FD4007985006D5F0F222C398FDA9
:050BCA000FD5F0EA2246
:100BCF00BB010DE58229F582E5833AF583020C0E10
:100BDF005007E92582F8020C05BBFE07E92582F8CC
:100BEF00020C17E58229F582E5833AF583020C2082
:060BFF008A838982E47381
:100DC700020EB5E493A3F8E493A34003F68001F27F
:100DD70008DFF48029E493A3F85407240CC8C3332D
:100DE700C4540F4420C8834004F456800146F6DFFC
:100DF700E4800B010204081020408090122DE47E4D
:100E0700019360BCA3FF543F30E509541FFEE493F0
:100E1700A360010ECF54C025E060A840B8E493A3B7
:100E2700FAE493A3F8E493A3C8C582C8CAC583CAE2
:100E3700F0A3C8C582C8CAC583CADFE9DEE780BE9A
:01123B0000B2
:090C0500E6FB08E6FA08E6F92214
:090C0E00E0FBA3E0FAA3E0F922E7
:090C1700E2FB08E2FA08E2F9220E
:0C0C2000E493FB740193FA740293F92230
:00000001FF
