:040000000C94CA0092
:1400540000FC444444FC1090101010FF1010100000070404C6
:14006800040700000340807F0000000040B092969A92F29E63
:14007C009291999591503000000040308C83462A122A26427B
:14009000C04000004020F8074020180F08C808082818000056
:1400A4000000FF0000080443807F0001060C0000202424245C
:1400B800FE232220FF2022AC20302000000848847F022110EE
:1400CC0009061A6180E0000000000000000000000000000036
:1400E00000000000000000000000000000000000000000000C
:1400F40080808080808080808080808080C080000000000038
:140108000000000000000000000000000000080808080808B3
:14011C000808080C08000000101010101010101010101010E3
:14013000101010000004848484848484848484C48604000095
:140144002020202020202020202020202030200000FC0404B3
:1401580004FC040404FC040404FE0400007F2028242320202F
:14016C0020212022227F00000000000000000000000000005B
:1401800000000000000000000000000000000000000000006B
:14019400CFE5D4E0CDBFDEBFCE51D0400AEA08830024E0EA2A
:1401A800F1E011E0E03AF10711F00192FBCF0083E4E5F0E0F5
:1401BC00A0E6B0E011E000E00BBFE439F10721F0C895319634
:1401D0000D92F9CF0E94D202FFCF000008950E941A036801AB
:1401E400AA24BB2404C0F7DFC50101965C01AC14BD04C8F3CA
:1401F8000C9408030027112702C00F5F1F4F0437E4E01E0727
:14020C00D0F308950E941A036801AA24BB2404C0EFDFC50151
:1402200001965C01AC14BD04C8F30C9408030E941A03AA2462
:14023400BB240EC0CC24DD2403C0C60101966C01C601853707
:14024800E4E09E07C0F3C50101965C01A016B10678F30C9454
:14025C000803C09AC198C49A8FEF8ABB0BBB000000000000E9
:140270000000C4988BBB0895C098C198C49A8FEF8ABB0BBBA3
:140284000000000000000000C4980895AA92A02E0A2D086BB9
:14029800EFDFA9900895AA92A02E0A2D086BE8DFA99008955D
:1402AC00AA92A02E0A2D0064E1DFA9900895AA92A02E0A2DC2
:1402C0000064DADFA9900895AA92CA92C22EA02E8C2D803474
:1402D40028F4C398C29A082FE7DF04C0C39AC2980C2DE9DFCA
:1402E8000A2DD2DF0A2DD7DFC990A99008953A932A930E94D2
:1402FC001803A02E2197E984E882AA2011F1AA241CC00F8071
:140310000A0C0F82E880CC2412C02E2D0F81D4DFE39480E192
:140324008A9DF0012C2C3324E20DF31D0B841C84E00DF11DD5
:14033800008191DFC3948C2D803158F3A3948A2D823008F319
:14034C0022C0AA241DC00F800A0C0F82E880CC2413C02E2D54
:140360000F81B2DFE39480E18A9DF0012C2C3324E20DF31DCA
:140374000B841C84E00DF11D008100956EDFC3948C2D803127
:1403880050F3A3948A2D823000F321960E940D0322960895CD
:14039C0081B38F6081BB82B38F6082BB81B3807F81BB00B36B
:1403B0000F700F3011F4002701C001E008950E941A030AE067
:1403C40010E033DFE9DF002351F1A0B28A2D8F70A82EC82E22
:1403D800DD24C6018730E0E09E07B1F08B30E0E09E0779F003
:1403EC008D30E0E09E0741F08E30E0E09E0709F00CC0AA24F4
:14040000A3940BC082E0A82E08C083E0A82E05C084E0A82EAE
:1404140002C080E1A82EC0DF0023E9F702C080E1A82E0A2D09
:140428000C9408030E941803E02E269700240C820D82CC245C
:14043C00AA24FF24C7018130E0E09E0769F08230E0E09E076D
:1404500069F08330E0E09E0769F08430E0E09E0761F00DC097
:14046400002403940C8209C0002403940D8205C0CC24C3941C
:1404780002C0AA24A39480EC90E09B838A8322242882222769
:14048C000C8133DF80E890E09B838A8380E1888322270C8178
:1404A0002ADF80EA90E09B838A8380E2888322270C8121DFF7
:1404B40080E091E09B838A8380E3888322270C8118DF80EC91
:1404C80090E09B838A832224288222E00D810FDF80E890E03F
:1404DC009B838A8380E1888322E00D8106DF80EA90E09B8308
:1404F0008A8380E2888322E00D81FDDE80E291E09B838A8315
:1405040080E3888322E00D81F4DE80EC90E09B838A832224C6
:14051800288224E00C2DEBDE80E890E09B838A8380E18883B0
:14052C0024E00C2DE2DE80EA90E09B838A8380E2888324E048
:140540000C2DD9DE80E491E09B838A8380E3888324E00C2D0C
:14055400D0DE80EC90E09B838A832224288226E00A2DC7DE0C
:1405680080E890E09B838A8380E1888326E00A2DBEDE80EACD
:14057C0090E09B838A8380E2888326E00A2DB5DE80E691E0BC
:140590009B838A8380E3888326E00A2DACDE26960C940D038B
:1405A40081E090E05C018FEF87BB01E03DDF2CC0F3DEC02EAD
:1405B800DD24CC2011F4DD2029F1FDDEC02EDD24C6018130E4
:1405CC00E0E09E0729F08230E0E09E0729F007C0C501019649
:1405E0005C0103C0C50101975C0184E090E08A159B0510F415
:1405F40081E05C01C5018130E0E09E0718F484E090E05C011C
:140608000A2D10DFD3CF0895A990B990C990D9900895A9905F
:14061C00B990C990D990E990F99008957A936A935A934A934C
:0E063000FA92EA92DA92CA92BA92AA920895C7
:00000001FF
