:100003002054696D65536574206F766572210020F5
:1000130044617465536574206F7665722100416C89
:10002300657274536574206F7665722100777777F4
:100033002E416C657869323030382E636F6D00491C
:100043006E20746869732064656D6F2C796F7520F9
:1000530063616E007072657373206172726F7720D3
:100063006B657920746F206D6F0076652074686509
:10007300206172726F77206F7220626C61636B0014
:10008300746F2074686520726967687420706F7379
:100093006974696F6E00616E64207468656E2070A8
:1000A300726573732074686520456E0074657220F1
:1000B3006B657920746F20706572666F726D207442
:1000C3006800652072656C617465642066756E6393
:1000D30074696F6E2E005E5F5E205B636F6D6520DB
:1000E3006F6E5D205E5F5E004E6F6B69612035351C
:1000F30030302053706F727400562030342E3630F7
:100103000031342D30392D303700524D2D38360023
:10011300312E54696D652053657400322E44617429
:10012300652053657400332E416C65727453657496
:1001330000342E4261636B00312E4E617669676134
:10014300746F7200322E4C616E646D61726B73005A
:10015300332E506F736974696F6E00342E54686563
:100163006D657300352E44696374696F6E617279CE
:1001730000362E41646F62652050444600372E5886
:100183002D706C6F726500382E413420496E707586
:100193007400392E517569636B6F66666963650018
:1001A30031302E515265616465720031312E4D4FED
:1001B300544F2D5458540031322E41626F757400E0
:1001C30031332E48656C700031342E4261636B000D
:1001D300312E496D6167657300322E566964656F10
:1001E30020636C69707300332E4D7573696300343B
:1001F3002E547261636B7300352E416C6C206170F9
:10020300707300362E4261636B00312E43616C6361
:10021300756C61746F7200322E436C6F636B0033C5
:100223002E436F6E76657274657200342E4E6F7452
:100233006520626F6F6B00352E43616C656E646180
:100243007200362E46696C65206D67722E00372E5C
:100253004D656D6F727900382E4261636B00312EEC
:1002630043616D65726100322E5265616C506C6141
:1002730079657200332E5265636F72646572003460
:100283002E466C617368506C6179657200352E433C
:100293006F7265506C6179657200362E4261636BD3
:1002A30000312E4C656431204F4E2F4F46460032AD
:1002B3002E4C656432204F4E2F4F464600332E4C52
:1002C300656433204F4E2F4F464600342E416C6CED
:1002D300204C4544204F4E2F4F464600352E426159
:1002E300636B00312E4E6577206D657373616765AF
:1002F30000322E496E626F7800332E4F7574626F31
:100303007800342E4D61696C626F7800352E4D791B
:1003130020666F6C6465727300362E447261667476
:100323007300372E53656E7400382E5265706F72EA
:10033300747300392E53494D206D6573736167657E
:100343000031302E53657474696E670031312E436A
:10035300656C6C20696E666F0031322E48656C7077
:100363000031332E4261636B00312E54696D652079
:1003730053657400322E47616C6C65727900332EBD
:100383004D6564696100342E4F7267616E697365F0
:100393007200352E4C454420446973706C617900BA
:1003A300362E4D6573736167696E6700372E426140
:1003B300636B0077656C636F6D6520746F2077687E
:1003C3006572657665722000796F752061726520AC
:1003D3005E5F5E00BBB6D3AD00CAB9D3C3B2CBB5C3
:1003E300A500D1DDCABECFB5CDB30000000000002B
:1003F30000004F00000007000700147F147F14243F
:100403002A7F2A12231308646236495522500005B5
:10041300030000001C2241000041221C0014083E7E
:10042300081408083E0808005030000008080808AF
:1004330008006060000020100804023E5149453E58
:1004430000427F400042615149462141454B3118EA
:1004530014127F1027454545393C4A4949300171FB
:100463000905033649494936064949291E003636E6
:10047300000000563600000814224100141414141E
:100483001400412214080201510906324979413E00
:100493007E1111117E7F4949493E3E414141227FF0
:1004A3004141221C7F494949417F090909013E41D4
:1004B30049497A7F0808087F00417F410020404175
:1004C3003F017F081422417F404040407F020402E5
:1004D3007F7F0408107F3E4141413E7F09090906A1
:1004E3003E4151215E7F0919294646494949310157
:1004F300017F01013F4040403F1F2040201F3F40FC
:1005030038403F63140814630304780403615149BA
:100513004543007F41410015167C16150041417F7C
:100523000004020102044040404040000102040074
:1005330020545454787F4844443838444444203841
:100543004444487F3854545418087E0901020C521D
:1005530052523E7F0804047800447D40002040440A
:100563003D007F1028440000417F40007E020C02C2
:100573007C7E0402027C38444444387C14141408FE
:10058300081414187C7C08040408485454542004A8
:100593003F4440203C4040207C1C2040201C3C40E9
:1005A30030403C44281028440C5050503C44645480
:1005B3004C44000836410000007F0000004136082B
:1005C30000080408100808082A1C08081C2A080840
:1005D30004027F020410207F20101C2A322A1C1CD4
:1005E3002244221CBBB60434C404C43C20100FE8CC
:1005F30008082818000010080601828C40300C03FC
:100603000C1060C04000D3AD404244C800FC04025B
:1006130082FC040404FE04000040201F20474241E2
:10062300407F404244434040CAB94020F80704F4A5
:10063300141414FF141414F604000000FF00804384
:1006430045291917212141C34000D3C30000FE22CD
:10065300222222FE22222222FF02000080601F02A9
:100663000202027F020242827F000000B2CB040436
:100673002464A42F64A4242F945414060400024277
:100683004222120A06FF060A121222632200B5A5AD
:100693000000F8494A4C48F8484C4A49FC08000015
:1006A30010101712121212FF121212121318100046
:1006B300D1DD102166108CA4A4A4A5E6A4A4A4B43F
:1006C3000C000404FE01008F4A6A0A0F0A2A4ACF6B
:1006D3000000CABE40404242424242C242424243FA
:1006E30042604000001008040640807F00000204BE
:1006F3000C180000CFB500022222322EA262222261
:10070300910901000000000042221A43827E020286
:100713000A1366000000CDB32030AC633088C8A84C
:10072300998E88A8CC880000226722129240300F4D
:1007330000003F404041700004FF0113FF10C2005E
:100743000000FF0A1304FF011EFF10CF000000FF8B
:100753000A1304FF0129FF10DC000000FF0A130441
:10076300FF0134FF1136FF0A13FF0A130EFF013B8B
:10077300FF1136000000FF08250EFF0147FF113669
:10078300000000FF08250EFF0153FF113600000093
:10079300FF08250EFF015EFF1136000000FF08254C
:1007A3000EFF0167FF1136000000FF08250EFF0151
:1007B30074FF1136000000FF08250EFF0180FF11B2
:1007C30036000000FF08250EFF018AFF11360000E6
:1007D30000FF08250EFF0195FF1136000000FF08FA
:1007E300250EFF01A3FF1136000000FF08250EFFB1
:1007F30001AEFF1136000000FF08250EFF01BAFF0E
:100803000EB7000000FF08250EFF01C3FF0C6000B8
:100813000000FF08250EFF01CBFF1136FF0825FF5F
:10082300082506FF01D3FF1136000000FF0A130657
:10083300FF01DCFF1136000000FF0A1306FF01EA87
:10084300FF1136000000FF0A1306FF01F2FF113605
:10085300000000FF0A1306FF01FBFF1136FF076FBD
:10086300FF0A1306FF0206FF1136FF0A13FF0A13DE
:1008730008FF020DFF1136000000FF0A1308FF02F4
:100883001AFF1136000000FF0A1308FF0222FF11AE
:1008930036000000FF0A1308FF022EFF1136000086
:1008A30000FF0A1308FF023AFF1136000000FF0A97
:1008B3001308FF0245FF1136000000FF0A1308FF6B
:1008C3000251FF1136000000FF0A1308FF025AFF0E
:1008D3001136FF0A13FF0A1306FF0261FF113600E8
:1008E3000000FF0A1306FF026AFF1136000000FF33
:1008F3000A1306FF0277FF1136000000FF0A1306F2
:10090300FF0282FF1136000000FF0A1306FF029068
:10091300FF1136000000FF0A1306FF029DFF113688
:10092300FF0A13FF0A1305FF02A4FF112D000000A5
:10093300FF0A1305FF02B2FF1130000000FF0A1384
:1009430005FF02C0FF1133000000FF0A1305FF0279
:10095300CEFF1126000000FF0A1305FF02DFFF117F
:1009630036FF0A13FF0A130DFF02E6FF11360000DC
:1009730000FF0A130DFF02F4FF1136000000FF0A07
:10098300130DFF02FCFF1136000000FF0A130DFFD9
:100993000305FF1136000000FF0A130DFF030FFFCD
:1009A3001136000000FF0A130DFF031CFF11360070
:1009B3000000FF0A130DFF0325FF1136000000FF9F
:1009C3000A130DFF032CFF1136000000FF0A130D5D
:1009D300FF0336FF1136000000FF0A130DFF034427
:1009E300FF1136000000FF0A130DFF034FFF0E6EC9
:1009F300000000FF0A130DFF035CFF0C6000000002
:100A0300FF0A130DFF0364FF1136FF0A13FF0A13D6
:100A130007FF036CFF1136FF073B00000007FF03CE
:100A230077FF1136FF082500000007FF0381FF1140
:100A330036FF08DB00000007FF0389FF1136FF08BC
:100A43007300000007FF0395FF1136FF092900001B
:100A53000007FF03A3FF1136FF096A00000007FF29
:0B0A630003AFFF1136FF0A13FF0A1358
:0E1097000319FF0A13011E00011800011D00BD
:0D10A6007580FFC290D291D292AF80C292AD
:0110B300221A
:0D10B4007580FFD290D291D292AF80C2928F
:0110C100220C
:071117001210A6EF20E7F91A
:01111E0022AE
:04107300ED24B8FFB1
:10107700AE07121117C290C2918E80D292C29222ED
:10108700AE07121117D290C2918E80D292C29222CD
:100FE500EDC394405006D293C294800874C02DFD81
:100FF500C293D294EF24B8FF121077ED2440FF027C
:02100500107762
:0A110300ED33333354F8FD020FE51D
:100F2E00EF7006D293C2948010BF0106C293D29482
:100F3E008007BF0204D293D294E4FD1210737F4057
:100F4E00121077E4FCE4FF1210870CBC40F70DBDC5
:020F5E0008E9A0
:010F6000226E
:02104000AD07FA
:10104200D293D2947F40121077121073E4FDE4FF22
:071052001210870DBD40F7ED
:011059002274
:101025001211031210B4E4FE1210B4EF120BF17496
:0A1035000129F9E43AFA0EBE08EEB4
:01103F00228E
:100EF700121103E4FF121087E4FD75F005EBA4243B
:100F07004EF582E5F03403F583E5822DF582E4356D
:100F170083F583E493FF1210870DBD05DDE4FF120F
:070F27001087E4FF021087B0
:060DD9008F128D138B1434
:100DDF00E51375F006A404F513E4FBAD1312110D22
:100DEF00E4F51575F005E514A4244EF582E5F0340D
:100DFF0003F583E5822515F582E43583F583E493C6
:100E0F00FBE513251504FDAF1212110D0515E515A0
:050E1F00C3940540CE64
:010E240022AB
:040F61007BFFE4FD31
:100F65008F0D8D0E8B0F8A108911AB0FAA10A91149
:100F7500120BD86019AD0E050E0511E511700205AD
:0F0F85001014F9120BD8FBAF0D120DD980DC221E
:040FC0008F0FAC05DE
:100FC4007B007A007910121025AD04AF0F121103C3
:100FD400E4FD74102DF8E6F4FF1210870DBD08F23D
:010FE40022EA
:03112A00020FC0F1
:10105A008F0C8D0D8B0EAF0E150EEF600BAD0D05BF
:09106A000DAF0C12112A80EE22D8
:080E25008F0D8A0E8B0FAC0546
:100E2D00E50D25E0F50DEC25E0FCE4FBE50D2BFFD4
:100E3D00AD04121103E4FDEB75F010A4FFED758305
:100E4D00002FFFE58335F0FEE50F2FF582E50E3E11
:100E5D00F583E493FF1210870DBD10DB0BBB02CCA5
:010E6D002262
:100D8900E4FE8B828A83E493FC75F022EEA424E7C7
:100D9900F582E5F03405F583E493B5041C8B828A6A
:100DA90083740193FC75F022EEA424E8F582E5F042
:100DB9003405F583E4936C60040EBE0AC575F02210
:100DC900EEA424E9F582E5F03405AB82FA020E259A
:100F94008F0A8A0B8B0CA905850C82850B83E4933D
:100FA4006019AD0109AB0CAA0BAF0A120D897402CA
:0C0FB400250CF50CE4350BF50B80DD225C
:0A110D00AC03120FE5AF04021087D7
:101007007F02120F2E7F3E1210777FB81210777F64
:0E101700C01210777F401210777F3F021077D3
:07111F00C295D295021007F2
:011136002296
:0D10C2007BFF7A0079037D027F07020F6536
:0D10CF007BFF7A0079127D027F07020F651A
:0D10DC007BFF7A0079217D027F07020F65FE
:03112D00B2972254
:03113000B2962252
:03113300B2952250
:041126006390FF22B1
:0C10E9007FA57E3C7D01DDFEDEFADFF617
:0110F50022D8
:100EB7007F02120F2EE4FCFAECC39465501BEA5430
:100EC70007FFEC540FFDEC2420FB120EF71210E97C
:100ED7000CEC540F70E20A80DF7BFF7A0079307DDB
:100EE700027F07120F65E5B0F460FB7F02020F2E49
:100C60007F02120F2E7BFF7A007942E4FDFF120F04
:100C7000657A0079577F01120F617A00796D7F02E2
:100C8000120F617BFF7A007983E4FD7F03120F6509
:100C90007BFF7A007999E4FD7F04120F657BFF7A70
:100CA0000079AFE4FD7F05120F657BFF7A0079C5FF
:100CB000E4FD7F06120F657BFF7A0079D97D027F04
:0E0CC00007120F65E5B0F460FB7F02020F2EF5
:100E6E007F02120F2E7BFF7A0079EB7D027F02123A
:100E7E000F657BFF7A0079FC7D077F03120F657B80
:100E8E00FF7A0179047D067F04120F657BFF7A01DC
:100E9E00790D7D077F05120F651210E91210E9E535
:090EAE00B0F460FB7F02020F2E7C
:100D3300AB19AA1AA91B120BD8F51C851E1DE4F5C5
:100D43000BE51DC3951C503DE50BC394085036AF0E
:100D53000B121040E51D75F00DA4AB19251BF9E529
:100D63001A35F0FA900001120C03E4FDAF0B120FD9
:100D730065E51DB518097B0CE4FDAF0B12105A0590
:050D83001D050B80BC02
:010D88002248
:100A6E00EF2421602124F0604824F46038240460CF
:100A7E0003020B2E1518E518F46003020B2EE51C6D
:100A8E0014F518020B2EE51875F00DA4AB19251BE5
:100A9E00F9E51A35F0FA90000A120C03E94A7003D0
:100AAE00020B2E806B0518E518651C7073F5188007
:100ABE006FE51875F00DA4AB19251BF9E51A35F085
:100ACE00FA900004120C03EB8A838982F4700A7484
:100ADE00366582700474116583601BE51875F00D20
:100AEE00A4AB19251BF9E51A35F0FA900004120C87
:100AFE0003120C33802AE51875F00DA4AB19251BD3
:100B0E00F9E51A35F0FA900007120C03E94A601065
:100B1E008B198A1A891BE4F518F51E7F02120F2E07
:100B2E00E518131313541FF51E75F008A4F51E6572
:0E0B3E000A60087F02120F2E851E0A020D3378
:0C10F6007FCD7E747D09DDFEDEFADFF6A2
:0111020022CA
:100CCE0012111F7BFF7A0379B67D01E4FF120F65C7
:100CDE007BFF7A0379CB7D057F01120F657A037B4B
:100CEE00D77D037F01120F941210F67A037BDC7D01
:100CFE00027F02120F941210F67A037BE57D027FBB
:100D0E0003120F941210F61210F6AF08120A6E8527
:100D1E00B008E509650860F7AF08120A6E85080984
:050D2E001210E980EA4B
:03000000020B4CA4
:0C0B4C00787FE4F6D8FD75811E020B9343
:100BD800BB010689828A83E0225002E722BBFE021B
:090BE800E32289828A83E493224E
:100BF100BB010689828A83F0225002F722BBFE01E3
:020C0100F322DC
:100C0300BB010DE58229F582E5833AF583020C42A7
:100C13005007E92582F8020C39BBFE07E92582F863
:100C2300020C4BE58229F582E5833AF583020C54E5
:060C33008A838982E4734C
:100B5800020CCEE493A3F8E493A34003F68001F2D9
:100B680008DFF48029E493A3F85407240CC8C3339E
:100B7800C4540F4420C8834004F456800146F6DF6D
:100B8800E4800B0102040810204080901097E47E56
:100B9800019360BCA3FF543F30E509541FFEE49362
:100BA800A360010ECF54C025E060A840B8E493A329
:100BB800FAE493A3F8E493A3C8C582C8CAC583CA54
:100BC800F0A3C8C582C8CAC583CADFE9DEE780BE0C
:0110A500004A
:090C3900E6FB08E6FA08E6F922E0
:090C4200E0FBA3E0FAA3E0F922B3
:090C4B00E2FB08E2FA08E2F922DA
:0C0C5400E493FB740193FA740293F922FC
:00000001FF
