:03000000024503B3
:0C450300787FE4F6D8FD75817502454A0A
:10001E00152000A9B300A9B700A9BB00A9BF001EF7
:10002E0020001F2000A1FEA1FE00201500D0C7C693
:10003E00DA00C4EA00D4C200C8D500323000C8D5F8
:10004E00C6DAA3BA00CAB1BCE4A3BA00CEC2B6C81F
:10005E00A3BA00A1E6003A2D00A3BA0046462E46EA
:10006E00A1E6003A2000206B6579002020202000B8
:10007E0020521020002053212000D0DDCFA22020BE
:10008E0000CDEABDE1202000042000200900B2CB03
:10009E00B5A500B9A4BEDF00CAC7B7F1B1A3B4E6D7
:1000AE003F200059284F4B295C4E282E2F532900F4
:1000BE00B1A3B4E6B3C9B9A6A3A12000CAB100B7D3
:1000CE00D600C3EB00202000A1FA00A1BA00A1BB0C
:1000DE00002030003D2D00202D00B5C8D3DA00C918
:1000EE00BEB300CDCBB3F600D2E7B3F62121003D6F
:1000FE002000202020202020202020202020202012
:10010E002000CEC2B6C8BCC600C9E8B6A800201FE3
:10011E0000C3BBD3D0B7A2CFD600CEC2B8D0C6F7DD
:10012E00A3A100200400201E001120286F6B29209F
:10013E001000C9E82020B6A800BEAFB1A8CEC2B646
:10014E00C8A3BA00B8DFD3DAA1BE20202020A1BFF9
:10015E00A1E600B5CDD3DAA1BE20202020A1BFA1FB
:10016E00E6201000206F6666002D20002D20202036
:10017E0000C4D62020D6D300D7B4CCACA3BA11205D
:10018E002020201000C4D6C1E5A3BA001120002003
:10019E001000092000BCD32020CAB100B6D3313ADA
:1001AE00BAEC2020B6D3323AB0D7003234C3EB3A91
:1001BE00592020BDDACA3A3400C3BFBDDACAB1BC79
:1001CE00E43A203132B7D6D6D3003A003A10003A8C
:1001DE0059003A4E00BCD3CAB1CAB1BCE4A3BA00AE
:1001EE00B1C8C8FCCAB1BCE4A3BA00B6D3007374DC
:1001FE0000072D2D0700C0BAC7F2C6F700A1BE003A
:10020E00A1BF1020042000C9E8D6C300282E2F530A
:10021E00291000202A00202020202020202020200D
:10022E00202000C3DCC2EBB2BBCFE0CDACA3A1005B
:10023E00C8CED2E2BCFC201020202020001020B816
:10024E00FCB8C4B3C9B9A621284F4B292000B8FC6D
:10025E00B8C4CAA7B0DCA3A12020002020C3DCC2F2
:10026E00EBB4EDCEF3A3A100B1A3C3DC00C3DCC29B
:10027E00EBCBF800CAE4C8EBC3DCC2EBA3BA00B404
:10028E00A6BFAAC6F4D7B4CCACA3ACB0B4BCFC0029
:10029E00A1F5312DB3A3BFAAA1F5322DB9D8B1D591
:1002AE0000A1F6D7D4B6AFD1D3CAB13330C3EB2049
:1002BE002000A1F600A1F500C3DCC2EBCBF8BDAB6C
:1002CE00D4DA002035C3EBBAF3B9D8B1D5A3BA004E
:1002DE00A1CC00B8FC2020B8C400CAE4C8EBBEC94B
:1002EE00C3DCC2EBA3BA00D0C200C8B7C8CFC3DC10
:1002FE00C2EBA3BA202000B3F5CABCBBAF00CAC77D
:10030E00B7F1B3F5CABCBBAF3F2000C3DCC2EBD51F
:10031E00C8B7A3A1001020B3F5CABCBBAFD6D02E70
:10032E002E2E20001020CDEAB3C9A3A1284F4B29B1
:10033E0000B0E62020B1BE00D4BA0029200920006A
:10034E00BBB6D3ADCAB9D3C300A1AA4C694A480003
:10035E00BCFCC5CCCBF800D2BBB6FEC800CBC4CE1D
:10036E00E5C1F9C8D5B5F720202020D5FBB9A420CA
:10037E00202020BEDFC9E820202020D6C3B1A32034
:10038E00202020C3DCB0E620202020B1BECDCB2023
:10039E00202020B3F6B5F72020D5FBB9A42020BE2F
:1003AE00DFC9E82020D6C3B1A32020C3DCB0E620ED
:1003BE0020B1BECDCB2020B3F6BDF8C8EBA1BE2038
:1003CE002020202020A1BF0420C9E8D6C3A1BE2032
:1003DE00202020A1BF10200420BFAA2020CBF8B8D7
:1003EE00FC2020B8C4B3F5CABCBBAFCDCB2020B324
:1003FE00F6BCC6CBE3C6F7CEC2B6C8BCC6C4D620C2
:10040E0020C1E5C0BAC7F2C6F7CDCB2020B3F63077
:10041E0031323334353637383931283130313031A5
:10042E003130313031D77E7D7BBEBDBBDEDDDBB7FB
:10043E0077EEEDEBE77FBFDFEF2B202D202A202F6D
:10044E0020B9D8BFAA3330C3EBB3A3BFAAB9D8B172
:10045E00D5C4A33031C4A33032C4A33033CDBCC60F
:10046E00ACCEC4D7D6BDE2CBF8BCD3CBF8BFAAC6B0
:10047E00F4B9D8B1D5BAECB0D7C0B6C2CCD7CFBBD1
:10048E00D2BBC6BADAB1B3B9E2CFD4CABEB2CBB51B
:10049E00A5BCFCC5CCBEAFB1A8CDCBB3F6C7E5D4D9
:1004AE00B6D6B0D2B5BCBCCAF5D1A72020D0C5CF28
:1004BE00A2BFC6BCBCD1A7D4BA3038BDECB1CFD226
:1004CE00B5C9E8BCC620202020A1AA3035B5E7D793
:1004DE00D33032B0E0D7F7D5DFA3BAC0EEBDF5BB4F
:1004EE00AA2020D6B8B5BCA3BAC0EED7E6C3F72073
:1004FE0020B0E6B1BE3A4C494A482D56312E302036
:10050E00202020323030382F30362F3139D0BBD02A
:10051E00BBC4E3B5C4CAB9D3C3A3A12020202020F5
:10052E0020202020286F6B2910CAB9D3C3B7BDB7BE
:10053E00A8A3BA2020202020202020282B29282DD7
:10054E0029D3EB282A29282F29B7D6B1F0CAC7C13B
:10055E00BDB7BDB5C4B7D6CA00BCD3D3EBBCF52C62
:10056E00283729BCFCBBD8CDCBD2BBC3EB2C28384B
:10057E0029BCFC3234C3EBB8B4CEBB2C283929BC11
:10058E00FCD4DDCDA3D3EBBFAACABCA3BBD4DDCDB7
:10059E00A3D7B4CCACCFC2A3BAB0B4C1BDB4CE282D
:1005AE004F4B29BCFCBFC9B7B5BBD8CAB1D6D3C453
:1005BE00A3CABD2D32BDE7C3E6A3AC284F4B29BC61
:1005CE00FCB7B5BBD8B3CCD0F2BDE7C3E62C282E12
:1005DE002F5329BCFCC1BDB4CECDCBB3F6B3CCD01A
:1005EE00F22E2020202020201F03050104000205EA
:1005FE0001030002040103050204000401000201CC
:10060E0003020403000000030100020103020000C4
:10061E000005010002010302040305040081918319
:10062E0091859189818B818D818F918B818B918F1A
:10063E00918C818E818F9186908E808E9093978BE8
:10064E008F000000007FFFFFFE4000000240000010
:10065E00024000008247FFE1C247FFF3E2473868DD
:10066E000246DF688246DF69C246DEE88246DDE882
:10067E000246DDE802473DE80247FFE80247FFE990
:10068E00C24200180241FFF3E2400001C2400000E6
:10069E008240000002400000027FFFFFFE000000CB
:1006AE0000000000007FFFFFFE400000024000033C
:1006BE008241F007C243FFCFE2473FFE02473FFEB3
:1006CE000243FFCFE241F00FC24000038240000020
:1006DE0002400003C2400003C24180018243FFF387
:1006EE00C247FFFFE247FFFFE243FFF3C241800133
:1006FE008240000182400000027FFFFFFE000000EA
:10070E0000000000007FFFFFFE40000002431800C3
:10071E000244A40E0244A41F0243243F0240007F61
:10072E000240F0FC0243F9F0024303E002467780F8
:10073E0002467F0002467E0002467C0002473D00D4
:10074E0002431D81224381B24241C34FE240FE4A21
:10075E0042403C3242400000027FFFFFFE0000009C
:10076E0000000000007FFFFFFE4000000240FC037F
:10077E000241FE1F02438703824303030243030326
:10078E000243030F02430303024303030247FF83A3
:10079E000247FF830247CF83024787830247CF83F7
:1007AE000247CF878247CF8FC247CF9CE247FF8F4A
:1007BE00C243FF0782400000027FFFFFFE000000E1
:1007CE0000000000007FFFFFFE400000024000001E
:1007DE0002400F0062401D80F2403841F24070230B
:1007EE00E240E217C241E44F8241F09F02415916A6
:1007FE0002424C1D02424620824247004244438040
:10080E00C24444C1C244C863824550370246601E8A
:10081E000240400C02400000027FFFFFFE0000007D
:10082E0000000000007FFFFFFE400000024040FF7E
:10083E00E24060806243F080A243F08122406082F9
:10084E002240408422400088224000882247FFF840
:10085E002247FFF822462A2A2246E3782246777854
:10086E002246E37862462A388247FFF90247FFFAAA
:10087E000240000C02400000027FFFFFFE0000005D
:10088E000000003FFC5FFA6FF6700E700E700E7077
:10089E000E700E700E700E700E700E60064002001E
:1008AE000040026006700E700E700E700E700E70AC
:1008BE000E700E700E700E6FF65FFA3FFC000000A9
:1008CE000000000020006000E000E000E000E0001A
:1008DE00E000E000E000E000E0006000200000002A
:1008EE0020006000E000E000E000E000E000E0003A
:1008FE00E000E000E000E0006000200000000000EA
:10090E000000003FFC1FFA0FF6000E000E000E0056
:10091E000E000E000E000E000E000E00061FFA3F17
:10092E00FC5FF86000700070007000700070007066
:10093E00007000700070006FF85FFC3FFE0000005A
:10094E000000007FFC3FFA1FF6000E000E000E00A6
:10095E000E000E000E000E000E000E00061FFA3FD7
:10096E00FC1FFA0006000E000E000E000E000E0018
:10097E000E000E000E000E1FF63FFA7FFC00000068
:10098E0000000040026006700E700E700E700E7049
:10099E000E700E700E700E700E700E60065FFA3FC7
:1009AE00FC1FFA0006000E000E000E000E000E00D8
:1009BE000E000E000E000E000E00060002000000DB
:1009CE000000003FFC5FF86FF07000700070007068
:1009DE00007000700070007000700060005FF83FE3
:1009EE00FC1FFA0006000E000E000E000E000E0098
:1009FE000E000E000E000E0FF61FFA3FFC00000058
:100A0E000000003FFC5FF86FF07000700070007027
:100A1E00007000700070007000700060005FF83FA2
:100A2E00FC5FFA6006700E700E700E700E700E7017
:100A3E000E700E700E700E6FF65FFA3FFC00000027
:100A4E000000007FFC3FFA1FF6000E000E000E00A5
:100A5E000E000E000E000E000E000E00060002002C
:100A6E000000020006000E000E000E000E000E002A
:100A7E000E000E000E000E000E000600020000001A
:100A8E000000003FFC5FFA6FF6700E700E700E7075
:100A9E000E700E700E700E700E700E60065FFA3FC6
:100AAE00FC5FFA6006700E700E700E700E700E7097
:100ABE000E700E700E700E6FF65FFA3FFC000000A7
:100ACE000000003FFC5FFA6FF6700E700E700E7035
:100ADE000E700E700E700E700E700E60065FFA3F86
:100AEE00FC1FFA0006000E000E000E000E000E0097
:100AFE000E000E000E000E1FF63FFA7FFC000000E7
:100B0E00000000000070E053F077FA0E0E0C06188D
:100B1E00061802380230003000700060006000607D
:100B2E0000600060007000300030003800180218BD
:100B3E00020C060E06070E03FA00F000600000001D
:100B4E0000007E0001E78003C3C00781E00F80F044
:100B5E000F00F01F00F81E00F83E00783E007C3EAD
:100B6E00007C3E007C3E007C3E007C3E007C3E00D5
:100B7E007C3E007C3E007C3E007C3E007C3E007C49
:100B8E003E007C3E007C3E00781E00F81F00F80FF1
:100B9E0000F00F81F00781E003C3C001E780007E03
:100BAE0000000C00001C00007C0007FC00003C0054
:100BBE00003C00003C00003C00003C00003C0000FB
:100BCE003C00003C00003C00003C00003C00003CAF
:100BDE0000003C00003C00003C00003C00003C00DB
:100BEE00003C00003C00003C00003C00003C0000CB
:100BFE003C00003C00003C00003E00007F0007FF70
:100C0E00F000FF0003C7C00701E00E00F01E00F861
:100C1E001E00F83E00783E00783F00783F00781FB7
:100C2E0000F80000F80000F00001F00003E00003FF
:100C3E00C0000780000F00001E00003C000078007E
:100C4E0000F00001E00003C00007801C07001C0E2E
:100C5E0000381C00383C00783FFFF83FFFF83FFF9C
:100C6E00F800FE000787800F03C01E01E01E01F092
:100C7E001E01F01F00F01F00F01E00F00000F0003B
:100C8E0001F00001F00003E00003C0000F0000FEC1
:100C9E00000007800001E00000F00000F80000F8FE
:100CAE0000007800007C1E007C3F007C3F007C3FF3
:100CBE0000783E00F81E00F00F01E00787C001FF2C
:100CCE00000003C00003C00007C0000FC0000FC02B
:100CDE00001FC0003FC0003FC00077C00077C000BB
:100CEE00E7C001C7C001C7C00387C00707C0070719
:100CFE00C00E07C01E07C01C07C03807C03807C08B
:100D0E007FFFFE7FFFFE0007C00007C00007C00088
:100D1E0007C00007C00007C00007C00007E0007F43
:100D2E00FE0FFFF80FFFF80FFFF80E00000E000089
:100D3E000E00000E00000E00000E00000E00000E51
:100D4E0000000E7F000DFFC00FC3E01F01F01E005C
:100D5E00F81E00F800007800007C00007C00007C8B
:100D6E0000007C1E007C3F007C3F00783F00783EF8
:100D7E0000F81E00F01E01F00E01E00787C000FF14
:100D8E0000003FC000F1E003C1F00781F80701F851
:100D9E000F00F01F00001E00001E00003E00003E6F
:100DAE0000003E00003E3F803EFFE03FE3F03F800C
:100DBE00F83F00F83F007C3E007C3E007C3E003C4D
:100DCE003E003C3E003C3E003C3E007C1E007C1F34
:100DDE0000780F00780F80F007C0E003E3C000FF3B
:100DEE00001FFFFC1FFFFC1FFFF81F00381C0070C8
:100DFE001C00E03800E03801C00001C00003800094
:100E0E000380000780000700000F00000E00001E88
:100E1E0000001E00003C00003C00003C00007C0076
:100E2E0000780000780000F80000F80000F80000DC
:100E3E00F80000F80000F80000F80000F800007854
:100E4E000000FF0007C3C00F00E01E00F01E007878
:100E5E003C00783C00783C007C3E00783E00781FD9
:100E6E0000781F80F00FE1E007FBC001FF8001FF5B
:100E7E008007BFC00F0FE01E03F03E01F83C00F8E4
:100E8E003C007C7C007C78003C78003C7C003C3C48
:100E9E0000783C00781E00700F00E007C3C001FF11
:100EAE000001FE0007C7800F01E01E01E01E00F0EA
:100EBE003E00F83C00783C00787C007C7C007C7C1A
:100ECE00007C7C007C7C007C3C00FC3E00FC3E01F7
:100EDE00FC1F03FC1F8FFC0FFF7C03FC7C00007CBF
:100EEE000000F80000F80000F80000F00001F00F1C
:100EFE0001E01F01E01F03C01F07800F9F0003FCCE
:100F0E000000000039007B00FE01DC0F980F180C6A
:100F1E001F0C1F0F180F9801DC00FE007B0039001C
:100F2E00000000004000E001B001B00318031806F5
:100F3E000C0C060CE61B1B0C06060C03F800E0005E
:100F4E0000000001F803FC030C030C030C03FC0669
:100F5E00960EA70EC70EA70E9707FE03FC01F8000C
:100F6E000000001FF81FF801800180018001800140
:100F7E008001900198019C019E019C0018001000B8
:100F8E000000000000000003C003C003C003C00344
:100F9E00C003C003C003C003C00000000000000077
:100FAE0000000000000000000003C003C003C003E7
:100FBE00C003C000000000000000000000000000A0
:100FCE00000000000000001FF81FF80180018001E2
:100FDE00900198019C019E019C01980190000000D7
:100FEE00007FFE818183C187E18FF19FF980017FB0
:010FFE00FEF4
:104D9C00045638010101036C120000036912000073
:104DAC00015B1401751401680F015A0501710001B2
:064DBC00200002210000AE
:10100000E52B75F00CA4243C2528F8E6240AFFE51E
:101010002C75F00CA4243C227856E6FFC4540F90A3
:10102000041D9322FD7F01124EB50FEB8FF0A4F546
:101030008285F083EC75F004A42582FFE5F035830A
:10104000900650FE75F060E52A121DD8E5822FF556
:1010500082E5833EF583E4932275F060900B4F1296
:101060001DD875F003EC121DD8E493FD22E5292567
:10107000E02445F582E43406F583E493FBE5292575
:10108000E02446F582E43406F583E493F539753AB5
:1010900002753B1022FF7BFF7A0079D37D01227815
:1010A00073E6FF75F00CA42447F822E52925E02417
:1010B0003DF582E43406F583E493FBE52925E0243D
:1010C0003EF582E43406F583E493F539753A01225E
:1010D000F583E49375F006A424A3F9740335F0FABC
:1010E0007BFF7D03227873E6FF75F00CA42446F89D
:1010F00022753980753A01753B1022C396FF745CE6
:10110000252AF8A60722124E0A124C9F78697C0005
:101110007D007B007A00796C7E007F03021BD37513
:101120003980753A05753B107B8A7DFF7FFF22E58C
:101130002475F00A8490041D9322124EB5E538C43C
:101140003354E02410F582E4340FF58375F002EE99
:10115000121DD8E493227859E675F002A42465F9AB
:10116000740335F0FA7BFF7D012274482528F97459
:101170003C2FF8E627FD745C2EF8A60522E52375C2
:10118000F00A84E5F090041D9322E6C454F0F6E5DD
:101190002726F622E52625E02439F582E43406F5F3
:1011A00083E493FBE52625E0243AF582E434062225
:1011B0007A0179407D037F8222F529EF540F93F560
:1011C0002A7B007A0079297D01227A0279247BFF2B
:1011D0007D067F8922F531EF540F93F5327B007A3B
:1011E0000079317D0122F531EF540F93F5327B0008
:1011F0007A0079317D01227F987E3A12000EE590C7
:1012000064F022E52875F00CA4243DF8227BFF7DD4
:10121000037F82227A0379C77BFF7D087F8822E6DD
:10122000FFC4540F75F00AA4FBEF540F2B22EB758B
:10123000F002A4F58285F083EC75F004A42582FF0A
:10124000E5F0358322E4FEFDFCAB2BAA2AA929A8F0
:101250002822E52675F003A424F9F582E43405225A
:10126000E52675F003A424F8F582E4340522F5267A
:10127000EF540F93F5277B007A0079267D01227DBC
:1012800034E4FF024EB5F583E49375F006A424FF21
:10129000F9740322F583E49375F006A424E7F97446
:1012A00003227A0279827D057F90227BFF7A007982
:1012B000DF7D0122745C2529F8E6FF743C2528F8BF
:1012C000A6070528052922F532EF540F93F533E5DB
:1012D0003122E52384F526E52375F00A8422E6759C
:1012E000F002A42483F9740422FFE53525E024F0FC
:1012F000F582E4340FF583E49322124CF808A60734
:1013000022E53525E024EFF582E4340FF583E493FC
:10131000227847E6FFC3189622746F2527F8E62245
:101320007BFF7D037F82222489FF7BFF7A02792164
:101330007D012225E0242BF582E43406F583E49335
:10134000FB22EF139282C283EFC313FFD2830E22DC
:101350007837E475F001121DE4121BF9FD22E5381F
:10136000C43354E0240FF582E4340F227B007A006A
:1013700079327D01227A0079DC7BFF7D017F8F222B
:10138000A905AA06AB07F8E6FFE4FCFDFE22AF2F95
:10139000AE2EAD2DAC2C22F6783CE6785CF622E63B
:1013A000FFC4540FF531EF540FF53222124EB575CC
:1013B000F060227BFF7D027F8122785CE6783CF63C
:1013C00022745C252AF8E6227BFF7D087F9822F5AF
:1013D00083E493F539753A02753B0D227D30E4FFC5
:1013E000024EB5124DF27D807F8E2275F040E531C0
:1013F000121DD875F00222EF75F00A84E5F0227410
:1014000048252AF9743C252AF8E62275399D753A53
:1014100001753B037B80227FB87E8802000E7873C3
:10142000E6246FF8E6227C007D0AAF03121C677485
:101430001D2293F52D7B007A00792C7D01227F30CF
:101440007E7502000E25E0241FF582E43406F58344
:101450002225E02420F582E43406F58322E6FD12FD
:101460004DF208E6222401FFE433FE7866E66F229F
:10147000E527C454F0248BFF7BFF22758BB0758D5C
:101480003C22753980753A03753B1022F583E4934D
:10149000F5272225E02409F582E434062225E024FC
:1014A0000AF582E434062225E0242CF582E4340691
:1014B00022E6FD124E2B08E6D39F222536F8E4F6ED
:1014C0000536E5362275F002A4242FF9740422E4CF
:1014D000F52BF52AF529F5282274482528F8E62267
:1014E0007BFF7D017F9C22753980753A0422745CF4
:1014F0002529F8E62225E02415F582E43406222584
:10150000E02416F582E43406227BFF7D037F8222ED
:0B000E00EF1FAC0670011E4C70F622C4
:0E3FF2007F607EEA12000E7F607EEA02000E03
:07000300AE071FEE70FA22A8
:03000B0002477E2B
:10477E00C0E0C0D075D008C28C758AB0758C3CD2A2
:10478E008C785B16E67054785B7614D214A20BB05C
:10479E000F5035785FE6700B763B18E694004006B6
:1047AE00168003785F16785FE670047F0180027FC3
:1047BE0000785EE670047E0180027E00EE5F601B74
:1047CE00C28CC28EC2AF8013787106E6B43C0C76F2
:1047DE0000785A16E67004D2137605D0D0D0E032A7
:03001B00024C385C
:104C3800C0E0C0D075D010C28E12147BD28E7875A9
:104C480016E6701A787576147860E6D394004001F9
:104C580016D2147860E67006C28CC28EC2AFD0D06D
:034C6800D0E03267
:102FE300C2AFC28CC28E758911758AB0758C3C12C2
:0A2FF300147BE4F5A8D2A9D2AB22AA
:0F27F00075A0FFC2B2D2B1D2B020A7FDC2B022F5
:064EAF00FD124EB57D303E
:104EB5001227F0EF24FF92B2C2B18DA0D2B0C2B0DA
:014EC50022CA
:104D4C00E4FE12127FEE2480FD124EB57D80124ED1
:104D5C00B0E4FCE4FD7F01124EB50CBC20F50EBE98
:094D6C0020E07D36E4FF024EB5A3
:0B4EEC001213DC7D01124EB5024D4C8C
:1047EE00D2871213DC7D06124EB57D0C124EB50229
:0247FE004EEC7F
:0B4DE700E4FD7F8E124DF27DA57F9051
:104DF200C281C283D281E4FEBE0802AF0512134211
:074E0200BE10F5D283C2814E
:014E09002286
:104CF800E4FEC281C283D281121342BE08FAE4FFE5
:104D0800FED282D283EFC313FFC2833082034307EC
:094D1800800EBE08ECD283C281BA
:014D2100226F
:104B0F00124DE77856E6FD7F8C124DF27859E6FD8F
:104B1F007F8A124DF278577F8812145DFD7F8612BF
:104B2F004DF2786CE6547FFD7F84124DF2087F8240
:0E4B3F0012145D547FFD7F801213E3024DF2CD
:104A4800124DE7E4FD7FC0124DF27D747FC2124D16
:104A5800F27D147FC4124DF27D567FC6124DF27D51
:104A6800127FC8124DF2E4FD7FCA124DF27DFF7F1E
:104A7800CC124DF27FCE124DF27DB47FD41213E3E7
:034A8800024DF2EA
:104EC600AC05AB07E4FD7F8E124DF2AF03AD0412C5
:054ED60013E3024DF2A0
:104E0A007F8D124CF87856A6077F8B124CF878598A
:104E1A00A6077F89124CF87857A6077F871212FADD
:014E2A002265
:034C9C00124E0AAB
:104C9F007F85124CF8786CA6077F831212FA7F81FA
:104CAF001212FA796CE7785466700909E708667092
:0B4CBF0003D21022C210C217D2B32291
:104DC3007FC1124CF88F207FC9124CF87854A60784
:104DD3007FCB1212FA7FCD124CF8786FA6077FCFE4
:044DE3001212FA228C
:064F0000124B0F024A48AB
:104E4900D2B4C2B47F78120003D2B47F0C1200032B
:0A4E5900A2B4B392087F2802000300
:024E6300AD0799
:104E6500E4FBC2B4ED1392B47F0A120003D2B4ED91
:074E7500C313FD0BBB08EBAA
:014E7C002213
:104CCA007D01E4FCBC0802E4FDC2B474232DF8C0E3
:104CDA0000E6C313D000F6D2B430B40874232DF81A
:0D4CEA00E64480F67F0A1200030CBC10D7D0
:014CF700229A
:103F2C00E4FDFFC3E523648094805015D209E52499
:103F3C00F4FBE523F4FAEB2401F524E43AF52380B1
:103F4C0002C209E52430E00474062DFDE524C313F8
:103F5C0030E004740C2DFDE5241313543F30E004C1
:103F6C0074192DFDE524131313541F30E00474321F
:103F7C002DFDE524AE237804CEA2E713CE13D8F89A
:103F8C00F5248E23AF24EFF5238D24D215786FE61C
:103F9C00FE547FFDEFC39D4019300911EE30E7044C
:103FAC007E0180027E00A209E4335E6038C284D2B6
:103FBC00B6227870E6FE547FFDEFC39D501DEEF4E3
:103FCC006019300911E630E7047F0180027F00A2FE
:103FDC0009E4335F600FC2B6D28422D2B6D284C257
:053FEC0015C217D2B35D
:013FF10022AD
:104C6B00C2AFC28CE4F523F524124E497FCC124E11
:104C7B00637F44124E63123FF2124E497FCC124EA9
:104C8B00637FBE124E63124CCA123F2CD2AFD28C32
:014C9B0022F6
:044BC800AE07AC0583
:104BCC00E4FAEAC3953B5028E4F9E9C3953A501D41
:104BDC0012127FE5392AFD124EB5EB29124EAFADFC
:104BEC00060F124EB5AD04124EB50980DD0A80D207
:074BFC007D36E4FF024EB517
:104D22008B378A388939AE05AC071213DCAD041211
:104D32004EB5EED3940040111213507F01124EB5BE
:0A4D4200121350124EB51E80E92234
:1043D0007A00791E7F8012445B7A0079217D017F0B
:1043E00090124D227A0079247F9712445B7A0079EB
:1043F000277F981244657A00792A7F9F1244657A54
:1044000000792D7D017F92124D227BFF7A00793059
:104410007D017F9A124D221214827B807DFF7FFFE7
:10442000124BC81210F17B837DEF7FEF124BC81245
:1044300010F10B7DF77FDE124BC81210F10B7DDB04
:104440007F76124BC81210F10B7D557F55124BC869
:104450001210F10B7D557F55024BC87BFF7D011279
:0D4460004D227BFF227D01124D227BFF22A9
:104E7D007BFF7A0079337D027F80124D227BFF7A92
:0A4E8D000079337D027F86024D227A
:1049FF007BFF7A0079387D017F80124D221210F1F2
:104A0F007B80124A401210F10B7DC77FFF124BC8FB
:104A1F001214820B124A401210F17B857DFF7FE347
:104A2F00124BC875398012108E0B7DFF7FFF024B22
:094A3F00C87DFF7FFF124BC82265
:044276008F298D2AD5
:10427A00E52A75F003A4F52BD394064002152BE525
:10428A002AC394035005752C108003752C08E52960
:10429A00B40117E52A75F008A42473F9740335F0FC
:1042AA00FA7BFF7D047F82124D22E4FCE4FB1212AA
:1042BA007FE52C2480FD124EB5E52B24802B124E6F
:1042CA00AFE5296401701012122E90064F121043A6
:1042DA00F4121024F4801212122EFE75F060E52AF0
:1042EA0090064F121049121024FD7F01124EB50B91
:1042FA00EB640270B9052CE52CB42010E52AC394AE
:10430A000350097408252BF52BE4F52C0CEC6418E2
:09431A00709A7D36E4FF024EB5F5
:04496A008F358D36C2
:10496E00E4FE12127FAD030B124EB5AD36124EB0F1
:10497E00E5356401700F12135E12114AF4FD0F1229
:10498E00113AF4801112135EF58375F002EE1210D7
:10499E00667F0112113AFD124EB50EEE641070C212
:0749AE007D36E4FF024EB567
:104ACE008F35E53564017010F535121301F41212AD
:104ADE00E9F4124AF540F322E4F5351213011212ED
:104AEE00E9124AF540F522FDE5352497F539753A78
:104AFE0001753B017B9F124BC80535E535C3940804
:014B0E002284
:10400000753380753490786C12139FE4FEE4FC12D3
:10401000127FAD340534124EB5AD33124EB0E531DA
:104020001210590F1213ACE531900B5012105F12A1
:1040300013ACE531900B5112105F124EB5E5321200
:1040400010591213ACE532900B5012105F1213ACE2
:10405000E532900B5112105F124EB5E534B4A00951
:1040600074082533F5337534800CEC642070A0752A
:104070003384753490786D12139F0EEE6402708D48
:104080007538047B907D83E4FF12496A7538047BA0
:10409000807D8BE4FF12496A7534803002067538E2
:1040A000021240DA3001067538011240DAE534C3F5
:1040B00094A0500E20000BE4F538AB347D87FF123E
:1040C000496AE534B4A00E20000BE4F5387B807D0E
:0A40D0008FFF12496AE4FF024ACE96
:1040DA00AB347D87E4FF12496A74102534F5342223
:10279E0075339B7BFF7A00793B7D027F98124D2229
:1027AE00300B067538061227E6300208753802120D
:1027BE0027E6053330010E7538017B90AD33E4FF0B
:1027CE0012496A053320000BE4F5387B90AD33FFD8
:0827DE0012496AE4FF024ACE31
:0A27E6007B90AD33E4FF12496A2234
:02470B008F31EC
:10470D00E53124027A007940124775E53124047AA7
:10471D00007943124775E5312406FF7BFF7A007956
:10472D00467D01124D221211567F9A124D22121002
:10473D00181212C704124768785712101A1212C7AE
:10474D002403124768785812101A1212C72405FF55
:0B475D007B007A0079327D01024D22C2
:10476800FF7B007A0079327D01124D2222FF7BFF08
:064778007D01124D22221A
:0449B5008F31AE058B
:1049B900753290E4FC7D36E4FF124EB5AD32053216
:1049C900124EB5AD06124EB090088F1213EB1210AD
:1049D900650F124EB59008901213EB121065124E26
:1049E900B5BC0F0774082EFE7532800CBC20C67D3D
:0649F90036E4FF024EB59A
:10446D00786CE6786966700330160C786C7D801276
:10447D0044E67D811249B5786DE6786A6670033041
:10448D00160C786D7D831244E67D841249B5786EE5
:10449D00E6786B66700330161A786EE6FFC4540F1B
:1044AD00F9EF540FFAAF017D861249B5AF027D8742
:1044BD001249B53016227538057D821244F87B807D
:1044CD007D8AE4FF12496A7538057D851244F87BB3
:0844DD00807D8DE4FF12496AA5
:1044E50022E6FFC4540FF9EF540FFAAF011249B594
:0E44F500AF02227B90E4FF12496A753805225F
:104E97007F8112470B7BFF7A0079497D017F811261
:084EA7004D2212446D02279E0A
:104690007A00794C7F801247037A0079537F901219
:1046A00047037BFF7A00795A7D037F88124D2212DF
:1046B00011567F9A124D227BFF7A0079497D017F46
:1046C00083124D221210181211D57F84124D2275BB
:1046D000312F7857E612101C1211DB7F85124D2204
:1046E0007857E612101DF53175322F1211DD7F86D5
:1046F000124D22785812101A1211D57F87124D22AE
:0347000002279EEF
:084703007BFF7D03124D222211
:104B4D00786C12101A1211E67F93124D2275313ABC
:104B5D00786DE612101C1211EC7F94124D22786DB7
:104B6D00E612101DF53175323A1211EE7F95124D88
:0E4B7D0022786E12101A1211E67F96024D2257
:1041C0002008024143E523D39463403EE52375F084
:1041D000648490041D93F5311212D71242511211CA
:1041E0007DF53175322E12426812112FF53175327C
:1041F000207B007A0079317D017F8D124D227BFF7B
:104200007A0079617D017F8E80437BFF3009067AD9
:1042100000796480047A0079677D017F8A124D22DB
:10422000E523121131F531E52312425175312E1279
:10423000112FF5321242687BFF7A0079617D017F90
:104240008D800A7BFF7A00796A7D037F8B124D2275
:104250002275F00A84E5F093F5327B007A0079311B
:104260007D017F8B124D22227B007A0079317D0106
:064270007F8C124D22229A
:094EF700124690124B4D0241C01D
:10486700753102745C2531F8E6FF121131F5321209
:1048770013F793F533E53125E02481FF12136C120A
:104887004D220531E531C3940440D87BFF7A007986
:10489700717D017F86124D22785CE6640170267572
:1048A70032077860E6121131F53312136C7F9312D9
:1048B7004D227533077860E612117FF53212136CBB
:0548C7007F94124D2258
:0148CC0022C9
:102C60007590F0E59064F06002C11E7FE87E03126B
:102C7000000E052FE52F70067868E660011678686B
:102C8000E6FF7005200602D28630020F30110CEFED
:102C900070097867E6C394025001067868E670020E
:102CA000760F301211787306E6700218067872E615
:102CB000B40F037FFF22301103201406300B4E3077
:102CC0000F4B124C9C30041712446D786CE6703830
:102CD00008E6703408E670307F8112470B80293097
:102CE0000513796CE7786966700609E7086660186D
:102CF0001240008013124B4D786CE6700B08E670A2
:102D00000708E6700312469012110CC214300A36FE
:102D1000200F337A007974122E74E4F5307FE87E48
:102D2000031211FB600E75907FE590B47D037F7DEB
:102D3000227590F00530E530C394FA40E0D20F7A66
:102D4000007979122E7430100320010330153020E1
:102D5000172D786EE67002D2861211F76002C11E3E
:102D60001211F76002C11E1211F76002C11E7F9896
:102D70007E3A12000E301002B286200002B2B3304A
:102D80000A03200F0C30131C2004192005163011E3
:102D900013124C6BC20F300A037F1422301305123A
:102DA00041C0C213A20BB00F400281637BFF30AF62
:102DB000067A00797E80047A0079837D027F8B1207
:102DC0004D222014028163124867785EE670230862
:102DD000E6701F7862067962E7C3785D967BFF50E4
:102DE000067A00798880047A00798F7D037F8512C6
:102DF0004D227860E66009785EE6701E08E6701A7B
:102E0000C2B3123FF2785EE6700708E67003123F25
:102E1000F2D2B37860E670027618C21481637F4004
:102E20007E1F12000E2012047868760F300704D23D
:102E3000868002C286A21572105004D217D2B33017
:102E4000021030110D7867E6B402037FFF22E478A8
:102E500067F6E4F52FE52F90044393FFF590659016
:102E60006009AE90EE6F6003AF0622052FE52FB428
:042E700004E380DE19
:0A2E74007BFF7D027F96124D2222A3
:1048CD007590F0E590B4F0FB7F887E1312000E30EA
:1048DD000C1BC20CE4F52E7FD07E071211FB600479
:1048ED00D20C8009052EE52EC3943C40EA122C60B3
:1048FD00BFFF037FFF22E4F52EE52E90043393B521
:0E490D000703AF2E22052EE52EB410ED7F1409
:01491B002279
:104C03008F2C7BFF7A0079967D01124D227F107ED7
:104C13002712000EE52C64926005E52CB496087B00
:104C2300FF7A00792D80067BFF7A0079307D01AF12
:054C33002C124D2222AD
:104EDB007A007999121379124D227F987E3A02004B
:014EEB000EB8
:103C240030031B7A00799C1213B3124D221243D035
:103C3400121214124D2212111F124BC8801D124E63
:103C44007DE4F526AD26E4FF1242760526E526C37B
:103C5400940640F0E4FD7F01124276E4F526F52750
:103C6400300326E5271212621210D07F93124D22E0
:103C7400E5271210D47F8B124D22E527121254121D
:103C840010D07F9B124D22800EAD26E4FF124276A7
:103C9400AD277F011242768527261248CD8F28E56D
:103CA40028640B6008E528B4030B3003083003666E
:103CB400124EDBA11A30032EE528B4020A12125266
:103CC40012148C7F9A800DE528B4050D121260122F
:103CD400148C7F92124C03803DE528B401BC300360
:103CE400B97526058030E528B403051212528023E5
:103CF400E528B401051212608019E5286402600603
:103D0400E52864057094E52675F003A424F7F5828C
:103D1400E4340512148CE528640B6021E528B4030F
:103D2400047F0180027F00E528B401047E01800243
:0F3D34007E00EE4F700281642003028164AF268F
:013D4300225D
:104323007A0079A11213B3124D221243D012121440
:10433300124D2212111F124BC8E4F527F526E5266C
:104343001214931212861210DD7F93124D22E5266A
:1043530012128A1210DD7F8B124D22E52612149D54
:104363001212861210DD7F9B124D228526271248DA
:10437300CD8F28E528B401057527048039E5286425
:104383000B6005E528B40305124EDB8029E528B44C
:10439300020FE52712149DF583E493F5267F9A8097
:1043A30012E528B405C8E527121493F583E493F5C1
:1043B300267F92124C03E528640B600EE528640304
:0C43C3006008E528640160026141AF273A
:0143CF0022CB
:104A8B00124EECC20F7BFF7A0079A67D057F921246
:104A9B004D227A0079B11211CE124D221248CD8FD0
:104AAB002AE52AB40B177BFF7A0079BE7D057F9A26
:104ABB00124D227F507EC312000ED20F22E52AB474
:034ACB000ADA22E2
:10491C007A0079CA7F8A1249627A0079CD7F8C122B
:10492C0049627BFF7A0079D07D017F8E124D22780F
:10493C006C12101A1211B97F89124D22786D121057
:10494C001A1211B97F8B124D22786E12101A121195
:06495C00B97F8D024D221F
:084962007BFF7D01124D2222B2
:104E2B00BD0208EF540370037F1D22ED540FFFEDFD
:0E4E3B00C4540F75F00AA42F90042693FF2292
:104611007D047857E6FFD394014031EF121221FB5C
:10462100E4FFEB14FEEFC39E5022EF90042793FEAC
:10463100C4540F7859F675F00AA4F6EE540F26F615
:10464100E675F00784E5F02DFD0F80D6785612123D
:104651001FFBE66016EB24FFFFE434FFFEEF780258
:10466100CEC313CE13D8F92B042DFDEB54037009DF
:104671007857E6D3940240010D785812121F2DFF8E
:0E468100E433FE7C007D07121C127859A6055A
:01468F002208
:1033C800E4F5281249FF7A0379A312120D124D224F
:1033D800124C9C7F9012470B1210967F9A124D2226
:1033E80012491C7BFF7A0079D67D017F9F124D22FE
:1033F8007BFF7A0079D97D017F90124D22121375D7
:10340800124D22E4F526F527C20CE526121333E502
:10341800261214A71210C6753B0DE4FDFF124BC807
:10342800E527121333E5271214A71210C6753B0DB2
:103438007DFF7FFF124BC88527261248CD8F27E5D1
:1034480027C394005002A148E527940A4002A148E6
:10345800E5261460201460371460621460791470D3
:103468000281F924056002A1157856300C1F12114B
:103478008AC20CA115300C13785712118AE6D3941E
:10348800124004A627A115C20CA1157857A1113026
:103498000C27785812118A7856E6FF5403700B08E7
:1034A800E6B4020608E6641D606378571214B1405A
:1034B80004A6278058C20C80547858804C300C13CE
:1034C800786C12118AE6D394234004A627803EC262
:1034D8000C803A786C8032300C13786D12118AE6C1
:1034E800D394594004A6278024C20C8020786D808C
:1034F80018300C13786E12118AE6D394594004A63A
:1035080027800AC20C8006786EA627D20C7856E669
:10351800FF081214B1400276017857E6700276016E
:103528007858E670027601E526C3940350077F9029
:1035380012470B800312491C1210967F9A124D22D3
:10354800E527B40B05E52604800FE527640A600229
:103558008142E5267002814214F527C20CE526B4A3
:1035680006047F0180027F00E527B407047E0180FE
:10357800027E00EE5F70028112124611124A8B30F1
:053588000F03124B0FC0
:01358D00221B
:04458F008F348D35A3
:10459300E5346402701DE535700EF536E536249872
:1045A30012109512460640F4E4F536745C1214BBFF
:1045B300B40CF8E534C394025048E5357032E53461
:1045C3007018F536E536249012109512460640F41D
:1045D3001212AB7F95124D228016E4F536E5362490
:1045E30088121095124D220536E536C3940640ED28
:1045F300E4F536E5341210111214BBB40CF505348E
:0246030080B184
:0C46050022124D220536E536C394062231
:0240EA008F2A1B
:1040EC007873E67020783CE6B4011A7BFF300E0A38
:1040FC007A0079E27D017F9880087A0079E57D016C
:10410C007F90124D2212109FE6FEFDEF1210E9E691
:10411C00FF600FEE2401FBE433FAEF6B7001EA60F1
:10412C00010DEDC313F52CC3E52A952C2405F52AB6
:10413C00752B01C20DED30E015752C207873E6124D
:10414C001205E690041D93F52D1241B2052B052A9C
:10415C0012109FE52BD396504CEF1210E9E6FFB5E9
:10416C002B0A200D07752C2ED20D80127873E612B7
:10417C001011252BF8E690041D93F52C052BEFB5AB
:10418C002B0A200D07752D2ED20D80127873E61296
:10419C001011252BF8E690041D93F52D052B1241DB
:0541AC00B2052A80AB02
:0F41B100227B007A00792C7D01AF2A124D222249
:102555007528147873E6C394024002E19B1248CDB6
:102565008F28E528641460F5E528640B7066F52866
:10257500F529E52825E02445F582E43406F583E4CC
:1025850093FBE52812107FE4FDFF124BC812106D76
:102595007DFF7FFF124BC81248CD8F28E528B40A6E
:1025A5000F8529280529E529B403C7E4F52980C243
:1025B500E528B40B16E529700575280B800DE5296E
:1025C500B4010575281080037F002212106DE4FD0B
:1025D500FF124BC8E528C394004067E528D394094A
:1025E50050607874E6FFC3940A505718E6FEB401AC
:1025F5000E7848E6B40F08EFD394084002A162783C
:1026050074E664027015EE121205E6700E1210E5FE
:10261500E67008EF121205A62880177874E6FF18F1
:10262500E6FE1210112FF8A628EE1210A3A60778C1
:1026350074067873E670047F9080027F881240EA02
:10264500A162E528640A70307874E6FFC3940A50E5
:102655002718E6FE1210E9E66002A162EE1210A349
:10266500E67873700BE61210E97602787406A162BB
:10267500E61210E9A607A162E528B410197873E6F9
:10268500FFE4FD12458F7874760118E67002A162A9
:102695001608760AA1627873E6FFB401187853E646
:1026A5006013E528D3940B400CE528941050067868
:1026B50072A6288041E528B40B077853E67002A17D
:1026C50062E528B40B077853E660028029EF6011B4
:1026D5007873E664016002A16208E664016002A104
:1026E50062E528D3940B5002A162E52894104002BC
:1026F500A162E47873F612109FE6FEEF1210E9E688
:10270500FFD39E5003EF700D7873E6FFEE04FEEFE6
:102715001210E9A6067873E6FF75F00CA42446F9B5
:10272500EF1210A3E6FFC39740147873E612101159
:102735002FF8E670097873E61210A31680D7787320
:10274500E670117848A628E5281214C51211627F93
:1027550088124D227847E670081212AB7F95124D0C
:10276500227874760112109FE6FE7874E6FDD39EFA
:10277500500EEF1210112DF8E6700578740680E5FD
:10278500787416E6B5060718E61210A3E4F6787411
:0827950076011806A1587F012E
:01279D002219
:101DF400E4F52A7847E6FE60057853E670037F0031
:101E0400227853E6FF2EC3784696C378529624026E
:101E14007866F6752909785376017E0174482EF8A0
:101E2400E670067853060E80F37E01743C2EF8E6C5
:101E340070030E80F678677609785C76097853E645
:101E4400FDEFC39D5002E12474482FF8E67002E1CF
:101E54001E7847E6F528785CE6F529E528C39E5008
:101E640002E11E74482FF8E6FD743C2528F8E68D3F
:101E7400F0A4F52A75F00A84745C2529F8E5F026A7
:101E8400F6E52A75F00A84F52A745C2529F8E6FD3E
:101E940075F00A84252AF52AED75F00A84A6F0E582
:101EA4002964017043E52A7007E528B50602806AB3
:101EB4007866E6D39400402D752909745B2529F8CA
:101EC400E6FD745C2529F8A6051529E529B401EB7E
:101ED400752901745C2529F8A62A786776011816F5
:101EE400785C0680037FFF22E529D394014015E541
:101EF4002914FD786796500CE52A6004A605800431
:101F04007867A629E529D39401400B1529745C252B
:101F140029F8E52A26F61528C15F1F785C16C14109
:101F24007867E6245CF8E6700578670680F2121399
:101F3400987D01E4FF12458F7866E6FFD39408404C
:101F440032EF24F6FF08E6FE2FF52AD39407400368
:101F54007F0022E52A2402F5288E29E528C3940A65
:101F640050051212B480F4784676020876091213EA
:101F7400BAE1EB1213BA7867E6FFC3740A9FF52A35
:101F840018E6FEC3952A4030EE04F528752909E5C4
:101F940029C37867964014745C2529F8E6FE743CDE
:101FA4002528F8A6061528152980E47846760278AF
:101FB40066E6047947F7802F7528018F29E529C340
:101FC400940A50051212B480F4C3740A786796799F
:101FD40047F718E6FF70087847E60419F78008C346
:101FE4007847E69F0418F6121311400C743C2FF83E
:0A1FF400E6700578471680EF7F01C4
:011FFE0022C0
:102800001214CFF52FF52EF52DF52CF5337853E670
:1028100070037FFF227847E67002FF227532017451
:10282000482532F9743C2532F8E66770070532E531
:1028300032B40CEBE532B40C1D783CE6F5307D018A
:10284000E4FF12458F783CA632087601784676027E
:102850000876017F0122C37953E7785296FF7847C3
:10286000E6FEC31896C39FF533D364809480400678
:10287000EE9533048009C3EE95337847F60418F6D5
:102880007866F67531011214CFE531D3785396503E
:10289000227F0A121245121CAAC004744825311264
:1028A0001380D000121C9D8F2B8E2A8D298C280519
:1028B0003180D67F01121245C3121DC7700E786693
:1028C000E6D3940A40037FFF227F0122753201750F
:1028D0003001783DE6FFE48F2FF52EF52DF52CE540
:1028E00032D394094048785DE6702D7866E664023C
:1028F0006026753201745D2532F8E6FF745C25327E
:10290000F8A6070532E532B409EBE47865F608E687
:102910006001167532098016E530C378479640028B
:1029200021B7E530C31896400221B77FFF2212126B
:102930004912138E121D35745C2532F8A607121346
:102940008E121249121D35AC00AD01AE02AF038FDD
:102950002F8E2E8D2D8C2C05300532E530D3784707
:1029600096400EE4FFFEFDFCA82C121DC7700280ED
:1029700046E530D37847965028E530C3940A502175
:10298000E47F0AFEFDFCAB2FAA2EA92DA82C121C59
:10299000AAC004743C2530121380D000121C9D8004
:1029A0000C12138EE47B0AFAF9F8121CAA8F2F8EF0
:1029B0002E8D2D8C2C01DFE5321478671213977D54
:1029C00001E4FF12458F753201745C2532F8E67020
:1029D00015E5321214657001EE600BE532C30896FE
:1029E0005004053280E3E5327867667002FF22C347
:1029F0007866E6953204F6753001E532D37867964D
:102A00005014745C2532F8E6FF743C2530F8A607B4
:102A10000532053080E41213BA7866E67846F6E5AA
:102A2000301408F6121311400C743C2FF8E67005B0
:072A300078471680EF7F01DB
:012A3700227C
:103800007847E6FD70077853E67002FF22ED7017E7
:10381000F5281214D9FF743C2528F8A6070528E5D9
:1038200028B40CEE7F01227853E670037F012278E2
:1038300046E614FF7852E614F528EFD395284004A5
:10384000AE078002AE28EE047866121397EED3948A
:10385000004035EFD39400400FE528D39400400892
:1038600012116A1F1528801DEFD39400400FE52820
:10387000700B743C2FF8E61211751F80081214D9D2
:1038800012117515281E80C57866E6FE7846E6FF9B
:103890007852E6F528EEC3940A504C7847E6FDEFDF
:1038A0009D400AE528D37853964002803AEFD39D95
:1038B000500FE528785396500812116A0F0528809A
:1038C000237847E6FDEFD39D5012E52878539640C4
:1038D0000B743C2FF8E61211750F80081214D912E0
:1038E000117505280E80AE1E7867A606E4FFEED39C
:1038F0009400401B745C2EF8EF26F6E4FF745C2EF7
:10390000F8E6D39409400574F626F60F1E80DFEF23
:10391000640170227866E6B40A037FFF227E097490
:103920005B2EF8E6FF745C2EF8A6071EBE01F07849
:103930005D76017866067D01E4FF12458FE4FE7432
:103940005C2EF8E6FF743C2EF8A6070EBE0CF012B3
:103950001311400C743C2FF8E6700578471680EF81
:023960007F01E5
:013962002242
:102000007847E6FE70077853E67002FF22EE702AEA
:1020100075290174482529F8E6FF743C2529F8A69E
:10202000070529E529B40CEB783CE670047F0180B4
:10203000027F00783CA6077F01227853E670037F79
:1020400001227852E6FF7846E6FED39F4002802DBB
:10205000EFD39E4002802E752A011213FF6770078E
:10206000052AE52AB40AF3E52AB40A0A7D01E4FF49
:1020700012458F7F00221213FFD3974008E4F52BFF
:10208000752C018006752B01E4F52CE52B1210E967
:10209000E614F528E52C1210E9E614F52985282A1E
:1020A000E52A047866F6E4785CF6E52AD3940050D5
:1020B000022137E528D394004047E529D394004016
:1020C00040785CE612100E2529F8EF26F6E4785CDD
:1020D000F612100F2529F8E6FFE52B12101125281E
:1020E000F8E6FEC39F4004EE9F800D785C760112F7
:1020F00010002529F8C3EF961210FD152815298028
:1021000032E52B1210112528F8E6FF785CE6FEEF89
:10211000C39E500AEF240AC39E1210FD8015E52BC2
:102120001210112528F9C3E7785C1210FCE4785CE2
:10213000F61528152A01AA7866E6F52AE52B12106D
:10214000E9E6F528E52C1210E9E6F529E52AC3941D
:102150000A40024156E52B1210A3E6FFE528D39F63
:10216000400DE52C1210A3E529D39640024156E517
:1021700028D39F505AE52C1210A3E529D396504F2F
:1021800012100F2529F8E6FFE52B1210112528F86B
:10219000E6FEC39F4007EE9F1210FD802C12100038
:1021A0002529F8EF1210FB785CA62A152AE52AD318
:1021B000940040101213C170047609800316800445
:1021C000152A80E9785CE6F52A052805298055E579
:1021D0002B1210A3E528D396501BE52C1210A3E573
:1021E00029D3964010E52B1210112528F8E612107D
:1021F000FD0528802F12100F2529F8740A1210FBF4
:10220000785CA62A152AE52AD3940040101213C13F
:10221000700476098003168004152A80E9785CE64C
:10222000F52A0529E52A64097028785DE670237887
:1022300066E66402601C752A01745D252AF8E612C0
:1022400010FD052AE52AB409F0786616E418F6753B
:102250002A08052A214C152A7867A62AE52B70053D
:10226000121398800F783CE670047F0180027F0093
:10227000785CA6077D01E4FF12458F752A011213D1
:10228000C1700EE52A1214657001EE6004052A8003
:10229000EDC37866E6952A04F6752801E52AD37819
:1022A000679650111213C1FF743C2528F8A6070544
:1022B0002A052880E71213BA7866E67846F6E528FC
:1022C0001408F6121311400C743C2FF8E6700578D0
:0622D000471680EF7F01BC
:0122D60022E5
:10300000E47872F61249FF7A0379FF12120D124D1D
:10301000227A0079E87F961231E87A0079ED7F8E86
:103020001231E87BFF7A0079F17D027F9E124D22FA
:103030001231BEE47873F62166C20E1225558F2632
:10304000E5266401704E7848E6FFB40C05783CE64E
:10305000600AEFB40D0D783CE6B401071238008F1A
:103060002680317848E6B40C07783CE66401600BB2
:103070007848E6B40D0C783CE670071220008F26E5
:1030800080127848E6B40E07121DF48F26800512D0
:1030900028008F26E526700221BDE47873F60876B5
:1030A00001D20EE526601D14603A240270451231EB
:1030B000BE7BFF7A0079F67D037F8A124D22E47889
:1030C00072F6802F7872E6702A7D017F0212458F9A
:1030D0007D01E4FF12458F1231DA1212AB7F9D128F
:1030E0004D22800F7872E6700AD20E1231DA7F9884
:1030F0001240EA7872E670051248CD8F27C20EE5BD
:1031000027D3940B400CE52794105006E526640164
:1031100060057872E66054E4FD7F0212458FE4FD9D
:103120007F0112458F7BFF7A0179007D067F901227
:103130004D227847E6700A1212AB7F95124D22801D
:10314000057F901240EA7872E66002F527E4787213
:10315000F6E5271214C51211627F88124D227848B5
:10316000A627787376010876010139E527C3940014
:103170004023E527940A501DE526B401181231CCEE
:10318000783DA6277847067F901240EAE47873F6E8
:103190000876020139E527640A701DFD7F02124599
:1031A0008FE4FDFF12458F1210E57602EF1210A397
:0D31B00076017874760201391231CC0139B4
:1031BD0022E4FD7F0212458FE4FDFF12458F22E4CC
:1031CD00FD7F0212458FE4FDFF12458F227BFF7AB2
:1031DD000079FD7D017F98124D22227BFF7D021229
:0331ED004D22224E
:103AC400124EEC1249FF7A0179107F82123BFC7A84
:103AD4000179177D037F98124D227A0079F17F9E38
:103AE400123BFC7A01791C7D017F8E124D227D856B
:103AF4007F0A1249B5D20A20080261B4E523D3949F
:103B040063402575F0641212D275F00A8485F0279B
:103B14007D80AF261249B57D81AF271249B51211B8
:103B24007DF5267D82FF80457539901210F47B80E7
:103B3400E4FDFF124BC87539901210F47B88E4FD44
:103B4400FF124BC830090912140B7DFC7F3F80061D
:103B540012140BE4FDFF124BC875F00A1212D28541
:103B6400F0277D81AF261249B57D82AF271249B572
:103B740075262E12112FF5277F8B123C10E5241287
:103B8400117FF526B43105752732801DE526B4373B
:103B9400057527358013E52664386005E526B431BC
:103BA4000575273780037527307F8C123C10801DE4
:103BB400124EEC7A01791F7F92123C1C7A0179280B
:103BC4007F8C123C1C123FF2C20A7F00221248CDA5
:103BD400EF6402600241FB7A017931123C0612144F
:103BE400177A017934123C067BFF7A0179377D0418
:073BF4007F9A124D227F01B0
:103BFB00227BFF7D03124D227BFF227BFF7D017F0A
:103C0B008E124D22227B007A0079267D01124D22E5
:093C1B00227BFF7D04124D2222E0
:10180000C20AC20F124DC3300F1C75399012108ED0
:101810007B88E4FDFF124BC875399012108E7B8EC9
:101820007DFF7FFF801A75399012108E7B887DFFB7
:101830007FFF124BC875399012108E7B8EE4FDFF2E
:10184000124BC81248CD8F26E52664016005E526B7
:10185000B40302B20FE526B405037F0122E5266436
:101860000B70A4300F02FF22124EEC1249FFE4F578
:1018700026F527C20F1249FF7BFF1211B0124D222D
:101880007BFF7A0179477D057F90124D227BFF7A9D
:101890000179527D077F88124D227A0179611213F6
:1018A000C8124D22E5276402E52725E02439F58298
:1018B000E43406F583E493FBE5271211A61213CF57
:1018C000E4FDFF124BC8E5266402700F121194125A
:1018D00010C6753B0D7DFF7F0F800A121194121305
:1018E000CF7DFF7FFF124BC8852627C20CC20FE4B5
:1018F0007873F67873E6FFC454F0248B08F6746F9F
:101900002FF8E6B4FF0B7A0179727D02121AF921E1
:101910008E7872A62708E6246FF8E6D3947F4033CA
:101920007A0179777D01121AF912141E2480FBE4E2
:1019300034FFFAFE1214262FF58274043EF583E478
:1019400093F526AE021214262DF58274043CF5831D
:10195000E4802C75262012141E75F0648490041DFA
:1019600093F527B430037527207874E6121AEC1229
:10197000141EFF75F00A8412117FF5261213F793D7
:10198000F5277874E604121AEC7872E6F527787376
:1019900006E6C39402500201F31248CD8F26E526D5
:1019A000B40D0BD20F1214707A01797A800FE526EC
:1019B000640C7025C20F1214707A0079797D0212BE
:1019C0004D221248CD8F26E526C394004006E52619
:1019D000940A4005E526B40BC5E526B40E07746FDE
:1019E0002527F876FFE526C3940050024177E526C7
:1019F000940A40024177E527C39402507A300C5C88
:101A0000C20C300F09746F2527F8747F56F6121335
:101A100019FFD394184007200F0476F08008EF7563
:101A2000F00AA42526F6300F0A121319D394324077
:101A3000027632200F0A121319D394784002767876
:101A4000200F0A121319C394645002D20C300F15E0
:101A5000121319C3940A500DD20C8009746F2527F4
:101A6000F8A626D20C746F2527F8300F067480462E
:101A7000F68004747F56F6E526640B70307870E6C5
:101A8000FFF4602418E6FEF4601EE5277009EEC33B
:101A90009F500408E618F6E527B4010C786FE6FFBE
:101AA00008E6D39F4002A607E52704800FE52664D9
:101AB0000A600201EFE527700201EF14F526C20C5F
:101AC000C20FE5266403600201A4E52764026002F8
:101AD00001A4124A8B300F11786FE6FD7FCC124EB5
:0B1AE000C608E6FD7FCE124EC67F0157
:101AEB0022FF7B007A0079267D01124D2222787429
:081AFB00E6FF7BFF124D2222E1
:0F17F000D20F123AC4BF0107121800EF70F22295
:0117FF0022C7
:102A3800124EEC1249FF7A01797F121320124D22AF
:102A48007BFF7A0179867D067F91124D227BFF7A82
:102A58000179937D037F89124D227A0079D67F9F71
:102A6800122C337A0079D97D017F90124D221213EE
:102A780075124D22C20CE4F528F529785412101A63
:102A880012126E7F8C124D227BFF7A0079717D01C4
:102A98007F8D124D22785512101A12126E7F8E12E7
:102AA8004D22E528701FA201122C3D7A01799A7FE8
:102AB80094122C337A01799D7D017F96124D221252
:102AC80010AB122C56E528D394004041E528940415
:102AD800503BE52970121210967F94124D22121065
:102AE800967F96124D2280061210AB122C56E528BE
:102AF80025E0243DF582E43406F583E493FBE528DC
:102B08001210BD753B0E7DFF7FFF124BC88528292B
:102B18001248CD8F28E52864016006E52864037013
:102B280047E5297043B201E5287BFFB4010A7A0121
:102B380079A07D017F9480087A0079997D017F963C
:102B4800124D22121417E5287BFFB4010A7A017985
:102B58009A7D017F9480087A01799D7D017F961284
:102B68004D22A201E4122C3DE529D394004079E5D9
:102B78002994035073E528C39400406CE528940A0F
:102B88005066300C3D74532529F8C000E6C454F053
:102B9800D000F674532529F8E52826F6E529B4016E
:102BA8000C7854E6D394234004A628801EE529B463
:102BB800020C7855E6D394594004A628800DC20C1F
:102BC800800974532529F8A628D20C74532529F8AE
:102BD80012101AF526EF540F93F527E52925E0245E
:102BE8008AFF121276124D22E528B40B07E5290454
:102BF800F5288011E528640A60026118E529700249
:102C0800611814F528C20CE5286404600241AA1270
:102C18004A8BAD207FC0124EC67854E6FD7FC8129D
:0A2C28004EC608E6FD7FCA124EC634
:102C3200227BFF7D01124D227BFF223325E0FFE440
:102C420033FE744F2FF974043EFA7BFF7D017F95AA
:0E2C5200124D2222753B0EE4FDFF124BC822EC
:1031F000124EEC1249FF7863E67BFFB4010D7A01B1
:1032000079A37D037F82124D22800E1211B0124DE0
:1032100022E4783CF678487601E47862F6785C76C9
:103220000108760408760C08F60876187BFF7A0108
:1032300079AA7D077F90124D227BFF7A0179B97DB3
:10324000077F88124D227A0179C71213C8124D22C6
:10325000E4F52AF529E52AB404097A0179D812148B
:10326000E08009E52A90064B93121095124D22E555
:1032700029B404097A0179DA1214E0800FE5299063
:10328000064B93FF7BFF7A01799A7D01124D2285CF
:10329000292A1248CD8F2BE52B64016008E52B64A9
:1032A00003600261A8E52914601114605414607B66
:1032B00014700261662404600261A8E52BB4011158
:1032C000E529121011F8E6D3940040031680027627
:1032D00007E52BB40311E529121011F8E6C3940792
:1032E0005003068002E4F6E529121011F81212DEEE
:1032F00035F0FA7BFFE52990064B9314FF7D0180A2
:1033000060785CE6D394004004E4F68004785C7650
:1033100001785CE6D394007BFF40067A0179DD807A
:10332000047A0179E07D017F8A8036E52BB4010FB4
:10333000785DE6D394014003168004785D7604E559
:103340002BB4030F785DE6C3940450030680047821
:103350005D7601752C3A785DE690041D1214327F7B
:103360008E124D228042E52BB4010F785EE6D39495
:10337000004003168004785E763CE52BB4030F789A
:103380005EE6C3943C5003068004E4785EF6785E03
:10339000E6FF121131F52C1213F71214327F9D1231
:1033A0004D22785EE67861F6E52BB40B080529E539
:1033B0002964056012E52B640A60024155E5297015
:0733C000024155152941559A
:0133C70022E3
:103E3B007863E67BFFB401067A0179E380047A01AB
:103E4B0079EE7D057F80124D22783C1212DE121125
:103E5B00627F98124D2278481212DE1211627F9EF9
:103E6B00124D227F99123F137F9F123F13752930FA
:103E7B007862E690041E93F52A7B007A0079297DFF
:103E8B00017F9B124D227BFF7A0179FC7D017F9C88
:103E9B00124D22753990753A02753B017B837DFF7C
:103EAB007FFF124BC875398F753A02753B017B8BBF
:103EBB007DFF7FFF123F067B83E4FD7F80123F0671
:103ECB000B7D01E4FF123F1F7B8BE4FD7F80123FD4
:103EDB001F0B7D01E4FF124BC8124867785CE6703C
:103EEB000D7BFF7A0179FF7D027F93124D227BFFC1
:0B3EFB007A0079837D027F8B024D224C
:103F0600124BC8753991753A01753B0F227BFF7AC2
:103F16000179F97D01124D2222124BC8753980753F
:063F26003A01753B0F2279
:1022D700E4F528D204D200C20FC205C202C201121D
:1022E7002FE37A027904121320124D221249FF7D3F
:1022F70001E4FF12458FE52875F010A42437F9741F
:102307000535F0FA7BFF7D087F9012254B2447F9AE
:10231700740535F0FA12121812254B2457F9740573
:1023270035F0FA1213C8124D221248CD8F27E52730
:10233700B40B0B74032528F528D394095014E5270B
:10234700B40AB3E528D3940040AC74FD2528F528DA
:1023570080A41231F0124EEC123E3BD20B75268050
:10236700E4F528121203E6FFD394634024EF75F0D7
:102377006412253575F00A84AFF0E52604FD12498D
:10238700B5121203E675F00A84AFF0E52624028041
:102397000F121203E675F00A122535AFF0E5260491
:1023A700FD1249B57849E6D39463400575268580C3
:1023B700037526860528E528C3940240A61248CD52
:1023C7008F27E52724F9B409004002A12B9023DECB
:1023D70025E050020583738129815D817881DF8142
:1023E700DF61F061F0810B810BE527B40C0B783DC1
:1023F700E6C394FA5027068024783DE6D39400403C
:102407001C168019E527B40E0B7849E6C394FA50D9
:102417000C0680097849E6D3940040011675266EAC
:10242700A12BC2AFC28CC28E785F06E6D3943B4025
:1024370017E4F61806E6D3943B400DE408F61806B1
:10244700E6D3943C4002E4F67860E6C39418500162
:1024570006124867A12B785CE664016002A12B1283
:10246700147B78607618124867D2AFD28ED28CA1CF
:102477002B785EE6703008E6702C7861E6785EF6B9
:10248700786076187962E7785D667018793DE77845
:1024970049667008C20B7863760161591248CDBF4F
:1024A7000AFA8071806A30AF08C2AFC28EC28C80D0
:1024B7007320AF047F0180027F007860E660047EAE
:1024C7000180027E00EE5F605BD28CD2AF785CE663
:1024D70064017050D28E804C20AF497F707E1712F6
:1024E700000E1248CD8F26E52665277032E5276452
:1024F7000B7022124EECD20F124C9FD216124E972F
:10250700C2161248CDBF0BFAC20F75266E124EECDB
:10251700123E3B800F7FC1124CF88F20C20B2285E1
:0E252700262761C9E526646E600261C4616406
:1025350084FFAD261249B5E52875F00CA4243DF8B5
:10254500E675F00A8422124D22E52875F010A422C2
:042E7E008F298D2AE1
:102E820075398012108E7B8E7DFF7FFF124BC81228
:102E920014E7753B107B8AE4FDFF124BC87F961244
:102EA2002FCB7F9E122FD71210967F92124D221295
:102EB20010967F9A124D227A01799A122FC112101E
:102EC200967F8A124D22E529C39402E529500B759B
:102ED200F00CA42453F97404800975F008A4245B4F
:102EE200F9740435F0FA7BFFE52A75F004A429F998
:102EF200EA35F0FA7D027F8E124D221248CD8F2BD9
:102F0200E52B640570277F96124C03E52A700CE5C9
:102F120029C394025005752A028012E52A700CE535
:102F220029D394014005752A018002152AE52B64F4
:102F32000270267F9E124C03E52AB40209E529C3DA
:102F420094025002800CE52AB4010CE529D39401C5
:102F52004005E4F52A8002052AE52B64016008E5B4
:102F62002B640B6002C1C87A007996122FC1121429
:102F72003E75398012108E7B8EE4FDFF124BC81213
:102F820014E7121125124BC87F92122FCB7F9A128F
:102F92002FD71210967F96124D221210967F9E12F4
:102FA2004D227BFF7A02790B7D017F8A124D227BB3
:0E2FB200FF7A02790E7D037F8D124D22AF2A29
:102FC000227BFF7D017F8D124D22227BFF7A0079CB
:102FD0002D7D01124D22227BFF7A0079307D011276
:032FE0004D22225D
:10358E007BFF7A0279157D027F81124D221243D084
:10359E007A0379D7121218124D221214E71211253E
:1035AE00124BC8E4F526F528E5281214457F931230
:1035BE00370BE52875F004A42493F9740435F0FA5A
:1035CE007BFF7D027F8B124D22E5281214517F9BCB
:1035DE0012370B8528261248CD8F27E527640B60FE
:1035EE0005E527B40305124EDB802EE527B4050D45
:1035FE00E526121445E493F5287F928010E527B452
:10360E000210E526121451E493F5287F9A124C030A
:10361E008007E527B401BFC1E7E527640B6006E527
:10362E002764037083E4F528F527E5261460461415
:10363E00606B14607C147002C1D3147002C1E72455
:10364E00056002C1EEE527B40114C207C206E528E3
:10365E00B40102D206E528B40210D207800C30065F
:10366E0003752801300703752802300704D28680BF
:10367E006FC286806BE527B40115C205C204E5282A
:10368E00B40102D204E52864027055D2058051308F
:10369E0004037528013005487528028043E527B4D8
:1036AE000108E52824FF9203803630033305288075
:1036BE002FE527B40108E52824FF9202802230026C
:1036CE001F0528801BE527B40108E52824FF92007A
:1036DE00800E30000B05288007AD207FC0024EC63D
:1036EE00E5277009AD28AF26122E7E8F280527E517
:0D36FE0027C394025002C138852628A1B6CA
:10370B00E49375F004A42493F9740435F0FA7BFF69
:06371B007D02124D222286
:104D7500E4FFEFC39406501E745C2FF8C000E6C430
:104D850054F0D000F6745D2FF8E6FE745C2FF8EE53
:064D950026F60F0F80DC82
:014D9B0022F5
:10480000752A207BFF7A02791A7D037F9D124D2243
:10481000E4F5291248CD745C2529F8A607745C25B7
:1048200029F8E6FFC394004005EF940A4007EFB46F
:104830000AE17F0A22E690041D93F52BE5292489DD
:10484000FF7B007A00792A7D01124D227F207E4E67
:1048500012000EE529121327124D220529E529C35E
:06486000940640AF7F0B3F
:01486600222F
:10372100752A201211CA124D22E4F5291248CD1230
:1037310014EEFE6F702FEE90041D93F52BE52924F6
:1037410089FF7B007A00792A7D01124D227F207E3C
:103751004E12000EE529121327124D220529E529E3
:10376100C3940640C7E529640660257BFF7A027988
:10377100317D067F89124D227F507EC312000E7A61
:1037810002793E1237F51248CDEF64F0706580F68C
:10379100124D75E4F529E529C394065012E5292453
:1037A100C2FF1214EEFD124EC60529052980E7E479
:1037B100F529E529C394065014E52924C3FF124CC9
:1037C100F81214EEB507060529052980E5E529B4A7
:1037D10006177BFF7A02794B7D087F98124D2212E2
:1037E10048CDEF640B600C80F67A02795C1237F5F4
:0337F100123FF292
:0B37F400227BFF7D067F9A124D2222EF
:104B8B00124D75E4FDEDC394065013ED24C3FF12D3
:104B9B004CF8745C2DF8E6B507040D0D80E7BD06E7
:104BAB00037F01227BFF7A0279697D067F89124D93
:0C4BBB0022123FF21211CA124D227F6E2E
:014BC70022CB
:10151000E4F527F526124EEC7BFF7A0279767D0200
:101520007F81124D221243D0121214124D22121139
:101530001F124BC8E5261214F51212941210DD7F0B
:1015400093124D22E5261212981210DD7F8B124D58
:1015500022E5261214FF1212941210DD7F9B124D09
:10156000228526271217B3640B6005E528B403050E
:10157000124EDB8031E528B4020FE5271214FFF587
:1015800083E493F5267F9A8012E528B40512E527B7
:101590001214F5F583E493F5267F92124C0380062E
:1015A000E528B401BF22E528640B6008E528640340
:1015B0006002E15EE52764037002E1681217DFE56F
:1015C00027147002C19B147002C1DF24026002E183
:1015D000581217691212A2124D2212179F7002E1BF
:1015E000581217BBB401F37A02798D7D081217A93E
:1015F0007A02799E7D087F88124D227BFF7A0279DC
:10160000AF7D087F98124D22C2B7E47873F618F6C2
:10161000D2121217B3B4FF06C212D2B7E158E528AE
:10162000B4010C7A0279C01217791217C3C212E5FD
:1016300028B402DE7A0279C31217791217C37A022C
:1016400079C07F8C1217CF7F607EEA12000E1217CE
:10165000DF1217697A0279C67D057F90124D227AD2
:101660000279D17F8A1217D7E4F526E5262499FF5F
:101670007BFF7A0079D67D01124D22123FF20526BA
:10168000E526C3940540E47A0279DE7F9E1217CFE7
:10169000C2B712143ED2B7C212E1587A0279E112EF
:1016A0001509124D227A0279E812179512179F70C8
:1016B00002E1581217BBB401F37BFF7A0279F57D82
:1016C000017F92124D221211CA124D221217E6709A
:1016D00002E1587A0279F8121795123721E158126F
:1016E00017857A03790C7D067F91124D227A007955
:1016F000B17F891217D71248CD8F28E528640B7067
:1017000051124EEC1249FF1217851212A2124D22ED
:101710001217E6603D124B8B8F28E528B401F17A51
:101720000379197D051217A97A0379237D077F892B
:10173000124D22124F00124DC3123FF27BFF7A036B
:1017400079327D067F9A124D221248CDBF0BFA7571
:10175000280AE528640A709E752863852726E528EF
:0817600064636002A134A115CD
:10176800227BFF7A02797B7D037F82124D227BFFE9
:10177800227BFF7D017F88124D227BFF227BFF7A2F
:101788000379057D037F82124D227BFF227BFF7D3B
:10179800067F90124D22221248008F28E528640AFD
:1017A800227BFF7F90124D227BFF221248CD8F288B
:1017B800E52822124B8B8F28E528227A0279C37DEF
:1017C800017F98124D22227BFF7D01124D22227B40
:1017D800FF7D06124D2222124EEC1249FF221248BA
:0817E800008F28E528640A22A5
:103D4400E4F5277A03793F121509124D221249FF2F
:103D5400E52775F00EA424ABF974047F90123E2E6F
:103D640075F00EA424B9F974047F88123E2E75F000
:103D74000EA424C7F9740435F0FA7BFF7D077F98FD
:103D8400124D22E52760087BFF7A0179348010E523
:103D9400277BFF70067A03794680047A0079D37D05
:103DA400017F97124D22E52764077BFF60067A01A5
:103DB400791C80047A0079D37D017F9F124D2212F1
:103DC40048CD8F26E526B4020EE527C39407500795
:103DD4007F9F123E1B0527E526B4050EE527D394E5
:103DE4000040077F97123E1B1527E52664016026D5
:103DF400E526640B6008E52664036002A154E52708
:103E040064076002A1547BFF7A0379497D027F9E97
:063E1400124D2212143EC3
:103E1A00227BFF7A0179317D01124D227F307E7536
:103E2A0012000E2235F0FA7BFF7D07124D22E5279C
:013E3A002265
:103963001247EED2B7D2B3D284D2B6D2867FD51263
:103973004CF88F25300704D2868002C2867BFF7AFB
:1039830003794E7D047F92124D227BFF7A03795790
:103993007D037F9D124D22E52564B46003124F0021
:1039A300124DC3124E0A124C9F200803124E493087
:1039B3000803124C6B122FE3123FF2E47867F6D23E
:1039C300AFD28CD211124EEC300409D216124E979C
:1039D300C216800B3005051240008003124EF71209
:1039E30048CD8F25E525F47048C28CC211124EECE8
:1039F3001249FF7BFF7A03795E7D037F82124D229A
:103A03007BFF1212A2124D22C2021248008F25E53B
:103A130025B40A08D202786776028010124B8B8F86
:103A230025E525B401E2D202E47867F612110621F6
:103A3300C2E525640B600241BD7F01124ACE121418
:103A430017C211C28C124EEC123C248F25124EEC7D
:103A5300E52570051233C880E8E52564017034124A
:103A63004EEC1243238F25E525640460D4124EECFB
:103A7300E52514600F146011146013240370E01221
:103A8300300080DB1217F080D6122A3880D1122240
:103A9300D780CCE525B4020512358E80A4E525B484
:103AA3000305121510809AE525B40405123D4480E0
:103AB30090121106E47867F6D21120110221E22157
:013AC300C240
:10450F00023963E493A3F8E493A34003F68001F226
:10451F0008DFF48029E493A3F85407240CC8C333AD
:10452F00C4540F4420C8834004F456800146F6DF7C
:10453F00E4800B0102040810204080904D9CE47E23
:10454F00019360BCA3FF543F30E509541FFEE49371
:10455F00A360010ECF54C025E060A840B8E493A338
:10456F00FAE493A3F8E493A3C8C582C8CAC583CA63
:10457F00F0A3C8C582C8CAC583CADFE9DEE780BE1B
:014DC20000F0
:101B0300E709F608DFFA8046E709F208DFFA803EC4
:101B130088828C83E709F0A3DFFA8032E309F608B1
:101B2300DFFA8078E309F208DFFA807088828C8319
:101B3300E309F0A3DFFA806489828A83E0A3F608CD
:101B4300DFFA805889828A83E0A3F208DFFA804CA7
:101B530080D280FA80C680D4806980F2803380107E
:101B630080A680EA809A80A880DA80E280CA8033E7
:101B730089828A83ECFAE493A3C8C582C8CCC5835F
:101B8300CCF0A3C8C582C8CCC583CCDFE9DEE7802F
:101B93000D89828A83E493A3F608DFF9ECFAA9F0AE
:101BA300EDFB2289828A83ECFAE0A3C8C582C8CC04
:101BB300C583CCF0A3C8C582C8CCC583CCDFEADE1D
:101BC300E880DB89828A83E493A3F208DFF980CC7F
:101BD30088F0EF60010E4E60C388F0ED2402B40478
:101BE3000050B9F582EB2402B4040050AF2323451F
:061BF3008223901B5373D6
:101BF900BB010689828A83E0225002E722BBFE02EA
:091C0900E32289828A83E493221C
:101C1200BC000BBE0029EF8DF084FFADF022E4CCB6
:101C2200F875F008EF2FFFEE33FEEC33FCEE9DEC7F
:101C3200984005FCEE9DFE0FD5F0E9E4CEFD22EDC5
:101C4200F8F5F0EE8420D21CFEADF075F008EF2F0F
:101C5200FFED33FD4007985006D5F0F222C398FD00
:051C62000FD5F0EA229D
:101C6700C2D5EC30E709B2D5E4C39DFDE49CFCEE98
:101C770030E715B2D5E4C39FFFE49EFE121C12C3E2
:101C8700E49DFDE49CFC8003121C1230D507C3E4DD
:061C97009FFFE49EFE2207
:0D1C9D00EF2BFFEE3AFEED39FDEC38FC2296
:101CAA00E88FF0A4CC8BF0A42CFCE98EF0A42CFCD9
:101CBA008AF0EDA42CFCEA8EF0A4CDA8F08BF0A457
:101CCA002DCC3825F0FDE98FF0A42CCD35F0FCEBB6
:101CDA008EF0A4FEA9F0EB8FF0A4CFC5F02ECD397B
:0F1CEA00FEE43CFCEAA42DCE35F0FDE43CFC22E8
:101CF90075F008758200EF2FFFEE33FECD33CDCCA2
:101D090033CCC58233C5829BED9AEC99E582984024
:101D19000CF582EE9BFEED9AFDEC99FC0FD5F0D601
:101D2900E4CEFBE4CDFAE4CCF9A88222B800C1B92B
:101D39000059BA002DEC8BF084CFCECDFCE5F0CB69
:101D4900F97818EF2FFFEE33FEED33FDEC33FCEBA2
:101D590033FB10D703994004EB99FB0FD8E5E4F95D
:101D6900FA227818EF2FFFEE33FEED33FDEC33FC4A
:101D7900C933C910D7059BE99A4007EC9BFCE99A3E
:101D8900F90FD8E0E4C9FAE4CCFB2275F010EF2F83
:101D9900FFEE33FEED33FDCC33CCC833C810D70783
:101DA9009BEC9AE899400AED9BFDEC9AFCE899F8BE
:0E1DB9000FD5F0DAE4CDFBE4CCFAE4C8F92251
:101DC700EB9FF5F0EA9E42F0E99D42F0E89C45F072
:011DD70022E9
:0C1DD800A42582F582E5F03583F5832216
:101DE400FAE6FB0808E6F925F0F618E6CA3AF62200
:00000001FF
