:100000000C9446000C9417030C9465000C94650046
:100010000C9465000C9465000C9465000C946500CC
:100020000C9465000C9465000C9465000C946500BC
:100030000C9465000C9465000C9465000C946500AC
:100040000C9465000C9465000C9465000C9465009C
:100050000C9465000C9465000C9465000C9465008C
:100060000C9465000C9465000C9465000C9465007C
:100070000C9465000C9465000C9465000C9465006C
:100080000C9465000C9465000C94650011241FBE4F
:10009000CFEFD0E1DEBFCDBF11E0A0E0B1E0E8EBF3
:1000A000FCE000E00BBF02C007900D92AC30B1073E
:1000B000D9F711E0ACE0B1E001C01D92A633B10761
:1000C000E1F70E94E3050C945B060C940000CF93CB
:1000D000DF93CDB7DEB724970FB6F894DEBF0FBE1F
:1000E000CDBF9C838B832B813C81C901880F991FD5
:1000F000880F991F820F931F9695879596958795E0
:100100009C838B831A82198205C089819A8101960A
:100110009A83898329813A818B819C8128173907A9
:10012000A0F324960FB6F894DEBF0FBECDBFDF91CB
:10013000CF910895CF93DF93CDB7DEB726970FB653
:10014000F894DEBF0FBECDBF9E838D831C821B82C1
:1001500013C01A82198205C089819A8101969A83F7
:10016000898389819A8124E085379207A8F38B815E
:100170009C8101969C838B832B813C818D819E8108
:100180002817390730F326960FB6F894DEBF0FBE56
:10019000CDBFDF91CF910895CF93DF93CDB7DEB779
:1001A000A8E3B0E0E8E3F0E0808181608C93E7E3CE
:1001B000F0E087E18083A7E3B0E0E7E3F0E080814F
:1001C000877D8C93EDE2F0E081E58083EEE2F0E064
:1001D0001082DF91CF910895CF93DF93CDB7DEB733
:1001E00021970FB6F894DEBF0FBECDBF8983EFE233
:1001F000F0E089818083EEE2F0E080818823DCF703
:10020000EFE2F0E08081882F90E021960FB6F8941D
:10021000DEBF0FBECDBFDF91CF910895CF93DF93A7
:10022000CDB7DEB722970FB6F894DEBF0FBECDBFB5
:100230008A83A8E3B0E0E8E3F0E080818E7F8C93CE
:100240008A810E94EC0080E00E94EC008983A8E390
:10025000B0E0E8E3F0E0808181608C938981882FB1
:1002600090E022960FB6F894DEBF0FBECDBFDF91AF
:10027000CF910895CF93DF93CDB7DEB723970FB615
:10028000F894DEBF0FBECDBF8A836B83A8E3B0E0D6
:10029000E8E3F0E080818E7F8C938A810E94EC00FD
:1002A00089838B810E94EC00A8E3B0E0E8E3F0E0F2
:1002B000808181608C938981882F90E023960FB68E
:1002C000F894DEBF0FBECDBFDF91CF9108950F939D
:1002D0001F93CF93DF93CDB7DEB728970FB6F8946F
:1002E000DEBF0FBECDBF8D837F836E834887A8E3BB
:1002F000B0E0E8E3F0E080818E7F8C938D810E94F6
:10030000EC00882F90E09C838B831A82198211C0A5
:1003100029813A818E819F818901080F191F80E010
:100320000E94EC00F801808389819A8101969A836A
:1003300089838885282F30E089819A8182179307E5
:1003400038F3A8E3B0E0E8E3F0E0808181608C93CB
:100350008B81882F90E028960FB6F894DEBF0FBEF1
:10036000CDBFDF91CF911F910F910895CF93DF9370
:10037000CDB7DEB726970FB6F894DEBF0FBECDBF60
:100380008B837D836C834E83A8E3B0E0E8E3F0E0E9
:1003900080818E7F8C938B810E94EC008A831982EE
:1003A0000EC0EC81FD8120818C819D8101969D8311
:1003B0008C83822F0E94EC0089818F5F89839981D1
:1003C0008E81981770F3A8E3B0E0E8E3F0E0808155
:1003D00081608C938A81882F90E026960FB6F894DE
:1003E000DEBF0FBECDBFDF91CF910895CF93DF93D6
:1003F000CDB7DEB7A8E3B0E0E8E3F0E080818F7E20
:100400008C9385E091E045E0BC018AE20E94B60150
:1004100061E081E20E943A0161E082E20E943A01D9
:1004200060E085E20E943A0160E281E30E943A01C5
:1004300067E086E20E943A016FE080E20E943A01A2
:10044000A8E3B0E0E8E3F0E0808180618C9380E98C
:1004500091E00E946700DF91CF910895CF93DF93E1
:10046000CDB7DEB724970FB6F894DEBF0FBECDBF71
:100470009C838B83198287E00E940E018A838A8184
:10048000882F90E080749070009781F0A8E3B0E02E
:10049000E8E3F0E080818F7E8C938B819C8140E249
:1004A000BC0181E60E94670181E089836A8187E25D
:1004B0000E943A018981882F90E024960FB6F89423
:1004C000DEBF0FBECDBFDF91CF910895CF93DF93F5
:1004D000CDB7DEB722970FB6F894DEBF0FBECDBF03
:1004E0009A838983A8E3B0E0E8E3F0E080818F7E1F
:1004F0008C9380E091E045E0BC0180E30E94B6016E
:1005000080E091E045E0BC018AE20E94B601898169
:100510009A8140E2BC0180EA0E94B60161E081E27A
:100520000E943A0161E082E20E943A016FE184E2B6
:100530000E943A0160E085E20E943A0167E086E2AB
:100540000E943A016EE080E20E943A0182E090E06F
:100550000E949A00A8E3B0E0E8E3F0E080818061C7
:100560008C938AE090E00E946700A8E3B0E0E8E3A3
:10057000F0E080818F7E8C9322960FB6F894DEBFD8
:100580000FBECDBFDF91CF910895CF93DF93CDB74D
:10059000DEB70E94CC00A8E3B0E0E8E3F0E08081A1
:1005A0008F7E8C93A8E3B0E0E8E3F0E08081816087
:1005B0008C93A8E3B0E0E8E3F0E080818D7F8C933A
:1005C000DF91CF910895CF93DF93CDB7DEB7249716
:1005D0000FB6F894DEBF0FBECDBF9C838B831A820B
:1005E000198215C00000000000000000000000009B
:1005F00000000000000000000000000000000000FB
:100600000000000089819A8101969A83898329815B
:100610003A818B819C812817390720F324960FB6E5
:10062000F894DEBF0FBECDBFDF91CF9108951F922A
:100630000F920FB60F9211242F933F934F935F9316
:100640006F937F938F939F93AF93BF93EF93FF939A
:10065000CF93DF93CDB7DEB7EFE5F0E0108282E114
:1006600091E00E942E02882309F492C28091120127
:10067000882309F077C0A5E3B0E0E5E3F0E08081EE
:100680008F738C9310920D0110920C0110920F0138
:1006900010920E01EFE4F0E083EA8083EEE4F0E0F4
:1006A00089E18083EAE4F0E088EE93E0918380833F
:1006B000E8E4F0E080910C0190910D01918380833A
:1006C000EBE8F0E083EA8083EAE8F0E089E1808308
:1006D000E6E8F0E088EE93E091838083E4E8F0E0E0
:1006E00080910E0190910F019183808387E192E0C8
:1006F0000E94E30288EE93E090930D0180930C0139
:1007000088EE93E090930F0180930E01EFE4F0E008
:1007100083EA8083EEE4F0E089E18083EAE4F0E0BC
:1007200088EE93E091838083E8E4F0E080910C010F
:1007300090910D0191838083EBE8F0E083EA808360
:10074000EAE8F0E089E18083E6E8F0E088EE93E013
:1007500091838083E4E8F0E080910E0190910F0195
:100760009183808380911201813009F077C0A5E3E5
:10077000B0E0E5E3F0E08081806C8C9388EE93E05C
:1007800090930D0180930C0188EE93E090930F01FC
:1007900080930E01EFE4F0E083EA8083EEE4F0E082
:1007A00089E18083EAE4F0E088EE93E0918380833E
:1007B000E8E4F0E080910C0190910D019183808339
:1007C000EBE8F0E083EA8083EAE8F0E089E1808307
:1007D000E6E8F0E088EE93E091838083E4E8F0E0DF
:1007E00080910E0190910F019183808387E192E0C7
:1007F0000E94E30210920D0110920C0110920F0161
:1008000010920E01EFE4F0E083EA8083EEE4F0E082
:1008100089E18083EAE4F0E088EE93E091838083CD
:10082000E8E4F0E080910C0190910D0191838083C8
:10083000EBE8F0E083EA8083EAE8F0E089E1808396
:10084000E6E8F0E088EE93E091838083E4E8F0E06E
:1008500080910E0190910F0191838083809112010C
:10086000823009F07FC0A5E3B0E0E5E3F0E08081ED
:1008700080688C93A5E3B0E0E5E3F0E090818FEB36
:1008800089238C9310920D0110920C0188EE93E055
:1008900090930F0180930E01EFE4F0E083EA8083F0
:1008A000EEE4F0E089E18083EAE4F0E088EE93E0B2
:1008B00091838083E8E4F0E080910C0190910D0138
:1008C00091838083EBE8F0E083EA8083EAE8F0E05C
:1008D00089E18083E6E8F0E088EE93E0918380830D
:1008E000E4E8F0E080910E0190910F019183808304
:1008F00087E192E00E94E30288EE93E090930D017D
:1009000080930C0110920F0110920E01EFE4F0E0C1
:1009100083EA8083EEE4F0E089E18083EAE4F0E0BA
:1009200088EE93E091838083E8E4F0E080910C010D
:1009300090910D0191838083EBE8F0E083EA80835E
:10094000EAE8F0E089E18083E6E8F0E088EE93E011
:1009500091838083E4E8F0E080910E0190910F0193
:100960009183808380911201833009F07EC0A5E3DA
:10097000B0E0E5E3F0E0808180648C93A5E3B0E033
:10098000E5E3F0E080818F778C9388EE93E090939D
:100990000D0180930C0110920F0110920E01EFE4F3
:1009A000F0E083EA8083EEE4F0E089E18083EAE42A
:1009B000F0E088EE93E091838083E8E4F0E08091BA
:1009C0000C0190910D0191838083EBE8F0E083EAC4
:1009D0008083EAE8F0E089E18083E6E8F0E088EEF1
:1009E00093E091838083E4E8F0E080910E019091A0
:1009F0000F019183808387E192E00E94E3021092CD
:100A00000D0110920C0188EE93E090930F018093FA
:100A10000E01EFE4F0E083EA8083EEE4F0E089E1A8
:100A20008083EAE4F0E088EE93E091838083E8E459
:100A3000F0E080910C0190910D0191838083EBE8AF
:100A4000F0E083EA8083EAE8F0E089E18083E6E889
:100A5000F0E088EE93E091838083E4E8F0E0809119
:100A60000E0190910F019183808380911201843057
:100A700009F07BC0A5E3B0E0E5E3F0E08081806CA5
:100A80008C9388EE93E090930D0180930C0188EE97
:100A900093E090930F0180930E01EFE4F0E083EA7E
:100AA0008083EEE4F0E089E18083EAE4F0E088EE20
:100AB00093E091838083E8E4F0E080910C019091D1
:100AC0000D0191838083EBE8F0E083EA8083EAE81C
:100AD000F0E089E18083E6E8F0E088EE93E091833E
:100AE0008083E4E8F0E080910E0190910F01918302
:100AF000808387E192E00E94E30288EE93E0909386
:100B00000D0180930C0188EE93E090930F01809388
:100B10000E01EFE4F0E083EA8083EEE4F0E089E1A7
:100B20008083EAE4F0E088EE93E091838083E8E458
:100B3000F0E080910C0190910D0191838083EBE8AE
:100B4000F0E083EA8083EAE8F0E089E18083E6E888
:100B5000F0E088EE93E091838083E4E8F0E0809118
:100B60000E0190910F019183808380911201853055
:100B700041F4E5E4F0E08AE18083E3E4F0E089EF2A
:100B8000808380911201863019F4E3E4F0E0108252
:100B90006FEF87E20E943A01EFE5F0E080E88083A2
:100BA000DF91CF91FF91EF91BF91AF919F918F9185
:100BB0007F916F915F914F913F912F910F900FBE59
:100BC0000F901F901895CF93DF93CDB7DEB7229784
:100BD0000FB6F894DEBF0FBECDBFEAE3F0E08FEFB3
:100BE0008083E4E3F0E08FEF8083E5E3F0E080EFE3
:100BF0008083EBE3F0E080EF8083E7E3F0E080E6E2
:100C00008083E2E2F0E08FEF8083EAE6F0E082E0CA
:100C10008083E9E5F0E081E08083EFE5F0E080E8C3
:100C200080830E94C502A7E3B0E0E7E3F0E08081A3
:100C3000806E8C9388EE93E090930D0180930C016D
:100C400088EE93E090930F0180930E01EFE4F0E0C3
:100C500083EA8083EEE4F0E089E18083EAE4F0E077
:100C600088EE93E091838083E8E4F0E080910C01CA
:100C700090910D0191838083EBE8F0E083EA80831B
:100C8000EAE8F0E089E18083E6E8F0E088EE93E0CE
:100C900091838083E4E8F0E080910E0190910F0150
:100CA0009183808387E192E00E94E3020E94F60133
:080CB0000E94F601FDCFFFCF09
:0C0CB80034431010013443101001F4010B
:00000001FF
