:100000000C9446000C9417030C9463030C94B003F7
:100010000C94FD030C9465000C9465000C94650031
:100020000C9465000C9465000C9465000C946500BC
:100030000C9465000C9465000C9465000C946500AC
:100040000C9465000C9465000C9465000C9465009C
:100050000C9465000C9465000C9465000C9465008C
:100060000C9465000C9465000C9465000C9465007C
:100070000C9465000C9465000C9465000C9465006C
:100080000C9465000C9465000C94650011241FBE4F
:10009000CFEFD0E1DEBFCDBF11E0A0E0B1E0EAE2FA
:1000A000F9E000E00BBF02C007900D92AA30B10743
:1000B000D9F711E0AAE0B1E001C01D92AA32B10760
:1000C000E1F70E945D040C9494040C940000CF931B
:1000D000DF93CDB7DEB724970FB6F894DEBF0FBE1F
:1000E000CDBF9C838B832B813C81C901880F991FD5
:1000F000880F991F820F931F9695879596958795E0
:100100009C838B831A82198205C089819A8101960A
:100110009A83898329813A818B819C8128173907A9
:10012000A0F324960FB6F894DEBF0FBECDBFDF91CB
:10013000CF910895CF93DF93CDB7DEB726970FB653
:10014000F894DEBF0FBECDBF9E838D831C821B82C1
:1001500013C01A82198205C089819A8101969A83F7
:10016000898389819A8124E085379207A8F38B815E
:100170009C8101969C838B832B813C818D819E8108
:100180002817390730F326960FB6F894DEBF0FBE56
:10019000CDBFDF91CF910895CF93DF93CDB7DEB779
:1001A000A8E3B0E0E8E3F0E0808181608C93E7E3CE
:1001B000F0E087E18083A7E3B0E0E7E3F0E080814F
:1001C000877D8C93EDE2F0E081E58083EEE2F0E064
:1001D0001082DF91CF910895CF93DF93CDB7DEB733
:1001E00021970FB6F894DEBF0FBECDBF8983EFE233
:1001F000F0E089818083EEE2F0E080818823DCF703
:10020000EFE2F0E08081882F90E021960FB6F8941D
:10021000DEBF0FBECDBFDF91CF910895CF93DF93A7
:10022000CDB7DEB722970FB6F894DEBF0FBECDBFB5
:100230008A83A8E3B0E0E8E3F0E080818E7F8C93CE
:100240008A810E94EC0080E00E94EC008983A8E390
:10025000B0E0E8E3F0E0808181608C938981882FB1
:1002600090E022960FB6F894DEBF0FBECDBFDF91AF
:10027000CF910895CF93DF93CDB7DEB723970FB615
:10028000F894DEBF0FBECDBF8A836B83A8E3B0E0D6
:10029000E8E3F0E080818E7F8C938A810E94EC00FD
:1002A00089838B810E94EC00A8E3B0E0E8E3F0E0F2
:1002B000808181608C938981882F90E023960FB68E
:1002C000F894DEBF0FBECDBFDF91CF9108950F939D
:1002D0001F93CF93DF93CDB7DEB728970FB6F8946F
:1002E000DEBF0FBECDBF8D837F836E834887A8E3BB
:1002F000B0E0E8E3F0E080818E7F8C938D810E94F6
:10030000EC00882F90E09C838B831A82198211C0A5
:1003100029813A818E819F818901080F191F80E010
:100320000E94EC00F801808389819A8101969A836A
:1003300089838885282F30E089819A8182179307E5
:1003400038F3A8E3B0E0E8E3F0E0808181608C93CB
:100350008B81882F90E028960FB6F894DEBF0FBEF1
:10036000CDBFDF91CF911F910F910895CF93DF9370
:10037000CDB7DEB726970FB6F894DEBF0FBECDBF60
:100380008B837D836C834E83A8E3B0E0E8E3F0E0E9
:1003900080818E7F8C938B810E94EC008A831982EE
:1003A0000EC0EC81FD8120818C819D8101969D8311
:1003B0008C83822F0E94EC0089818F5F89839981D1
:1003C0008E81981770F3A8E3B0E0E8E3F0E0808155
:1003D00081608C938A81882F90E026960FB6F894DE
:1003E000DEBF0FBECDBFDF91CF910895CF93DF93D6
:1003F000CDB7DEB7A8E3B0E0E8E3F0E080818F7E20
:100400008C9385E091E045E0BC018AE20E94B60150
:1004100061E081E20E943A0161E082E20E943A01D9
:1004200060E085E20E943A0160E281E30E943A01C5
:1004300067E086E20E943A016FE080E20E943A01A2
:10044000A8E3B0E0E8E3F0E0808180618C9388EC81
:1004500090E00E946700DF91CF910895CF93DF93E2
:10046000CDB7DEB724970FB6F894DEBF0FBECDBF71
:100470009C838B83198287E00E940E018A838A8184
:10048000882F90E080749070009781F0A8E3B0E02E
:10049000E8E3F0E080818F7E8C938B819C8140E249
:1004A000BC0181E60E94670181E089836A8187E25D
:1004B0000E943A018981882F90E024960FB6F89423
:1004C000DEBF0FBECDBFDF91CF910895CF93DF93F5
:1004D000CDB7DEB722970FB6F894DEBF0FBECDBF03
:1004E0009A838983A8E3B0E0E8E3F0E080818F7E1F
:1004F0008C9380E091E045E0BC0180E30E94B6016E
:1005000080E091E045E0BC018AE20E94B601898169
:100510009A8140E2BC0180EA0E94B60161E081E27A
:100520000E943A0161E082E20E943A016FE184E2B6
:100530000E943A0160E085E20E943A0167E086E2AB
:100540000E943A016EE080E20E943A0184E090E06D
:100550000E949A00A8E3B0E0E8E3F0E080818061C7
:100560008C9384E190E00E946700A8E3B0E0E8E3A8
:10057000F0E080818F7E8C9322960FB6F894DEBFD8
:100580000FBECDBFDF91CF910895CF93DF93CDB74D
:10059000DEB70E94CC00A8E3B0E0E8E3F0E08081A1
:1005A0008F7E8C93A8E3B0E0E8E3F0E08081816087
:1005B0008C93A8E3B0E0E8E3F0E080818D7F8C933A
:1005C000DF91CF910895CF93DF93CDB7DEB7249716
:1005D0000FB6F894DEBF0FBECDBF9C838B831A820B
:1005E000198215C00000000000000000000000009B
:1005F00000000000000000000000000000000000FB
:100600000000000089819A8101969A83898329815B
:100610003A818B819C812817390720F324960FB6E5
:10062000F894DEBF0FBECDBFDF91CF9108951F922A
:100630000F920FB60F9211242F933F934F935F9316
:100640006F937F938F939F93AF93BF93EF93FF939A
:10065000CF93DF93CDB7DEB7EFE5F0E01082E0E3B4
:10066000F0E08081882F90E0817090708823A1F065
:100670000E94C50210920A018AE091E00E9466027F
:100680008EE190E00E949A006FEF87E20E943A01AB
:10069000EBE3F0E081E08083EFE5F0E080E8808349
:1006A000DF91CF91FF91EF91BF91AF919F918F918A
:1006B0007F916F915F914F913F912F910F900FBE5E
:1006C0000F901F9018951F920F920FB60F92112442
:1006D0002F933F934F935F936F937F938F939F934A
:1006E000AF93BF93EF93FF93CF93DF93CDB7DEB775
:1006F000EFE5F0E01082E0E3F0E08081882F90E009
:10070000827090700097A9F00E94C50281E08093EA
:100710000A018AE091E00E9466028EE190E00E9468
:100720009A006FEF87E20E943A01EBE3F0E082E08B
:100730008083EFE5F0E080E88083DF91CF91FF9147
:10074000EF91BF91AF919F918F917F916F915F9149
:100750004F913F912F910F900FBE0F901F901895C2
:100760001F920F920FB60F9211242F933F934F9326
:100770005F936F937F938F939F93AF93BF93EF9309
:10078000FF93CF93DF93CDB7DEB7EFE5F0E01082B4
:10079000E0E3F0E08081882F90E084709070009713
:1007A000A9F00E94C50282E080930A018AE091E0EC
:1007B0000E9466028EE190E00E949A006FEF87E24D
:1007C0000E943A01EBE3F0E084E08083EFE5F0E0A3
:1007D00080E88083DF91CF91FF91EF91BF91AF913E
:1007E0009F918F917F916F915F914F913F912F9149
:1007F0000F900FBE0F901F9018951F920F920FB67B
:100800000F9211242F933F934F935F936F937F9396
:100810008F939F93AF93BF93EF93FF93CF93DF9308
:10082000CDB7DEB72197DEBFCDBFEFE5F0E0108298
:10083000E0E3F0E08081882F90E08870907000976E
:1008400009F10E94C50283E080930A018AE091E0E9
:100850000E9466028EE190E00E949A0087E00E946A
:100860000E018983EBE3F0E08981808380E593ECDE
:100870000E94E3026FEF87E20E943A01EBE3F0E0AF
:1008800088E08083EFE5F0E080E880832196F894AB
:10089000DEBFCDBFDF91CF91FF91EF91BF91AF91BF
:1008A0009F918F917F916F915F914F913F912F9188
:1008B0000F900FBE0F901F901895CF93DF93CDB779
:1008C000DEB7EAE3F0E08FEF8083E1E3F0E080EF72
:1008D0008083E4E3F0E08FEF8083E5E3F0E080EFF6
:1008E0008083EBE3F0E080EF8083E2E2F0E08FEFE3
:1008F0008083EAE6F0E085E58083E9E5F0E08FE0DB
:100900008083EFE5F0E080E8808386E190E00E945C
:100910009A000E94C502EAE3F0E08FEF8083EBE3E8
:0A092000F0E08FE08083FFCFFFCFEF
:0A092A003443101001344310100193
:00000001FF
